:020000040800F2
:10000000609E0020D5010008C10D00081B0D0008EE
:10001000BD0D0008C50600087F2B00080000000089
:10002000000000000000000000000000852800081B
:10003000610A000800000000490E0008712900084C
:10004000EF010008EF010008EF010008EF010008D0
:10005000EF010008EF010008EF010008EF010008C0
:10006000EF010008EF010008EF010008EF010008B0
:10007000EF010008EF010008EF010008EF010008A0
:10008000EF010008EF010008EF010008EF01000890
:10009000EF010008EF010008EF010008EF01000880
:1000A000EF010008EF010008EF010008EF01000870
:1000B000EF010008EF010008EF010008EF01000860
:1000C000EF010008EF010008EF010008EF01000850
:1000D000EF010008D5290008EF010008EF01000832
:1000E000EF010008EF010008EF010008EF01000830
:1000F000EF010008EF010008EF010008EF01000820
:10010000EF010008C1100008EF010008EF0100082E
:10011000EF010008EF010008EF010008EF010008FF
:10012000EF010008EF010008EF010008EF010008EF
:1001300000F002F800F03FF80AA090E8000C8244BA
:100140008344AAF10107DA4501D100F034F8AFF297
:10015000090EBAE80F0013F0010F18BFFB1A43F0A5
:10016000010318473436000054360000103A24BF0B
:1001700078C878C1FAD8520724BF30C830C144BF0C
:1001800004680C607047000000230024002500264E
:10019000103A28BF78C1FBD8520728BF30C148BFEA
:1001A0000B607047642900F07780002070471FB50E
:1001B0001FBD10B510BD00F0ADF91146FFF7F7FFF8
:1001C00003F04CF900F0CBF903B4FFF7F2FF03BCE6
:1001D00002F0D7FC0948804709480047FEE7FEE7E0
:1001E000FEE7FEE7FEE7FEE7FEE7FEE7FEE7FEE7E7
:1001F00004480549054A064B704700007529000868
:100200003101000860980020609E0020609A002064
:10021000609A0020704700000FB4044910B503AA8B
:10022000029800F017F910BC5DF814FB00000020E4
:100230002DE9F0410E460446002020622046E16888
:10024000884730B3252805D0D4E901219047206A9A
:10025000401CF2E7E168204600278847050018D0D7
:10026000A5F14100192802D820354FF40067324625
:10027000294620462760FFF795FF40B1012804D0AA
:10028000F61D26F007060836D8E7361DD6E72846BD
:10029000DAE7206ABDE8F0812DE9F0410646002446
:1002A00010687529314616A510D0AFF300800028DC
:1002B00002DA404213A507E031688A0701D512A58A
:1002C00002E0490704D511A5012401E0AFF3008045
:1002D00000210A2206F1240709E0B0FBF2FCB0FB82
:1002E000F2F302FB1C00303078541846491C0028F9
:1002F000F3D123462A463046BDE8F04100F051B81C
:10030000000000002D0000002B0000002000000075
:10031000032A40F2308010F0030C00F0158011F831
:10032000013BBCF1020F624498BF11F801CB00F809
:10033000013B38BF11F8013BA2F1040298BF00F85D
:1003400001CB38BF00F8013B11F0030300F09480AB
:10035000083AC0F0088051F8043B083A51F804CB41
:10036000A0E80810F5E7121D5CBF51F8043B40F807
:10037000043BAFF30080D20724BF11F8013B11F812
:1003800001CB48BF11F8012B24BF00F8013B00F856
:1003900001CB48BF00F8012B70477047704770478A
:1003A00070472DE9F0470D4699469246044600F104
:1003B00024080168880604D5E06921F01001216055
:1003C00000E00120A84201DD471B00E00027A169F1
:1003D0007A1902EB0900081AA0612078C00602D43D
:1003E0002046AFF30080002608E0D4E901211AF886
:1003F00006009047206A401C761C20624E45F4DBC4
:100400002078C0060AD52046AFF3008006E0D4E984
:10041000012130209047206A401C2062381EA7F13D
:100420000107F4DC07E0D4E9012118F80500904742
:10043000206A401C2062281EA5F10105F3DC20463D
:10044000AFF300802078000602D50220BDE8F087D7
:100450000120FBE7074B70B50D467B4400F043F8E5
:100460000446284600F052F810B14FF0FF3070BD3E
:10047000204670BDA72E000010B5203AC0F00B80BA
:10048000B1E81850203AA0E81850B1E81850A0E898
:100490001850BFF4F5AF5FEA027C24BFB1E81850F2
:1004A000A0E8185044BF18C918C0BDE810405FEA62
:1004B000827C24BF51F8043B40F8043B08BF7047DE
:1004C000D20728BF31F8023B48BF11F8012B28BFE3
:1004D00020F8023B48BF00F8012B704701694A1C15
:1004E00002610878704700B58FB0CDE90131002175
:1004F000059105497944CDE9031011466846FFF797
:1005000097FE0FB000BD0000E5FFFFFF007B00F08D
:1005100080007047754600F02BF8AE46050069462E
:10052000534620F00700854618B020B5FFF760FE5F
:10053000BDE820404FF000064FF000074FF00008E4
:100540004FF0000B21F00701AC46ACE8C009ACE865
:10055000C009ACE8C009ACE8C0098D46704710B5C9
:100560000446AFF300802046BDE81040FFF72CBEE4
:10057000004870470098002008B50121802000F055
:1005800075FC4FF40060ADF8000003208DF8020008
:1005900010208DF803006946034800F033FB01206A
:1005A00000F008F808BD0000001C014010B5FFF77E
:1005B000E3FF10BD00F0010119B14FF40061014AE1
:1005C00011607047101C014000F0010129B103497E
:1005D000096881F40061014A116070470C1C0140F8
:1005E00008B50121042000F041FC4FF40070ADF883
:1005F000000003208DF8020018208DF803006946E2
:10060000074800F0FFFA4FF48060ADF800000420C6
:100610008DF803006946024800F0F4FA08BD0000B6
:100620000008014010B540F22551064802F0E2F9F9
:1006300038B1044802F09AFA04462146014802F013
:100640009AFA10BD0038014010B50446204600F06B
:1006500015F8FFF7C5FF00F001F810BD08B525201B
:100660008DF8000003208DF801008DF802000120B4
:100670008DF80300684600F0A5FB08BD1FB50446D1
:100680000121880300F0F2FB00940020ADF8040083
:10069000ADF80600ADF80800ADF80C000C20ADF880
:1006A0000A006946064802F0F5F9012240F2255198
:1006B000034802F0C9F90121014802F08FF91FBD7A
:1006C0000038014000BFFEE770B500254FF48034CC
:1006D00004E0802000F0E0FC00B103E0201EA4F163
:1006E0000104F6D100BF0CB9032070BD40F2FF50E9
:1006F00000F08CFC2846F8E770B5044605E0154884
:10070000456B05F0450000B100E0F8E700BF0420AC
:1007100000F0C2FC20B1042000F078FC032070BD82
:10072000012000F0B9FC20B1012000F06FFC012095
:10073000F5E708480069A04201D01020EFE740F239
:10074000FF50044988630846406908210840C0B248
:10075000E5E700000080014070B500264FF48035C9
:1007600005E01148446B04F0450000B103E0281E89
:10077000A5F10105F5D100BF15B104F0040028B1C1
:100780000326042000F042FC304670BD012000F03A
:1007900083FC18B10126012000F038FC40F2FF5024
:1007A00000F034FC3046F0E70080014010B505E071
:1007B0000B48446B04F0450000B100E0F8E700BFCF
:1007C000042000F069FC20B1042000F01FFC03208D
:1007D00010BD40F2FF5000F019FC0020F8E70000C7
:1007E000008001402DE9F04105460E464FF000081B
:1007F00005E01F48476B07F0450000B100E0F8E74F
:1008000000BF042000F048FC28B1042000F0FEFBEB
:100810000320BDE8F081012000F03EFC20B1012062
:1008200000F0F4FB0120F4E711480069A84201D070
:100830001020EEE740F2FF5000F0E8FB0C4844695E
:1008400004F4604018B9200C30804046E1E704F41D
:10085000005008B11320DCE704F4804008B11020F8
:10086000D7E704F4004008B10F20D2E74046D0E7B4
:100870000080014070B500264FF4803505E00F4838
:10088000446B04F0450000B103E0281EA5F101050A
:10089000F5D100BF15B104F0040028B103260420EF
:1008A00000F0B4FB304670BD04F0400018B10026E3
:1008B000402000F0ABFB3046F5E70000008001402F
:1008C00021B1026842F00102026004E002684FF6C2
:1008D000FE731A400260704701684FF6FE721140C5
:1008E00001600021016041608160C1604B49884224
:1008F00008D14A490839496841F00F01474A083A86
:1009000051608AE045491431884208D14349083989
:10091000496841F0F001414A083A51607DE03F49A1
:100920002831884208D13D490839496841F470614D
:100930003A4A083A516070E038493C31884208D15F
:1009400036490839496841F47041344A083A5160DF
:1009500063E032495031884208D13049083949684A
:1009600041F470212D4A083A516056E02B49643118
:10097000884208D129490839496841F47001274A59
:10098000083A516049E025497831884208D1234925
:100990000839496841F07061204A083A51603CE0EA
:1009A0001F49884206D1011F096841F00F01021F4B
:1009B000116032E01A491431884208D11849091FE0
:1009C000096841F0F001164A121F116025E0144930
:1009D0002831884208D11249091F096841F4706121
:1009E0000F4A121F116018E00D493C31884208D1AE
:1009F0000B49091F096841F47041094A121F11602F
:100A00000BE007495031884207D10549091F0968A1
:100A100041F47021024A121F116070470800024021
:100A20000804024010B50022026847F6F0739A43AA
:100A30000C6A8B6823430C6923434C6923438C69FC
:100A40002343CC6923434C6A23438C6A23431A43D0
:100A50000260CB6843600B6883604B68C36010BD65
:100A6000704700BF011EA0F10100FBD170470000DC
:100A70002DE9FC4107460D46002600240020009089
:100A8000019008205B490860102048604020886081
:100A90000020C8604FF480600861084600F032FB17
:100AA0001020FFF729FE044614B12046BDE8FC8162
:100AB0005148008800044F490860372048604020B2
:100AC00088600020C8604FF480600861084600F02C
:100AD00019FB3720FFF710FE04460CB12046E5E76E
:100AE0004FF0FF304549086008204860302088609A
:100AF0000220C8600020086101204861084600F01B
:100B0000A1FA00203B4908603320486040208860FB
:100B10000020C8604FF480600861084600F0F2FAD7
:100B20003320FFF7E9FD04460CB12046BEE70CE098
:100B30004FF4001000F0B0FA38B100F0DDFA4DF8D3
:100B40002600761C022E00D306E02D48406B40F2B2
:100B50002A6108400028EBD000BF082000F09CFA72
:100B600020B1082000F052FA04209FE7022000F094
:100B700093FA20B1022000F049FA022096E72020E3
:100B800000F08AFA20B1202000F040FA06208DE71C
:100B90004FF4007000F080FA28B14FF4007000F0BC
:100BA00035FA072082E740F2FF5000F02FFA009854
:100BB0000006009901F47F4140EA0120009901F408
:100BC0007F0140EA1120009940EA116068600198B5
:100BD0000006019901F47F4140EA0120019901F4E6
:100BE0007F0140EA1120019940EA11602860204607
:100BF0005CE7000088000020080000209C00002026
:100C0000008001402DE9F041024600250026002029
:100C100000230024002791F803C00CF00F0591F881
:100C200003C00CF0100CBCF1000F03D091F802C00F
:100C30004CEA050591F800C0BCF1000F31D01468F2
:100C400000202BE04FF0010C0CFA00F3B1F800C0CB
:100C50000CEA03069E4220D183004FF00F0C0CFAE1
:100C600003F7BC4305FA03FC4CEA040491F803C003
:100C7000BCF1280F06D14FF0010C0CFA00FCC2F8B1
:100C800014C00AE091F803C0BCF1480F05D14FF041
:100C9000010C0CFA00FCC2F810C0401C0828D1D38B
:100CA0001460B1F800C0BCF1FF0F34DD54680020BF
:100CB0002EE000F1080C4FF0010808FA0CF3B1F82F
:100CC00000C00CEA03069E4221D183004FF00F0CB6
:100CD0000CFA03F7BC4305FA03FC4CEA040491F850
:100CE00003C0BCF1280F05D100F1080C08FA0CF87C
:100CF000C2F8148091F803C0BCF1480F07D100F18D
:100D0000080C4FF0010808FA0CF8C2F81080401CDB
:100D10000828CED35460BDE8F08100BFFEE7000094
:100D20001CB5044600200190009021480088000472
:100D3000204908600D204860402088600020C8607D
:100D40004FF480600861084600F0DCF91A48406BF7
:100D5000009002E01848406B0090009800F04500B9
:100D60000028F7D0012000F097F920B1012000F011
:100D70004DF901201CBD042000F08EF920B10420A3
:100D800000F044F90320F5E70B4800690D2801D075
:100D90001020EFE740F2FF5000F038F906484069B4
:100DA00001900198C0F3432020700020E2E700008A
:100DB00008000020880000200080014000BFFEE7FE
:100DC0007047000070B5002100230F22C47804B3DF
:100DD000154C246804F4E064C4F5E064210AC1F110
:100DE0000403CA40447804FA03F184781440214390
:100DF00009010E4C0678A155047804F01F05012462
:100E0000AC4005786D11AD0005F1E025C5F8004155
:100E100009E0047804F01F050124AC40044D067875
:100E2000761145F8264070BD0CED00E000E400E0CE
:100E300080E100E002490143024A1160704700006E
:100E40000000FA050CED00E07047000029B1064AE9
:100E500052690243044B5A6104E0034A52698243D7
:100E6000014B5A61704700000010024029B1064A48
:100E700092690243044B9A6104E0034A92698243F7
:100E8000014B9A61704700000010024030B500210C
:100E90000022002400232D4D6D6805F00C0121B1C6
:100EA000042905D0082923D105E0294D056022E059
:100EB000274D05601FE0254D6D6805F47012234D28
:100EC0006D6805F48034022505EB92421CB9214D72
:100ED000554305600BE01D4D6D6805F400351DB1EF
:100EE0001C4D5543056002E0194D5543056002E075
:100EF000174D056000BF00BF144D6D6805F0F0018F
:100F00000909154D6B5C0568DD4045600F4D6D6846
:100F100005F4E061090A104D6B5C4568DD408560B1
:100F20000A4D6D6805F46051C90A0B4D6B5C45684C
:100F3000DD40C560054D6D6805F44041890B074DE6
:100F40006B5CC568B5FBF3F5056130BD0010024070
:100F500000127A0000093D00140000202400002047
:100F60007CB50546002400200090019000260DB1BC
:100F7000022600E000262248406900F0007008B117
:100F80000E207CBD1F49098888B26946FFF770FDB5
:100F900004460CB12046F4E7019800F4802060B3C9
:100FA000184800880004184908603720486040202D
:100FB00088600020C8604FF480600861084600F037
:100FC000A1F83720FFF798FB04460CB12046D8E77C
:100FD0000D48066006200C494860402088600020CB
:100FE000C8604FF480600861084600F08BF8062066
:100FF000FFF782FB04462046C3E72520C1E7000037
:10100000008001400800002088000020014988631A
:1010100070470000008001400149086070470000EF
:10102000A00030420146034A506820F0FF00084308
:10103000506070470080014001490860704700001F
:101040008C05304200210A4B02685A6242689A625B
:101050001A46D16A21F0F701D0E902231A43036945
:101060001A4343691A431143014AD1627047000091
:101070000080014000200649086048608860C86020
:1010800048628862C862034888630020C86370476A
:1010900000800140FF07C00001460020034A526B58
:1010A0000A400AB1012000E00020704700800140A2
:1010B0000248006800F00300704700000080014013
:1010C00010B500F053FC10BD00210A4A516847F6E4
:1010D000FF629143027D83681A4343681A43C368E1
:1010E0001A4303681A4303691A431143014A5160C2
:1010F0007047000000800140014800687047000010
:10110000808001400021094B02689A601A46D1682C
:101110006FF30A01D0E901231A43C3681A43036934
:101120001A431143014AD16070470000008001401A
:101130000549096821F00301034A11601146096855
:1011400001431160704700000080014001490860C0
:10115000704700008080014070B58CB006460C4698
:10116000154601210220FFF771FE1348FFF7B4FB7B
:1011700000211148FFF7A4FB104801900296039547
:10118000A008049000200590802006908000079021
:1011900080000890002009904FF400500A90002031
:1011A0000B9001A90448FFF73DFC00210248FFF71E
:1011B00087FB0CB070BD00004404024080800140F9
:1011C00070B50446002516480078032801D1272071
:1011D00070BD1348007838B111480078012803D059
:1011E0000F480078022818D1022C01D32720EFE7FE
:1011F000E0B2FFF7B5FE05467DB90A48406820F425
:10120000C0500849486008464068A1B240EAC12081
:10121000044948600846406848602846D8E700000E
:101220000400002000800140F0B5014600200022AB
:10123000BE4B1B7881F85630BD4B1B88A1F854304B
:10124000BC4B1B681A0E93090B70C2F383034B70DF
:1012500002F003038B70B74B1B68C3F30742CA70DD
:10126000B44B1B88C3F307220A71B24B1A784A7138
:101270005B681A0E1301CB80AE4B5B68C3F3074269
:10128000CB8843EA1213CB8002F00F030B72A94BF9
:101290009B88C3F30722D3094B72C2F380138B726E
:1012A000C2F34013CB72C2F300130B7300234B73D2
:1012B0009E4B1B783BB19D4B1B78012B03D09B4B66
:1012C0001B78032B4FD193071B0D0B61994B1A7998
:1012D0000B6943EA82030B61964B9B681A0E0B69FC
:1012E00043EA92130B61C2F3C2030B7502F00703CA
:1012F0004B75904B9B68C3F3074253098B75C2F340
:101300008203CB7593075B0F0B768A4B1B89C3F364
:1013100007220B7E43EAD2130B760B695B1C002479
:10132000C1E912340B7E9B1C012404FA03F3DC1781
:10133000D1E91256A5FB037C06FB03C305FB04336E
:10134000C1E912730C7A0123A3400B650024D1E993
:1013500012650B6DA6FB037C05FB03C306FB043380
:10136000C1E912732EE0714B1B78022B2AD1714B0D
:101370001A7993069B0A0B616E4B9B681A0E0B69D8
:1013800043EA02230B616B4B9B68C3F307420B6973
:1013900013430B61674B1B89C3F307220B695B1C6B
:1013A0004FF40074A3FB04464FF480630025A4FBB4
:1013B000037C06FB03C304FB0533C1E912734FF43E
:1013C00000730B65C2F3801301F8193F93065B0E9F
:1013D0004B70584B1A7A4B7843EAD2134B7002F099
:1013E0007F038B70534BDB681A0ED309CB70C2F3AB
:1013F00041130B71C2F382034B7193071B0F8B7167
:101400004C4BDB68C3F307428B7943EA92138B7131
:10141000C2F34013CB7100230B7202F001034B7235
:10142000444B9B89C3F30722D3098B72C2F3801309
:10143000CB72C2F340130B73C2F300134B73C2F3AE
:1014400081038B7302F00303CB733A4B1A7B53086F
:101450000B7401234B74384B1B681A0ECA7419396C
:10146000354B1B68C3F307421402CC85324B1B88F3
:10147000C3F30722CB8D1343CB852F4B1A78140669
:101480000C635B681A0E0B6B43EA02440C632A4B35
:101490005B68C3F307420B6B43EA02240C63264BE1
:1014A0009B88C3F307220B6B13430B63224B1A7900
:1014B00034235A54204B9B681A0E35235A541E4B22
:1014C0009B68C3F3074214068C631B4B1B89C3F351
:1014D00007228B6B43EA02448C63174B1A7A8B6B9F
:1014E00043EA02248C63144BDB681A0E8B6B1343A4
:1014F0008B63114BDB68C3F307423C235B5C43EA1D
:1015000012143C235C5413071C0DCC870A4B9B8997
:10151000C3F30722CB8F1343CB87074B1A7B5408A7
:1015200040235C54012441235C54F0BD040000209E
:1015300008000020B4000020C40000207CB5002575
:10154000002401213020FFF791FC012140F20240EC
:10155000FFF77CFC4FF4F850ADF8000018208DF830
:10156000030003208DF8020069463048FFF74AFB6C
:101570000420ADF8000018208DF8030003208DF83A
:10158000020069462A48FFF73DFB8020ADF80000C5
:1015900048208DF8030003208DF802006946244896
:1015A000FFF730FBFFF766FD31208DF804000020C7
:1015B0008DF805008DF8060001208DF8070001A8C0
:1015C000FFF700FC00F0E4F8044614B900F036F828
:1015D00004461CB91748FFF727FE044634B91549DD
:1015E000B1F85410080400F047FD04461CB901206E
:1015F000FFF7E6FD04461CB10F480078032812D11E
:101600000C4890F8560020B10A4890F8560001287E
:1016100001D10A2500E004252846FFF703FD00203C
:1016200000F042FD044620467CBD00000010014051
:1016300000140140D80000200400002038B5002428
:1016400001200090FFF734FD08B9252038BD4A4835
:101650000078042821D00020484908600220486012
:10166000C02088600020C8604FF480600861084690
:10167000FFF748FDFFF770F804460CB12046E5E798
:101680003F4840693F4908603D48806948603C48A0
:10169000C06988603A48006AC8603748007858B125
:1016A00035480078012807D033480078062803D051
:1016B00031480078022816D1002030490860032004
:1016C0004860402088600020C8604FF48060086156
:1016D0000846FFF717FD69460320FFF783F8044625
:1016E0000CB12046B2E724480078032816D1BDF893
:1016F0000000000421490860032048604020886001
:101700000020C8604FF4806008610846FFF7FAFCCB
:10171000FFF722F804460CB1204697E716480078F8
:10172000042827D0BDF8000017490860BDF8000064
:1017300000041249086009204860C0208860002029
:10174000C8604FF4806008610846FFF7DBFCFFF7D4
:1017500003F804460CB1204678E7094840690B4974
:1017600008600748806948600548C0698860044887
:10177000006AC860002069E704000020880000209B
:1017800000800140C400002008000020B4000020B8
:101790002DE9F0470027002400260025A046A14699
:1017A000B2206C4908750020086048608860C860F5
:1017B00008610846FFF788FC0320FFF7B9FC012009
:1017C000FFF72AFC00BF12E0002063490860486070
:1017D0008860C8604FF4806008610846FFF792FC9B
:1017E000FEF772FF044604B903E0781CC7B24A2F23
:1017F000EADB00BF14B12046BDE8F0874FF4D57096
:101800005549086008204860402088600020C86072
:101810004FF4806008610846FFF774FCFFF72AF870
:10182000044624B901204D4908704FF0804900203A
:101830004949086037204860402088600020C8601F
:101840004FF4806008610846FFF75CFC3720FEF724
:1018500053FF0446002C4BD134E000203E49086081
:1018600037204860402088600020C8604FF48060C6
:1018700008610846FFF746FC3720FEF73DFF0446A7
:101880000CB12046B8E7364849EA00003249086002
:1018900029204860402088600020C8604FF48060A4
:1018A00008610846FFF72EFCFEF780FF04460CB1E6
:1018B0002046A1E72B484669012080EAD67080F0D7
:1018C00001086D1CB8F1000F03D14FF6FF7085427F
:1018D000C3D34FF6FF70854202D31B2420468BE70B
:1018E00006F08040061E32D002201C4908702EE00F
:1018F0001CE01D48184908600120486040208860AD
:101900000020C8604FF4806008610846FFF7FAFBCA
:10191000FEF74CFF04460CB120466DE711484669BE
:10192000012080EAD67080F001086D1CB8F1000F2C
:1019300003D14FF6FF708542DBD34FF6FF7085422F
:1019400002D31B24204657E7032004490870204691
:1019500052E70000700000208800002004000020F2
:1019600000001080008001400080FF8010B54948D1
:10197000406B00F4807070B347480078012814D1A0
:101980000020464908600C20486040208860002004
:10199000C8604FF4806008610846FFF7B3FB0C2075
:1019A000FEF7AAFE3E49087002E000203C4908709C
:1019B0003848806B40F48070364988630846C06BB5
:1019C0004CF23A3188433349C863012035490870E5
:1019D0003348007810BDFFE70220FFF75DFB68B1D8
:1019E0000220FFF713FB2B48C06B4CF23A318843BF
:1019F0002849C86302202A490870EBE70820FFF74E
:101A00004BFB68B10820FFF701FB2248C06B4CF28A
:101A10003A3188431F49C863042021490870D9E737
:101A20002020FFF739FB68B12020FFF7EFFA1948B3
:101A3000C06B4CF23A3188431649C86306201849F6
:101A40000870C7E71020FFF727FB68B11020FFF7E9
:101A5000DDFA1048C06B4CF23A3188430D49C86337
:101A600005200F490870B5E74FF40070FFF714FB2D
:101A700070B14FF40070FFF7C9FA0648C06B4CF222
:101A80003A3188430349C863072005490870A1E734
:101A900000209FE7008001400D000020880000200A
:101AA0000E0000200F0000202DE9F84F8146174658
:101AB00098460A9C4FF0000AD3464D464FF0FF3639
:101AC000B9F1000F02D12620BDE8F88F002081492E
:101AD000C86281480078022805D10402780A40EAE9
:101AE000C8574FEA682800207C4988604860401E3B
:101AF0000860012048610020C86008610846FFF7BF
:101B0000A1FA7448406900F0007008B10E20DBE7CC
:101B1000002C21DDB4F5006F1EDC601E2040D8B91A
:101B2000204601F079F800906D48046010206C495F
:101B30004860402088600020C8604FF480600861E1
:101B40000846FFF7DFFA1020FEF7D6FD8246BAF10D
:101B5000000F03D05046B7E72620B5E700980001F4
:101B60005E498860084644604FF0FF3008600120FD
:101B700048610220C860002008610846FFF762FA49
:101B8000574807601120564948604020886000206F
:101B9000C8604FF4806008610846FFF7B3FA11206F
:101BA000FEF7AAFD8246BAF1000F01D050468BE73E
:101BB0004C480078002858D172B618E04FF4004025
:101BC000FFF76AFA78B14FF0000B06E04148803029
:101BD000006845F82B000BF1010BBBF1080FF5D3A2
:101BE0002035414E03E00EB904206DE7761E3948DA
:101BF000406B40F22A6108400028DFD00820FFF740
:101C00004BFA20B10820FFF701FA04205CE702201C
:101C1000FFF742FA20B10220FFF7F8F9022053E75C
:101C20002020FFF739FA20B12020FFF7EFF9062036
:101C30004AE74FF40070FFF72FFA28B14FF4007015
:101C4000FFF7E4F907203FE703E0FFF755FA2860C4
:101C50002D1D4FF40010FFF71FFA0028F5D162B6D2
:101C600040F2FF50FFF7D2F931E01E48007801281A
:101C70002DD1002221464846FFF76EFA00201B496D
:101C800008701B4908701B4908701248C06B40F26D
:101C90002A3108430F49C8630120FFF7CDF900E05E
:101CA000761E1548006800F4005038B911480078D5
:101CB00020B90E48007808B9002EF1D10EB90420E1
:101CC00002E70A48007810B1084890F800A0504692
:101CD000FAE6000000800140040000209C00002083
:101CE000880000200C000020FFFF7F000E00002075
:101CF0000D0000200F000020000402402DE9FE4FDF
:101D000083460C46914600200290002625462C462C
:101D1000700240EAD5566D020BF00300F0B14FF0AF
:101D2000000A18E04FF4007000904FEA4A2047196B
:101D300046EBE0733A461648FFF7B6FE02904FF4C2
:101D4000007213495846FEF7E3FA0BF5007B0AF1DF
:101D5000010000F0FF0ACA45E4DB16E0B9F1010F0B
:101D600009D14FF400702A46334600905846FFF7D9
:101D70009BFE029009E04FF400702A463346CDE9FD
:101D80000009584600F006F802900298BDE8FE8F60
:101D9000300100202DE9FF5F17469846DDE90E4629
:101DA0004FF00009CA464FF0FF35A8490098086077
:101DB0000020A749C862A7480078022805D104027C
:101DC000780A40EAC8574FEA68280020A24988608C
:101DD0004860401E0860012048610020C86008611A
:101DE0000846FFF72FF99A48406900F0007018B1D3
:101DF0000E2004B0BDE8F09F002C21DDB4F5006F8B
:101E00001EDC601E2040D8B9204600F005FF834646
:101E1000924804601020914948604020886000206A
:101E2000C8604FF4806008610846FFF76BF9102026
:101E3000FEF762FC8146B9F1000F03D04846D8E7AF
:101E40002620D6E7012E6FD906FB04F0B0F1007F03
:101E500001D32620CDE74FEA0B107F49886006FBAF
:101E600004F048604FF0FF30086001204861022014
:101E7000C860002008610846FFF7E4F8774807606B
:101E8000122076494860402088600020C8604FF4E6
:101E9000806008610846FFF735F91220FEF72CFC38
:101EA0008146B9F1000F01D04846A2E76C4800789E
:101EB00000287DD172B61EE04FF40040FFF7ECF829
:101EC000A8B14FF0000A08E06148803000685F491F
:101ED000096841F82A000AF1010ABAF1080FF3D3A0
:101EE0005A4800682030594908605E4D03E00DB93A
:101EF00004207EE76D1E5648406B40F22A310840B0
:101F00000028D9D00820FFF7C7F820B10820FFF734
:101F10007DF804206DE70220FFF7BEF828B102200B
:101F2000FFF774F8022064E78DE02020FFF7B4F893
:101F300020B12020FFF76AF806205AE74FF400701E
:101F4000FFF7AAF828B14FF40070FFF75FF80720F9
:101F50004FE709E0FFF7D0F83C49096808603B48C3
:101F60000068001D394908604FF40010FFF794F82D
:101F70000028EFD14FF48070FFF78EF820B335487A
:101F8000007838B133480078012803D03148007810
:101F9000022819D10020314908600C2048604020F7
:101FA00088600020C8604FF480600861084600E047
:101FB00010E0FFF7A7F80C20FEF79EFB8146B9F171
:101FC000000F01D0484614E762B640F2FF50FFF719
:101FD0001DF838E022480078012834D106FB04F1CE
:101FE00000220098FFF7B8F800201F490870012070
:101FF0001E49087000201E4908701548C06B40F249
:102000002A3108431249C8630846C06A40F00800F4
:10201000C86200E06D1E1748006800F4005008B95F
:10202000002DF7D10DB90420E3E600BF1048007879
:1020300018B90D4800780028F8D00B48007810B186
:10204000094890F800904846D3E6000010000020B0
:1020500000800140040000209C0000208800002037
:102060000C000020FFFF7F000E0000200D0000206C
:102070000F0000200004024010B504460948046027
:10208000072008494860402088600020C8604FF45D
:10209000806008610846FFF735F80720FEF72CFB43
:1020A00010BD00008800002001460020012900D05A
:1020B00011B9024B197000E0262070470C00002077
:1020C0002DE9FF5F86B017469846149D0026002034
:1020D0000590049000248146039082460290019569
:1020E000DDF818B0DDF818B0BBF1000F03D12620E1
:1020F0000AB0BDE8F09F0020C349C862C3498860A8
:102100004860401E0860012048610020C8600861E6
:102110000846FEF797FFBC48406900F0007008B120
:102120000E20E5E7BA480078022805D10502780AB2
:1021300040EAC8574FEA6828002D1FDDB5F5006F4B
:102140001CDC681E2840C8B9284600F065FD0590D3
:10215000B04805601020AF494860402088600020EA
:10216000C8604FF4806008610846FEF7CBFF10207E
:10217000FEF7C2FA06461EB13046B9E72620B7E799
:10218000A54800880004A34908600D20486040204D
:1021900088600020C8604FF4806008610846FEF740
:1021A000B1FF0D20FEF7A8FA06460EB130469FE7B4
:1021B0009548406903904FF0FF341BE0641E964839
:1021C00000880004934908600D2048604020886022
:1021D0000020C8604FF4806008610846FEF792FF57
:1021E0000D20FEF789FA06460EB1304680E7864894
:1021F00040690390039800F4807008B9002CDDD189
:102200000CB9292074E78348076018208149486089
:10221000402088600020C8604FF480600861084654
:10222000FEF770FF1820FEF767FA06460EB130463B
:102230005EE70020794908700598000173498860BD
:10224000084645604FF0FF300860012048610020DB
:10225000C86008610846FEF7F5FE4FF0FF3470488D
:102260000078002879D172B643E04FF48040FEF741
:1022700013FFC8B30198A0EB0900202821D20198D0
:10228000A0EB090000F0030020B90198A0EB0900C1
:10229000800804E00198A0EB09008008401C02902F
:1022A0004FF0000A09E0DBF80000FEF74FFF0AF1EB
:1022B000010A0BF1040B09F1040902988245F2D3DB
:1022C0000FE04FF0000A05E05BF82A00FEF73EFF42
:1022D0000AF1010ABAF1080FF6D30BF1200B09F14C
:1022E00020096FF0404404E0FFE70CB90420FFE64A
:1022F000641E4548406B40F21A6108400028B4D083
:102300000820FEF7C9FE20B10820FEF77FFE04205A
:10231000EEE60220FEF7C0FE20B10220FEF776FEB8
:102320000220E5E61020FEF7B7FE20B11020FEF7F0
:102330006DFE0520DCE64FF40070FEF7ADFE30B117
:102340004FF40070FEF762FE0720D1E605E062B6AA
:1023500040F2FF502C4988633EE031480078012864
:102360003AD1102229460698FEF7F6FE00202D49A4
:1023700008702A4908702C4908702348C06B40F245
:102380001A3108432049C8630846C06A40F0080073
:10239000C86200E0641E2548006800F4005008B9D7
:1023A000002CF7D11CB9FFF7C9F80420A0E64FF0C4
:1023B000FF3400E0641E1C48007820B919480078FA
:1023C00008B9002CF6D10CB9042091E61548007824
:1023D00010B1144800788BE640F2FF50FEF716FE6D
:1023E00004A8FEF79DFC064603E004A8FEF798FC4F
:1023F00006463EB99DF810000728F6D09DF810005B
:102400000628F2D0304673E6008001409C00002090
:102410000400002088000020080000200D0000209B
:102420000C0000200E0000200F00002000040240DD
:102430002DE9FE4F81460C46924600200290002670
:1024400025462C46700240EAD5566D0209F003007D
:10245000F0B14FF0000B18E04FF4007249461948F4
:10246000FDF756FF4FF4007000904FEA4B204719DC
:1024700046EBE0733A461348FFF722FE029009F557
:1024800000790BF1010000F0FF0BD345E4DB16E00F
:10249000BAF1010F09D14FF400702A46334600907B
:1024A0004846FFF70DFE029009E04FF400702A46FF
:1024B0003346CDE9000A484600F006F8029002983B
:1024C000BDE8FE8F300100202DE9FF5F84B0DDE91B
:1024D0001247002600200390029000258046814686
:1024E000019007FB04FBDDF810A0DDF810A0BAF1A5
:1024F000000F03D1262008B0BDE8F09F0020D74987
:10250000C862D74988604860401E08600120486161
:102510000020C86008610846FEF794FDCF48406976
:1025200000F0007008B10E20E5E7CE4800780228E0
:1025300008D10402DDE90601400A40EAC15049120F
:10254000CDE90601002C1FDDB4F5006F1CDC601E18
:102550002040C8B9204600F05FFB0390C2480460E9
:102560001020C1494860402088600020C8604FF4B6
:10257000806008610846FEF7C5FD1020FEF7BCF834
:1025800006461EB13046B6E72620B4E7012F6ED9C5
:1025900007FB04F0B0F1007F01D32620ABE7B14880
:1025A000007838B1AF480078012803D0AD480078F2
:1025B00002282DD1AD4800880004AB4908603720BF
:1025C0004860402088600020C8604FF48060086147
:1025D0000846FEF797FD3720FEF78EF806460EB147
:1025E000304688E7A048076017209F494860402090
:1025F00088600020C8604FF4806008610846FEF7DC
:1026000081FD1720FEF778F806460EB1304672E7D6
:10261000954906980860192048604020886000208D
:10262000C8604FF4806008610846FEF76BFD192012
:10263000FEF762F806460EB130465CE703980001EB
:102640008749886007FB04F048604FF0FF3008605E
:10265000012048610020C86008610846FEF7F2FCCE
:1026600083480078002870D1451E72B640E0DDE056
:102670007A48406B00F48040A8B3ABEB08002028F8
:102680001ED2ABEB080000F0030018B9ABEB08005A
:10269000800803E0ABEB08008008401C01904FF07D
:1026A000000909E0DAF80000FEF750FD09F1010920
:1026B0000AF1040A08F1040801988145F2D30FE0F9
:1026C0004FF0000905E05AF82900FEF73FFD09F137
:1026D0000109B9F1080FF6D30AF1200A08F1200820
:1026E0006FF0404504E0FFE70DB9042003E76D1EDD
:1026F0005A48406B40F21A3108400028B8D00820F0
:10270000FEF7CAFC20B10820FEF780FC0420F2E6A8
:102710000220FEF7C1FC20B10220FEF777FC022068
:10272000E9E61020FEF7B8FC20B11020FEF76EFCA1
:102730000520E0E64FF40070FEF7AEFC30B14FF438
:102740000070FEF763FC0720D5E62BE04FF48070A5
:10275000FEF7A2FC00B34348007838B14148007846
:10276000012803D03F480078022815D100203E49B7
:1027700008600C204860402088600020C8604FF44A
:10278000806008610846FEF7BDFC0C20FDF7B4FF31
:1027900006460EB13046AEE662B640F2FF50FEF796
:1027A00035FC43E03248007801283FD107FB04F1B3
:1027B00010220498FEF7D0FC00202E49087001205A
:1027C0002D49087000202D4908702448C06B40F244
:1027D0001A3108432149C8630846C06A40F008001E
:1027E000C8624FF0FF3500E06D1E2548006800F418
:1027F000005008B9002DF7D11DB9FEF79FFE042047
:1028000079E64FF0FF3500E06D1E1C48007820B9D6
:102810001848007808B9002DF6D10DB904206AE6F1
:102820001448007810B11348007864E640F2FF5075
:10283000FEF7ECFB02A8FEF773FA064603E002A8D7
:10284000FEF76EFA06463EB99DF808000728F6D056
:102850009DF808000628F2D030464CE60080014082
:102860009C000020040000208800002008000020B8
:102870000C0000200E0000200D0000200F000020A2
:1028800000040240704710B500F002F810BD0000CF
:102890000CB50020019000903348006840F480306F
:1028A0003149086000BF3048006800F400300090F3
:1028B0000198401C0190009818B90198B0F5A06FDC
:1028C000F1D12948006800F4003010B101200090D7
:1028D00001E0002000900098012843D123480068BF
:1028E00040F01000214908600846006820F003000D
:1028F00008600846006840F0020008601A48406816
:10290000194948600846406848600846406840F4F5
:10291000806048600846406820F47C1048600846A3
:10292000406840F4E81048600846006840F0807055
:10293000086000BF0C48006800F000700028F9D063
:102940000948406820F0030007494860084640688D
:1029500040F00200486000BF0348406800F00C00EF
:102960000828F9D10CBD00000010024000200240F0
:102970007047000010B51348006840F0010011498D
:10298000086008464068104908400E4948600846FB
:1029900000680E4908400B4908600846006820F4AA
:1029A000802008600846406820F4FE0048604FF42C
:1029B0001F008860FFF767FF4FF000600449086060
:1029C00010BD0000001002400000FFF8FFFFF6FEFF
:1029D00008ED00E010B5FDF725FE10BD21B182899C
:1029E00042F40052828104E082894DF6FF731A405E
:1029F0008281704770B50246002400230025002024
:102A000040F66A16B14200D100BFC1F3421501F091
:102A10001F03012606FA03F3012D02D196893340E4
:102A200006E0022D02D1168A334001E0968A334037
:102A30000C12012606FA04F41688344013B10CB1C6
:102A4000012000E0002070BDF0B503460024002600
:102A50000025002040F66A17B94200D100BF184691
:102A6000C1F3421401F01F06012707FA06F5012CF5
:102A700001D10C3004E0022C01D1103000E0143000
:102A80001AB107682F43076002E00768AF43076089
:102A9000F0BD00002DE9F04786B005460E46002443
:102AA000A24600BFA1460027B08900B100BF2F4653
:102AB0002C8A4CF6FF700440F08804432C82AC89C9
:102AC0004EF6F3100440B0883189084371890843F9
:102AD0000443AC81AC8A4FF6FF400440B089044304
:102AE000AC8201A8FEF7D2F91F48874202D1DDF877
:102AF00010A001E0DDF80CA0A88900F4004040B16E
:102B00000AEBCA0000EB0A1031684900B0FBF1F88B
:102B100007E00AEBCA0000EB0A1031688900B0FB3D
:102B2000F1F86420B8FBF0F004012009642101FBF6
:102B30001089A88900F4004040B1322000EBC900A0
:102B4000B0FBF1F000F00700044308E0322000EB96
:102B500009106421B0FBF1F000F00F0004432C8158
:102B600006B0BDE8F08700000038014001468888C3
:102B7000C0F308007047C1F308028280704700BFAD
:102B8000FEE700BF7047000070B504460D46002008
:102B90002071401EE0622946204600F0F9FC08B191
:102BA000032070BD94F82E1294F82F0241EA002001
:102BB0004AF65521884201D00220F2E794F86900D4
:102BC000010694F8680041EA004194F8670041EA80
:102BD000002094F86610084320F07F400D49884299
:102BE00001D10020DDE794F88500010694F8840007
:102BF00041EA004194F8830041EA002094F88210F1
:102C0000084320F07F400349884201D10020C8E7F3
:102C10000120C6E7464154000146002002E0491069
:102C2000421CD0B20129FAD17047000070B50446A9
:102C3000002514B1012C09D103E0FEF77FFC054605
:102C400006E04FF4C0400549088001E0012500BFBF
:102C500000BF0DB1012070BD0020FCE74400002042
:102C60002DE9F04107460D4616461C464FF0000878
:102C700014B90420BDE8F08117B1012F1CD112E076
:102C8000E2B231462846FFF739F8804607E0FEF702
:102C900055FCE2B231462846FFF730F88046B8F1DD
:102CA000000FF4D10BE003E0761C05F50075641EFF
:102CB000002CF9D1A04602E04FF0010800BF00BF90
:102CC000B8F1000F01D10020D4E70120D2E701467E
:102CD000002070472DE9F04107460D4616461C4678
:102CE0004FF0000814B90420BDE8F08117B1012F9E
:102CF0001CD112E0E2B231462846FFF799FB80462C
:102D000007E0FEF71BFCE2B231462846FFF790FBD6
:102D10008046B8F1000FF4D10BE003E0761C05F516
:102D20000075641E002CF9D1A04602E04FF00108A6
:102D300000BF00BFB8F1000F01D10020D4E701208F
:102D4000D2E72DE9FC4707460C46154600200090C7
:102D50008046814601AA6946384600F059F8064681
:102D60008EB901984069801E0199897800FB01F9AC
:102D700001988078009900FB01F84FEA5900206023
:102D80004FEA580028603046BDE8FC8710B50024A3
:102D90000EE04FF40C71002000F0AAFC184941F835
:102DA0002400084650F8240000B903E0601CC4B2B7
:102DB000022CEEDB00BF4FF40A71002000F098FCFB
:102DC000104908604FF40A71002000F091FC0E4990
:102DD00008604FF40071002000F08AFC0B49086085
:102DE000022C0AD10748006838B10748006820B1B2
:102DF0000846006808B1002010BD0120FCE7000073
:102E0000540000205C000020600000206C000020C6
:102E10002DE9F74F82B08A46002202A9049800F0FB
:102E2000A7F8019004980468019800286DD1D4E9AE
:102E30000410801E814203D82069CAF8000064E0B3
:102E400094F800B00026BBF1010F1CD1022700BF8F
:102E50003946204600F064FA804608F1010010B9B6
:102E6000012001900EE0B8F1010F02D10220019083
:102E700008E0B8F1000F00D1761C781C07466169A4
:102E80008842E5D33AE06769206A00904FF0000974
:102E9000002500BFB9F1000F0ED10098421C014679
:102EA0002046009200F074FB0190019800B124E0EC
:102EB00004F130054FF40079BBF1020F09D12878F5
:102EC000697840EA012000B9761CAD1CA9F102091D
:102ED00010E0E8780006A97840EA0140697840EA05
:102EE00001202978084320F0704000B9761C2D1D80
:102EF000A9F10409781E071ECCD100BF26616079B4
:102F000040F001006071CAF80060019805B0BDE8AA
:102F1000F08F0000F7B582B016460398019001A823
:102F200000F077FA0546002D02DA0B2005B0F0BD5F
:102F30000E4850F825400CB100202070029810B1C6
:102F40000020029908700949029841F8250002986A
:102F500008B1012E01D00020E8E7002203A902A851
:102F600000F006F807463846E0E700004800002079
:102F70002DE9F74F8AB000210A9801600B9800F004
:102F800048FA09900998002803DA0B200DB0BDE833
:102F9000F08FD849099851F820400CB90C20F5E77A
:102FA0000A980460207878B16078FFF790FE814637
:102FB00009F0010040B90C9820B109F0040008B1F3
:102FC0000A20E3E70020E1E7002020700998607004
:102FD0006078FFF72BFE814609F0010008B103205D
:102FE000D4E70C9820B109F0040008B10A20CDE71D
:102FF000002739462046FFF7C7FD0546012D01D0C1
:103000009DBB32E000261AE004F5F77000EB0618CD
:1030100098F8040070B198F80B00010698F80A00BF
:1030200041EA004198F8090041EA002098F80810A8
:10303000084300E0002002A941F82600761C042E77
:10304000E2D3002606B1761E00BF02A850F8267013
:1030500027B139462046FFF797FD00E002200546DC
:103060001DB1701C06460428EFD3032D01D10120A9
:103070008CE70DB10D2089E73B20015D94F83C0001
:1030800041EA0020B0F5007F01D00D207EE7462008
:10309000015D94F8470041EA002ABAF1000F0ED111
:1030A00094F85700010694F8560041EA004194F85C
:1030B000550041EA002094F8541040EA010AC4F88F
:1030C00018A04020005DE070E078012804D0E0788E
:1030D000022801D00D2059E7E0780AFB00FA3D20D4
:1030E000005DA070A07818B1A078411E084008B11A
:1030F0000D204BE74120015D94F8420041EA002099
:103100002081207A00F00F0008B10D203EE7432017
:10311000015D94F8440041EA00200890089870B9D5
:1031200094F85300010694F8520041EA004194F8E3
:10313000510041EA002094F85010084308903E20C6
:10314000015D94F83F0041EA00200190019808B920
:103150000D201BE701985044218900EB11100790C6
:10316000DDE90701814201D20D200FE7DDE90710FB
:10317000401AA178B0FBF1FBBBF1000F01D10D208B
:1031800004E7012540F6F670834500D302254FF68B
:10319000F670834500D303250BF102006061E761FF
:1031A00001983844206207983844A062032D16D154
:1031B000208908B10D20E9E694F85F00010694F833
:1031C0005E0041EA004194F85D0041EA002094F875
:1031D0005C100843606260698000069014E02089FA
:1031E00008B90D20D2E6206A50446062022D02D157
:1031F0006069400007E0207D00F00100616901EB9B
:10320000410100EB51000690A169069800F2FF1001
:10321000B1EB502F01D20D20B8E64FF0FF30206106
:10322000E06080206071032D5AD194F8601094F80A
:10323000610041EA0020012852D1791C204600F0AB
:10324000A7F9E8BB0020607194F82E1294F82F02C1
:1032500041EA00204AF65521884241D13320005DE1
:1032600001063220005D41EA00413120005D41EA63
:10327000002094F8301008431F49884230D194F858
:103280001702010694F8160241EA004194F815026B
:1032900041EA002094F814120843184988421FD1CB
:1032A00094F81B02010694F81A0241EA004194F8CE
:1032B000190241EA002094F818120843206100E046
:1032C0000EE094F81F02010694F81E0241EA004144
:1032D00094F81D0241EA002094F81C120843E060B3
:1032E000257007480088401C80B205490880E080AE
:1032F00000204BE648000020525261417272416149
:103300005000002000BF054A128802F04002002A47
:10331000F9D0C2B2014B1B1D1A8070470038014022
:103320002DE9F04705460C46022C02D36869A042FD
:1033300002D84FF0010969E04FF0FF3928780128E1
:1033400004D002282ED003285CD13FE0274607EBAB
:103350005707286A00EB5721284600F019F900B1F9
:1033600053E038467F1CC0F3080105F1300010F827
:103370000180286A00EB5721284600F009F900B1C6
:1033800043E0C7F3080105F13000405C48EA00283B
:1033900004F0010010B14FEA181001E0C8F30B006F
:1033A000814632E0286A00EB1421284600F0F0F84C
:1033B00000B12AE040F2FF1000EA440105F13000BC
:1033C0000E183078717840EA01291EE0286A00EB77
:1033D000D411284600F0DCF800B116E040F2FF10EE
:1033E00000EA840105F130000E18F0780006B1788B
:1033F00040EA0140717840EA01203178084320F02A
:10340000704902E04FF0010900BF00BF4846BDE827
:10341000F08770B502464FF0FF301568E5B11168CE
:1034200000E0491C0D78202D02D30D783A2DF8D1FB
:103430000D783A2D0FD1146814F8015BA5F1300313
:103440000A2B07D28C4205D1022B03D218464D1C01
:103450002946156070BD002000BFFBE71CB5FDF7D5
:10346000A5F84FF4A060FDF7E5FC4FF4E130FDF75F
:10347000EBF8002000F0A6F80EE020A0FCF7CCFE50
:103480002348FDF7EEFA23A0FCF7C6FE2048FDF71F
:10349000E8FA0120FDF798F8FEF750F80028ECD183
:1034A000FFF774FC1F49012208681FA1FFF732FDD6
:1034B00008E01EA0FCF7B0FE2248FDF7D2FA01207A
:1034C000FDF782F86A4601A91FA0FFF73AFC002821
:1034D000EFD11EA0FCF7A0FE0198810A1EA0FCF708
:1034E0009BFE0098810A23A0FCF796FE05E00120D0
:1034F000FDF76AF80648FDF7B4FAF8E753442043AD
:10350000617264204572726F7221200A000000000F
:10351000FFFF4F00506C6561736520436865636B06
:1035200021200A0054000020303A00005344204378
:10353000617264204661746673204572726F7221F5
:10354000200A0000FFFF0F003000000046415446F3
:1035500053204F4B21200A00534420546F74616C58
:103560002053697A653A256420202020204D42208E
:103570000A00000053442020467265652053697A92
:10358000653A256420202020204D42200A000000BA
:1035900070B504460D460026E06AA84210D02046C9
:1035A00000F0C4F806465EB9607801232A4604F1AB
:1035B0003001FFF755FB10B14FF0FF350126E562F2
:1035C000304670BD10B504460C4951F824104A002D
:1035D0000B4951F82400002100F09EF8094951F8E8
:1035E00024200749083951F82400002100F094F8FC
:1035F000012103480830015510BD00008037000844
:1036000038000020903700082DE9F04704460F46A7
:103610000025A9462348005D20B9224818380168D2
:10362000204688471FB94FF0FF30BDE8F0871E489D
:1036300050F82400B7FBF0F61B4850F82400B7FB05
:10364000F0F100FB117000B1761C184850F824000E
:10365000451E22E01348083850F8240030F81500C1
:1036600010B909F1010901E04FF00009B14513D18A
:103670004FF0000809E00B48083850F8240005EB2B
:10368000080220F8126008F10108B045F3D306489B
:1036900050F824006843C8E76D1E002DDADA4FF0B9
:1036A000FF30C2E74000002088370008803700085C
:1036B00010B501460023002207E00B4850F8210016
:1036C00030F8120000B15B1C521C084850F8210071
:1036D0009042F2D864205843044C54F82140B0FB87
:1036E000F4F0C0B210BD00003800002080370008A0
:1036F00070B504460E4631462046FFF785FF054665
:10370000681C08B9002070BD024850F82400284405
:10371000F9E700003000002030B5034601E003F86F
:10372000011B141EA2F10102F9D130BD2DE9F041B7
:10373000044600272079F8B1E56A607801232A461B
:1037400004F13001FFF7C6FA08B1012714E00020A8
:103750002071206A281AA16988420DD2E67809E012
:10376000A0690544607801232A4604F13001FFF77F
:10377000B1FA761E022EF3D23846BDE8F081000081
:103780006004000000640000200000002000000031
:10379000008C000000800C00B837000800000020FA
:1037A000700000006C01000828380008700000203C
:1037B000F09D0000880100080000000000000000EB
:1037C00000000000010000000000000000000000F8
:1037D00001020304010203040607080902040608A3
:1037E000C5350008B1360008400300200000006421
:1037F000408F002000800C6400000000006000008A
:1038000000000000000000000000000000000000B8
:1038100000000000000000000000000000000000A8
:083820000000000000000000A0
:0400000508000131BD
:00000001FF
