:020000040800F2
:1000000060A400201D020008E30A0008750900082A
:10001000DF0A0008D9070008A3100008000000004C
:10002000000000000000000000000000810C00083B
:10003000DD07000800000000690B0008950D0008AE
:1000400037020008370200083702000837020008AC
:10005000370200083702000837020008370200089C
:10006000370200083702000837020008370200088C
:10007000370200083702000837020008370200087C
:10008000370200083702000837020008370200086C
:10009000370200083702000837020008370200085C
:1000A000370200083702000837020008370200084C
:1000B000370200083702000837020008370200083C
:1000C000370200083702000837020008370200082C
:1000D00037020008F90E000837020008370200084E
:1000E000DF0700083702000837020008370200085F
:1000F00037020008370200083702000837020008FC
:1001000037020008370200083702000837020008EB
:100110003702000837020008F90D0008370200080E
:1001200037020008370200083702000837020008CB
:1001300000F002F800F063F80AA090E8000C824496
:100140008344AAF10107DA4501D100F058F8AFF273
:10015000090EBAE80F0013F0010F18BFFB1A43F0A5
:1001600001031847441300006413000010F8013B1A
:100170000A4413F0030408BF10F8014B1D1108BF17
:1001800010F8015B641E05D010F8016B641E01F8C5
:10019000016BF9D1002D15D010F8014B03F00C03C1
:1001A0000C2BA1EB04040ABF10F8013BA4EB831451
:1001B000A4EB032405F1010314F8016B5B1E01F8A5
:1001C000016BF9D5914238BF10F8013BD1D370478C
:1001D0000023002400250026103A28BF78C1FBD850
:1001E000520728BF30C148BF0B607047642900F038
:1001F0007780002070471FB51FBD10B510BD00F0FF
:1002000037F91146FFF7F7FF01F02CF900F055F927
:1002100003B4FFF7F2FF03BC00F045FF0948804735
:1002200009480047FEE7FEE7FEE7FEE7FEE7FEE7D8
:10023000FEE7FEE7FEE7FEE704480549054A064BF0
:1002400070470000990D000831010008609E0020F1
:1002500060A4002060A0002060A000207047000083
:100260000FB4044910B503AA029800F0D3F810BCEB
:100270005DF814FB000000202DE9F0410E46044615
:10028000002020622046E168884730B3252805D049
:10029000D4E901219047206A401CF2E7E16820463A
:1002A00000278847050018D0A5F14100192802D879
:1002B00020354FF400673246294620462760FFF775
:1002C00095FF40B1012804D0F61D26F00706083638
:1002D000D8E7361DD6E72846DAE7206ABDE8F08180
:1002E0002DE9F0410646002410687529314616A50F
:1002F00010D0AFF30080002802DA404213A507E0D7
:1003000031688A0701D512A502E0490704D511A575
:10031000012401E0AFF3008000210A2206F1240746
:1003200009E0B0FBF2FCB0FBF2F302FB1C00303042
:1003300078541846491C0028F3D123462A463046F3
:10034000BDE8F04100F00CB8000000002D000000F6
:100350002B00000020000000704770477047704776
:100360002DE9F0470D4699469246044600F12408CF
:100370000168880604D5E06921F01001216000E0E1
:100380000120A84201DD471B00E00027A1697A197E
:1003900002EB0900081AA0612078C00602D42046AA
:1003A000AFF30080002608E0D4E901211AF8060026
:1003B0009047206A401C761C20624E45F4DB207872
:1003C000C0060AD52046AFF3008006E0D4E901213B
:1003D00030209047206A401C2062381EA7F1010798
:1003E000F4DC07E0D4E9012118F805009047206A01
:1003F000401C2062281EA5F10105F3DC2046AFF366
:1004000000802078000602D50220BDE8F087012098
:10041000FBE70000074B70B50D467B4400F011F878
:100420000446284600F020F810B14FF0FF3070BDB0
:10043000204670BD0F0D000001694A1C026108785A
:10044000704700B58FB0CDE9013100210591054914
:100450007944CDE9031011466846FFF70DFF0FB050
:1004600000BD0000E5FFFFFF007B00F0800070474B
:10047000754600F02BF8AE4605006946534620F05D
:100480000700854618B020B5FFF7D6FEBDE820402E
:100490004FF000064FF000074FF000084FF0000B40
:1004A00021F00701AC46ACE8C009ACE8C009ACE8F3
:1004B000C009ACE8C0098D46704710B50446AFF3DB
:1004C00000802046BDE81040FFF7A2BE00487047FC
:1004D000009E002010B56FF0040000F047FC0A48B1
:1004E00000680A49B0FBF1F0094908700846007835
:1004F00000EB4001C1EBC0104FF6FF7101EAC000F4
:100500000449088010BD0000D89D002000127A0028
:1005100004000020060000200146114A12884A43C8
:100520004FF0E0235A6100229A611A46126942F0A4
:1005300001021A6100BF4FF0E022106900F00102D1
:100540001AB100F48032002AF5D04FF0E02212698F
:1005500022F001024FF0E0231A6100229A617047F5
:100560000600002008B50121802000F00FFB4FF4A9
:100570000060ADF8000003208DF8020010208DF817
:1005800003006946034800F02EF9012000F008F846
:1005900008BD0000001C014010B5FFF7E3FF10BDCF
:1005A00000F0010119B14FF40061014A1160704778
:1005B000101C014000F0010119B14FF40061014A23
:1005C00011607047141C0140704710B500F084FEA4
:1005D00000BF802000F05CFE0028FAD100F098F9FE
:1005E00000F0B2FD00F016FE00F0D2FD00F02DFE8E
:1005F0001420FFF791FF00F059FD10BD10B5012147
:10060000154800F00CFC10B34FF48041134800F083
:1006100075F908B100F090F911480088114909886E
:10062000884205D1104800881049098888420ED0B8
:100630000E4802880B4801880DA0FFF711FE0948FB
:100640000088074908800948008807490880012177
:10065000014800F0D5FB10BD001000400020014013
:10066000D49D0020D09D0020D69D0020D29D00204A
:10067000583A2025642C20593A202564200D0A0080
:1006800010B50446204600F015F800F001F810BD42
:1006900008B536208DF8000001208DF801000320F8
:1006A0008DF8020001208DF80300684600F01AFA68
:1006B00008BD00003EB504460121102000F056FAA6
:1006C000ADF804404720ADF800000020ADF806006A
:1006D000ADF802006946064800F0BCFB012241214A
:1006E000034800F0ADFB0121014800F08CFB3EBD4A
:1006F0000010004008B50121042000F047FA4FF433
:100700000070ADF8000003208DF8020018208DF86D
:1007100003006946074800F066F84FF48060ADF8C2
:10072000000004208DF803006946024800F05BF8E1
:1007300008BD00000008014010B540F225510648F0
:1007400000F0EAFB38B1044800F0A2FC0446214660
:10075000014800F0A2FC10BD0038014010B504466D
:10076000204600F015F8FFF7C5FF00F001F810BDB6
:1007700008B525208DF8000003208DF801008DF8C4
:10078000020001208DF80300684600F0ABF908BDB7
:100790001FB504460121880300F0F8F900940020F9
:1007A000ADF80400ADF80600ADF80800ADF80C0097
:1007B0000C20ADF80A006946064800F0FDFB012256
:1007C00040F22551034800F0D1FB0121014800F01F
:1007D00097FB1FBD0038014000BFFEE7704710B512
:1007E000FFF7F2FE10BD2DE9F0410246002500267C
:1007F000002000230024002791F803C00CF00F050F
:1008000091F803C00CF0100CBCF1000F03D091F86C
:1008100002C04CEA050591F800C0BCF1000F31D0D0
:10082000146800202BE04FF0010C0CFA00F3B1F833
:1008300000C00CEA03069E4220D183004FF00F0C4B
:100840000CFA03F7BC4305FA03FC4CEA040491F8E4
:1008500003C0BCF1280F06D14FF0010C0CFA00FCCC
:10086000C2F814C00AE091F803C0BCF1480F05D1EA
:100870004FF0010C0CFA00FCC2F810C0401C082814
:10088000D1D31460B1F800C0BCF1FF0F34DD54685F
:1008900000202EE000F1080C4FF0010808FA0CF3DC
:1008A000B1F800C00CEA03069E4221D183004FF04C
:1008B0000F0C0CFA03F7BC4305FA03FC4CEA0404E2
:1008C00091F803C0BCF1280F05D100F1080C08FA1B
:1008D0000CF8C2F8148091F803C0BCF1480F07D19E
:1008E00000F1080C4FF0010808FA0CF8C2F810806B
:1008F000401C0828CED35460BDE8F0810246002099
:1009000093680B400BB1012000E00020704700000D
:1009100008B50121080200F039F94FF48040ADF824
:10092000000028208DF8030069460248FFF75BFFAE
:1009300008BD00000020014008B58422042168465B
:1009400000F01AF89DF802009DF8031001F00F0165
:1009500040EA0120054908809DF800009DF801103B
:1009600040EA01200249088008BD0000D09D002017
:10097000D29D002000BFFEE72DE9F04106460D465E
:10098000174600F027FD802000F0FAFC00F04CFD37
:1009900020B100F037FD0020BDE8F081384600F0BE
:1009A000EFFC00F041FD18B100F02CFD0020F3E752
:1009B00000F028FD0A20FFF7AFFD00F00BFD8120BD
:1009C00000F0DEFC00F030FD18B100F01BFD00204F
:1009D000E2E700240CE000F0B1FC3055681EA042B4
:1009E00002D000F03DFC01E000F094FC601C84B2F9
:1009F000AC42F0DB00F006FD0120CDE72DE9F0412F
:100A0000074688461446002530E000260AE000F03C
:100A1000E1FC802000F0B4FC00F006FD00B904E029
:100A2000701C86B2B6F57A7FF1DB00BFB6F57A7F2F
:100A300004D100F0E7FC0020BDE8F081204600F082
:100A40009FFC00F0F1FC18B100F0DCFC0020F3E7A3
:100A5000785D00F095FC00F0E7FC18B100F0D2FCE6
:100A60000020E9E7601CC4B2681C85B24545CCDBB8
:100A700000F0C8FC0120DFE770B506460D460024F3
:100A80000AE000F0A7FC802000F07AFC00F0CCFC2B
:100A900000B904E0601C84B2B4F57A7FF1DB00BFDA
:100AA000B4F57A7F03D100F0ADFC002070BD28467C
:100AB00000F066FC00F0B8FC18B100F0A3FC0020C8
:100AC000F4E7304600F05CFC00F0AEFC18B100F03A
:100AD00099FC0020EAE700F095FC0120E6E700BF62
:100AE000FEE7704770B5002100230F22C47804B3DD
:100AF000154C246804F4E064C4F5E064210AC1F1F3
:100B00000403CA40447804FA03F184781440214372
:100B100009010E4C0678A155047804F01F05012444
:100B2000AC4005786D11AD0005F1E025C5F8004138
:100B300009E0047804F01F050124AC40044D067858
:100B4000761145F8264070BD0CED00E000E400E0B1
:100B500080E100E002490143024A11607047000051
:100B60000000FA050CED00E07047000029B1064ACC
:100B7000D2690243044BDA6104E0034AD26982433A
:100B8000014BDA61704700000010024029B1064AAB
:100B900092690243044B9A6104E0034A92698243DA
:100BA000014B9A61704700000010024030B50021EF
:100BB0000022002400232D4D6D6805F00C0121B1A9
:100BC000042905D0082923D105E0294D056022E03C
:100BD000274D05601FE0254D6D6805F47012234D0B
:100BE0006D6805F48034022505EB92421CB9214D55
:100BF000554305600BE01D4D6D6805F400351DB1D2
:100C00001C4D5543056002E0194D5543056002E057
:100C1000174D056000BF00BF144D6D6805F0F00171
:100C20000909154D6B5C0568DD4045600F4D6D6829
:100C300005F4E061090A104D6B5C4568DD40856094
:100C40000A4D6D6805F46051C90A0B4D6B5C45682F
:100C5000DD40C560054D6D6805F44041890B074DC9
:100C60006B5CC568B5FBF3F5056130BD0010024053
:100C700000127A0000093D00EC9D0020FC9D002040
:100C8000704710B500F002F810BD00000CB5002050
:100C9000019000903348006840F48030314908608A
:100CA00000BF3048006800F4003000900198401CFC
:100CB0000190009818B90198B0F5A06FF1D12948BA
:100CC000006800F4003010B10120009001E0002025
:100CD00000900098012843D12348006840F010009C
:100CE000214908600846006820F0030008600846B3
:100CF000006840F0020008601A48406819494860DE
:100D00000846406848600846406840F48060486093
:100D10000846406820F47C1048600846406840F46B
:100D2000E81048600846006840F08070086000BF26
:100D30000C48006800F000700028F9D009484068AD
:100D400020F00300074948600846406840F0020070
:100D5000486000BF0348406800F00C000828F9D143
:100D60000CBD00000010024000200240042808D101
:100D70004FF0E021096941F004014FF0E0221161D8
:100D800007E04FF0E021096921F004014FF0E02273
:100D9000116170477047000010B51348006840F0BB
:100DA00001001149086008464068104908400E4992
:100DB0004860084600680E4908400B49086008462C
:100DC000006820F4802008600846406820F4FE0097
:100DD00048604FF41F008860FFF753FF4FF000603A
:100DE0000449086010BD0000001002400000FFF838
:100DF000FFFFF6FE08ED00E010B5FFF7FFFB10BDAA
:100E0000CA430282704721B1028842F00102028087
:100E100004E002884FF6FE731A400280704730B536
:100E20000246002000230024158A05EA0103958963
:100E300005EA010413B10CB1012000E0002030BD2F
:100E40001AB183890B43838102E083898B438381B9
:100E500070470000002202881D4B98420ED01D4BA7
:100E600098420BD0B0F1804F08D01B4B984205D070
:100E70001A4B984202D01A4B984204D14FF68F7306
:100E80001A404B881A43174B984207D0164B98428A
:100E900004D04FF6FF431A40CB881A4302808B8858
:100EA00083850B8803850A4B98420BD0094B9842E7
:100EB00008D00E4B984205D00D4B984202D00D4BF6
:100EC000984201D10B7A0386012383827047000088
:100ED000002C0140003401400004004000080040A4
:100EE000000C004000100040001400400040014091
:100EF000004401400048014010B5FFF71DFC10BD43
:100F000021B1828942F40052828104E082894DF647
:100F1000FF731A408281704770B502460024002397
:100F20000025002040F66A16B14200D100BFC1F38F
:100F3000421501F01F03012606FA03F3012D02D129
:100F40009689334006E0022D02D1168A334001E033
:100F5000968A33400C12012606FA04F416883440AF
:100F600013B10CB1012000E0002070BDF0B50346C4
:100F7000002400260025002040F66A17B94200D15F
:100F800000BF1846C1F3421401F01F06012707FAFB
:100F900006F5012C01D10C3004E0022C01D11030F7
:100FA00000E014301AB107682F43076002E00768B9
:100FB000AF430760F0BD00002DE9F04786B005465D
:100FC0000E460024A24600BFA1460027B08900B10A
:100FD00000BF2F462C8A4CF6FF700440F088044373
:100FE0002C82AC894EF6F3100440B0883189084356
:100FF000718908430443AC81AC8A4FF6FF4004403A
:10100000B0890443AC8201A8FFF7D0FD1F48874296
:1010100002D1DDF810A001E0DDF80CA0A88900F4F1
:10102000004040B10AEBCA0000EB0A1031684900E9
:10103000B0FBF1F807E00AEBCA0000EB0A103168D8
:101040008900B0FBF1F86420B8FBF0F0040120093E
:10105000642101FB1089A88900F4004040B13220CE
:1010600000EBC900B0FBF1F000F00700044308E01A
:10107000322000EB09106421B0FBF1F000F00F000A
:1010800004432C8106B0BDE8F08700000038014021
:1010900001468888C0F308007047C1F308028280C7
:1010A000704700BFFEE700BF7047000008B5002092
:1010B0000090B02204216846FFF75EFC0120FFF794
:1010C0002BFA9DF803005A280BD19DF802005A28EC
:1010D00007D19DF801005A2803D19DF800005A2835
:1010E00004D005A0FFF7BCF8002008BD08A0FFF75A
:1010F000B7F80120F9E700006C6F6164206669723F
:101100006D77617265206661696C65642E210A00E5
:101110006C6F6164206669726D77617265207375AA
:1011200063636573732E210A0000000000BF054A47
:10113000128802F04002002AF9D0C2B2014B1B1DF6
:101140001A8070470038014010B500248824E0213F
:101150002046FFF791FC0120FFF7DEF901248021F2
:101160002046FFF789FC0120FFF7D6F90424E4218B
:101170002046FFF781FC0120FFF7CEF90024E02193
:101180002046FFF779FC0120FFF7C6F910BD0000EB
:101190007CB500200090019000240DF1010500BFF6
:1011A00031E01B4810F834008DF80000184800EBBF
:1011B000C40000798DF80100154800EBC400808858
:1011C000000A8DF80200124800EBC4004068000CD1
:1011D0008DF803000E4800EBC4004068000E8DF847
:1011E00004009DF80000F02806D19DF800109DF83D
:1011F0000100FFF741FC05E09DF80020042128468E
:10120000FFF7FCFB641C41F2B9308442C9D37CBDBA
:101210000800002010B500248824E0212046FFF7B4
:101220002BFC0120FFF778F90424E4212046FFF786
:1012300023FC0120FFF770F90024BC212046FFF7B2
:101240001BFC0120FFF768F910BD10B5002400BF9A
:10125000E0212046FFF710FC0120FFF75DF910BDEB
:1012600010B580200949086000F02EF84020074999
:10127000091F086000F028F840200449086000F0C9
:1012800023F880200149091F086010BD140C01409B
:1012900070B504460B48006800F0800080B1094832
:1012A000006800F0400058B100F094F8204600F0CB
:1012B00067F800F0B9F8054600F0A4F8284670BDBC
:1012C0000120FCE7080C0140002001E0411CC8B2ED
:1012D0001E28FBDB7047000008B501210820FFF73E
:1012E00055FC03208DF8020014208DF803004020E7
:1012F000ADF8000069460648FFF775FA8020ADF8A2
:10130000000069460248FFF76EFA00F07BF808BD5E
:10131000000C014010B5802007490860FFF7D4FF9A
:10132000402005490860FFF7CFFF40200249091D12
:101330000860FFF7C9FF10BD100C014070B5002414
:10134000002516E06006040E40200C490860FFF7F7
:10135000BBFF0A480838006800F0800008B1601C34
:10136000C4B240200549091D0860FFF7ADFF681CA5
:10137000C5B2082DE6DB204670BD0000100C014010
:1013800070B50446002520E004F0800018B18020EC
:101390000F49086003E080200D49091D0860FFF730
:1013A00093FF40200A490860FFF78EFF402008495C
:1013B000091D0860072D02D18020091F0860600602
:1013C000040EFFF781FF681CC5B2082DDCDB70BD81
:1013D000100C014010B580200949086040200860C9
:1013E000FFF772FF80200649091D0860FFF76CFFB8
:1013F00040200349091D0860FFF766FF10BD00008B
:10140000100C014010B58020064908604020091FDB
:101410000860FFF759FF80200249091F0860FFF7A5
:1014200053FF10BD140C014010B580200C4908601A
:10143000FFF74AFF40200A490860FFF745FF0848C8
:101440000838006800F0800008B1012400E00024A2
:1014500040200349091D0860FFF736FF204610BDF4
:10146000100C0140FFF798F84FF4A060FFF772FBF3
:101470004FF4E130FFF772F9FFF72CF8FFF7A5F80A
:1014800042F21070FFF7FCF80DE00120FFF792F830
:101490004FF4FA70FFF740F80120FFF781F84FF49E
:1014A000FA70FFF739F8F0E7C814000800000020D0
:1014B000009E00006C010008F06D0008009E0020F6
:1014C00060060000D001000852000112F0048302FF
:1014D0000001520418520820520C285210305214A5
:1014E00038521840521C48522050522458522860FA
:1014F000522C68523070523478523880523C8852A4
:1015000040905244985248A0524CA85250B0525465
:10151000B85258C0525CC85260D01264A420061160
:101520000001F868AC10056406006CC410060A02DD
:10153000011070EC5006FF0F000074F8567800128E
:101540007CCC2405170C170C085603140405437EA5
:101550000F114B08565108668E08076AF1D80854D7
:10156000060AC00A1A68E0250811FF570070002516
:101570000812FF01250812EC099A7C10DA041034D5
:10158000040B660108D6640808053C06FF0CFE1033
:101590003A0110259829105A0A10DB580210280425
:1015A0000A02041068042C011410AA9A10380403CB
:1015B0000201102805070605041028050B0A090872
:1015C0001028050F0E0D0C102805131211101024F1
:1015D00005171615140828051B1A19181024051FBD
:1015E0001E1D1C08160ACE2508128001291024058C
:1015F000F481A9CB08D605085A051056B40812661E
:10160000015210B8A91021D059105A101006131009
:10161000084604082178523480523888523C90524F
:1016200040985244A05248A8350811B05650C809F5
:10163000221025F85A68005A6C08A9104F20021889
:10164000035E1718035A0C105E06F403DE1720041D
:10165000520C0424050204030408563208AC050A9F
:1016600001141418035E0118034F042918034FE0F6
:10167000011803472003082DB00325081E05B803F1
:101680005E3488035A38B85E3CB8035910350812E6
:1016900010025E48D0032508240502040404081241
:1016A000023A29104F100E20043C042C010A200499
:1016B0004C040864802004040422081010085EFA18
:1016C00020041A3C1AAD18035E071C052C05060001
:1016D000070118032405080209030828050A040B5A
:1016E000051024051006110708240512081309081F
:1016F000BC04563412200412785025084781100883
:101700003405100008FF0824040108FF08124008EF
:10171000291012600829104F2C01180347040108F2
:101720000E15DC2805470D0108AC05030F0F321814
:10173000037E0128050A1B16100804130200091075
:101740006D28053C0445230128053404AB8967084E
:101750006D14052C052F020F0220042C056F024F7B
:101760000218032805AF028F02342805EF02CF02CA
:101770001024052F030F03082C056F034F031803D4
:101780002405F101F001082405F301F20108280500
:10179000F501F401102805F701F601104C05F901D7
:1017A000F80128050F22FA1130061E04F90329104A
:1017B0001E08F90325081E0CF9030D223006DE0869
:1017C0002805470102084F040828053C04CD00669F
:1017D00028055ACD10DE8C30066D18035E094407CB
:1017E0001694C825081A112225081690D84D2805E8
:1017F0003E0428051668E84D20043E0320041664C4
:10180000F825083404822500081A6008AD20044B2E
:101810004C00103C04FF7F1920041EF0E003A508D3
:101820002110A5082110A9102110A508DEF0200420
:101830002110AD38072110A9102110AD1803211077
:10184000A910DEF030066E1E4D0824040F5A5A0807
:101850004F102B28054F842B24044F042C30064FA7
:10186000442D20044F402E28054FF42F18034F8895
:101870003120044FD83220044FA83420044F1C36A6
:1018800020044F383628054BE0371047083A084FF8
:10189000FC3B1803477C3F084F844030064FF04222
:1018A00018034F04441803477C44084FF44430069F
:1018B000478C46084B744910472C4D084FC04D408B
:1018C0000847244E084B84501047A451084F9052AB
:1018D0002004CBDC521065080E7D1F480947D02438
:1018E000080F15802648094A2710CFC02718030F74
:1018F00014702848090F14A0292805CF702A200445
:101900004F945348091AFC00B3F000015E01300601
:101910005E0134042E0120042C05C0C03F23400882
:101920003C05046014A218033C042010A4280550B0
:10193000054024E41C202D1803121020291015DF67
:101940002E2520045006FFA314A42C2855082E0190
:1019500040082C05E020108230065C0501008881DB
:1019600018035E0130063D2004120F602D38075C1D
:10197000054000A0E440084E0140084F10A01803A5
:101980004F10A228054F10A418034710A6084F10A7
:10199000A818034710AA084F10AC18034F10AE4800
:1019A000094F109018034F1092500A4B1094105C7E
:1019B000041096F0F8065DFF0746980847109A084D
:1019C0004F109C20044F109E500A5F108440085E08
:1019D0000130063D280511182E8238074C050100FC
:1019E000908120042F108218034C0501009881502B
:1019F0000AA780810821F859102E0138072C05FC10
:101A00002C10BC20045C05F82C109C20045A0110FA
:101A10002E0118032805401000271044060FE0147B
:101A2000A654205EE628052E014809580509030042
:101A300040105E0120042E0120045C05FFFFBF1052
:101A400020042E0118032C058496160328053C0556
:101A50005360108230062C0469290330062C05825D
:101A600062108220045E1A6C0C3C0598BFE39D2036
:101A700004117BA91032078B45004E141808A640AC
:101A8000081A151A5D48093D30063405FEFFBF30BF
:101A90000815F84910061B9008A80508E0C3811036
:101AA0001DE7052E0348093C054263108248094C96
:101AB000054080A3508F093A031011C83D38075CD8
:101AC000044098812805061201082158A508251010
:101AD0005D28055E01600C4A01102F80A728050EC5
:101AE0001D1B180321A8A5082C050020A280300684
:101AF0005C0506008002500AA601084406FF3F82EA
:101B00009028105E12580B530130F009121015F096
:101B10002E0520044C060FA01084441003AAC41004
:101B200021D05D580B2E0128052C05E0BEE39D3029
:101B3000062C05FF7F06B228051A18D82D28052C7B
:101B40000544BF27F220043C0540BF27C018032CE2
:101B50000420109838072C05F8BF07B0200428058A
:101B6000483F06D4102C054C3F06DA500A2C050AD3
:101B70000010B820049C06FF3F0398F02C0D2805A8
:101B8000F83F06B0102C050D80A28094072C05317B
:101B900000801648092C050D0010B620042C050203
:101BA000A02ABB500A2C0502602B83380728050B9E
:101BB0004007B2102C050B4000B438072C051DC09F
:101BC00002DE20043C051B00A78030061140A5085A
:101BD0002C05008006C248093C040F40A0580B5059
:101BE00006050080043C302D18032C05FFFF06B6C7
:101BF00030061AF8D02D500A2C05FCBF06B4180385
:101C000012134852502852544849102F26C24008F7
:101C10005006012007B860202D700E120D303D4097
:101C2000083C046006B2200450054006C270782DBE
:101C3000680D5006FBFFBF267838527C382D3807D8
:101C40007E1D500ABF8016280550058026C20CA0B4
:101C50005210985214E82D480916E4F0521CF82D41
:101C600028054805082006B0103E0720042C054C26
:101C70003F26C240082C05483F26D4580B50060288
:101C8000202F8334283D28054005C022DE3C9043A8
:101C9000BA402843FA44382EDA38072C05022003CC
:101CA0009838073C04FF3FA3600C5406C9FFBF34BB
:101CB00054D82D580B5C0408E0C718030F2AE8819C
:101CC000600CED780F6D38076D3C101DFA0D2E83FA
:101CD000500A2C05F06F0882580B2C0504603083E5
:101CE00020042C050560A080500A1E270803AD289B
:101CF000051206182D580B1E3C2003AD20041215AA
:101D0000182D500A125418AD1803122A182D300637
:101D1000129018AD18031218182D4809128518AD25
:101D200028052C0580C13F0728052C053CE01086BE
:101D300038072C0580961605700E3C05024000847D
:101D400020043404C020C4082C04C03F0718031228
:101D500020283D500A500520108468204E6C300A1F
:101D60000E120520045C06FFBF80847CC00325089A
:101D70000E162138071160520C603D30065E20308F
:101D8000061180CD30065D20044F40C430065C044F
:101D900080CC81700E5D580B3B50A7102C04E02CBA
:101DA000A9680D2C0501E034A7700E2C0514C01491
:101DB000A628054C0507E00CA6680D0F129081308F
:101DC000061D12044D20042C04A03BE0680D2C05D8
:101DD00008A03BE4680D3C0510A03BE82004340457
:101DE000A03BEC082C04A03BF020042C0528A03BD1
:101DF000F448092C0530A03BF848094C0538A03BB5
:101E0000FC38073FE8813807CC04C09481280527B7
:101E10000001086A220F11C85204C8AD300621C85B
:101E20003D20042C04E034A92004500601E02CA736
:101E300018C8521CC84D780F6D3807C70001085EDE
:101E4000E838074EE828052C04A01BE08010280580
:101E500008A01BE4102C0510A01BE818032C051883
:101E6000A01BEC28052C0520A01BF08010280528BD
:101E7000A01BF410280530A01BF8104C0538A01B3F
:101E8000FC40084FE081680D4EE0180311D80D1298
:101E900030062598566C980912101E10C8084E7C02
:101EA00000092627086E233E081DA0073508DC041C
:101EB000C024C248094E0348095F108248094EA653
:101EC00048090F1220E63006650812202849102F15
:101ED0004883180334051340108208AC04408881FD
:101EE0004008AC055704004038070910105404504E
:101EF000A750885654885A58505A5C504D4809B7D4
:101F00009081081900566C78567078567478567817
:101F100078567C78AEF044121580560480560880BE
:101F200049104EE038071578AD200421E84D4809E6
:101F30002F4883300650061340288224E8A9102534
:101F4000485630483D901254053F10A638480D12AF
:101F5000500A7D480915D04D8811BECC38074F80F6
:101F600020400825C8565CC05660C00923103F8039
:101F7000C41803AC0504A0CC8118036E2517032CEC
:101F800004C13F1B780F3C0448601328051DC90994
:101F90003D300628050360008210380403600810F5
:101FA0003C0402602838075C068060139A1C1808FD
:101FB0002D580B3F0D402B0C2DB8073E94A0142C30
:101FC000042010968811380402E02A105C06A463ED
:101FD00000D234D8073D88114C05202B833C900754
:101FE0002E9B40082C050D0002DA48091E01280628
:101FF0002D30062C05014022DA40084F052030061E
:102000003805FAFFBF04102C04A002949813280589
:1020100001E00296102C0503E0A280700E12F4205D
:102020005264700D1248092C050800028298133C76
:1020300004084000500A4C060260329B7CD50B3DE0
:10204000500A5E266F0E11C8538204E82D300644F4
:102050000503600A92082F2A9338072C05B0650003
:10206000D0901254060900329118002D80103C05C2
:10207000FF200A9038072C0400029A8811400608B5
:1020800040039A28682E979012120D102D180312F3
:102090000B0852345835085005602B9B3C603D407E
:1020A0000815E82D700E2C05B06503D880102C059E
:1020B0000940288390122C0501002B82580B2C0517
:1020C00009802A9590124B0A40103C04B0652340C9
:1020D000082C0502202A91700E5405A42302DA0868
:1020E000A697083C040B402340081E0510043D2819
:1020F000052C04C23F1B48093C040840202004165C
:1021000008D04EF0CF0D3D561025003D2805240483
:102110004003D0081201F0AD500A120FF02D780FD5
:102120001E38800B2D500A2C0502202EA188113C50
:1021300005DA2314DA780F2C042314D6780F2C0533
:102140007C2400C2480928050DC022B0102C0501CE
:10215000405B8240083C0501601EB2300637208695
:10216000081E0C28072D480928051940009A10243C
:1021700005090010B008380498BF071015403D58F5
:102180000B4C05018016C2680D500423C2546039FF
:102190001015582D780F4806FF3F86B060302E127C
:1021A000B0161E0478082D780F40067BFEFF7F6C6A
:1021B000502E90801012EAA82D981312E8A82D280E
:1021C000053C040B40A3A81519C09F92F06C183C65
:1021D000050B008018500A11905E08380A2D380748
:1021E0004F1E4018035C05987F0098881126C2088E
:1021F0001E0138093DA0142C0440029218032C053E
:102200000B00A680600C5006FCFFBF082890562CDF
:10221000105230304D680DBE802805ED700E5C0602
:10222000184072B04828094D38074EE838073FC2B9
:102230003F600C5C06A060109658380B49102F2B9D
:1022400083B0163C050C00039A700E5C056413DA2B
:102250006860032DB0161E1658034E70480A2E04EF
:1022600028053C040B4020580B2930AD2004DE2902
:10227000680D25D039105D48091201E03DB8174CB2
:102280000500801A14D00B2E90500AAC05B6FFFF43
:102290007F40081D900A3DB0161D20032EB09813F4
:1022A00012B22039103C04002690600C4804000251
:1022B00090103E02500A21E845083EE8680D218052
:1022C0005E4490062D90123805D42300C2103FC002
:1022D000A4500A1259803D500A54042300E2085BBE
:1022E000AA5C2025083C040140A5580B3405500089
:1022F000803A085C05E004A66CB8084E7064173D8F
:10230000700E4F7062700E2C05010005AEB81712EA
:10231000E1A825085E2AB0161215E03DA8151DB8E3
:102320000F2D600C1213F02D38071279F02D500A82
:102330001E16B80F4D680D3EA6680D3C04040080C3
:10234000580B11304AA01045081DA01026A00856B1
:1023500056087D680D1DF00F5234582D98131297B2
:1023600080423C782E9218031207583D801019982D
:1023700039101D60102D600C471180081E08900C4C
:102380002D48093C050720109A580B11083D4809B3
:102390005C0540239A60E00E3D600C1D5804391026
:1023A0005005002CA06C30527028527428527828A6
:1023B0003D280524040014A0085E2B18031209E030
:1023C0003DC8191D400B2DB016480508201E82106F
:1023D0004D580B5006FF3F609A149825085C060381
:1023E0000080141C600F3D500A1D680F29103C042A
:1023F00001408B680D5E0F580B1208E03D680D3FE1
:10240000C005680D5E11680D11402618083C0411C6
:102410004020200450060140249A44F85248604568
:10242000083E2428053C051240248230061DD803AE
:1024300049103F64A0400819885E6020124A64B8C1
:102440004E32580B2F25E4700E3C04FE20A41803D6
:1024500044050200802408500404A07820567CE043
:102460009EF0841C1D38182E9438071A4700A910B6
:102470005C06016005AA1000055A14804D18032F50
:10248000BF0A80105806102005A820885A24D05A68
:1024900028D02D400812AC285A30C85E3410034DA5
:1024A00088114EE818031DE8032D680D1E1E6807ED
:1024B0004D180366A2082612081E0CD8112D88118B
:1024C00034040CC022082DB8072D30061D05032E3C
:1024D000DA28053C04F07FA338072D08105E64A0BD
:1024E0000D3DA0142C046400C2580B5E1F20045E36
:1024F000F520041E0040060D122004DE2D88115C1C
:1025000005082500DA600C3603084C05400B9A10CC
:10251000F80C3E1788113F2020B8171E8018092D8F
:10252000680D4C0538E01298580B4F23C2600C54CC
:1025300004160328B83D88115404C022C0084FA6D1
:102540003490053E1248094C052010A83CC8133EA3
:1025500003700E11782D780F1EFF80114D40083F3B
:102560000B9A80103C042500D8A0144EFF28052C9F
:102570000501000B98600C3C040C40133006480524
:10258000482520DA103EA620045E27780F2C055639
:1025900069291B30063C0540C03F1B80102C0425D8
:1025A00000C2500A3C040D400890122805408016D5
:1025B0001B101E0D900F25086E2E38074C0500804D
:1025C0002204B00D2EA614182C05542600DAC018CB
:1025D0005006DC2100C210D84D780F5004801A1824
:1025E000682DA0141EA9F0122D4809120CC82DB098
:1025F000165FA5619813550825A84230302E03D8E0
:102600001B5F5A62A01419E03D180315F85240B838
:102610003D30061DFB0D4E48781B2E11B0162C05C3
:1026200048201492A8152C058F01004098133C05F2
:1026300020221290B8173F2314180311B05EA81877
:10264000034A9810AF2B9B30061D90083D80101E4A
:102650001738065E74D0063D600C1918567C30257C
:10266000085E2FD41F1E1308042D580B3C041800BD
:1026700038780F3C055A6213A4580B2C0420409262
:10268000780F1E1F880F4214F82E1B18032C05A567
:102690006113A288113C0409401048093C044C25F0
:1026A00000881115D83EE0F01E3F25103807152090
:1026B00026C2082C05503A039688112C050C251BC0
:1026C00094700E1E1218113D700E1D700F2D680DA6
:1026D0003C0411401820041E0D90043DD81B3F3FC0
:1026E0006040083C0409409030061A0AF85E5438ED
:1026F0000325081EE0480A3D780F3F2040280512B8
:102700000A385264383D30063C04409380F81F1D5F
:1027100030045E7058085274404E7808122E02A0A1
:10272000143C04703903500A6D5417473F60081D6C
:1027300008065F280800084D700E5C0423C01010C6
:10274000082DD01A3C046728A388115006E6FFBF65
:10275000281CE84D28054D40081D40075B0628F061
:102760005A2CE83D48093FC00B600C2D60072DE84E
:102770001D2C054C2520C2D81B2405D42210C208CC
:102780001E10F8032D48095806902620C248E83D3F
:1027900018032C0400803688111EC8480746547060
:1027A0003D48093C0414000548092C05FD7F0882BA
:1027B000F01E4F0D40300621585268305E6C700399
:1027C00029101612C83D600C4E6218034C05FF7D9F
:1027D0000B9A580B4D500A6E315C185C052300D6DD
:1027E00004B80B5E08B8083D28052C04E03299D0E7
:1027F0001A6E54700E3F400048092C050CC0029818
:1028000018032C058C2520D898133C041461A0488B
:10281000092DB0033D88112C042520D628051288E7
:102820000829101E4410084634A03D20043C051819
:10283000203499E81D1DB80C2DC0183C045A60586E
:10284000580B1D7D163D20041207B8464C205F9B97
:1028500050400A3DF81F1D20063DC0181D180442B7
:102860005C083D40081D300B2E17C0181270F83D53
:1028700080104C04E0128298133620085E5A180328
:1028800021802DF81F1E7C58044E7C68183D1803CB
:102890006E324C1B15D82D90123C04FF6313B817F1
:1028A0002D50043DC0182C04FF3F1B580B3C040D59
:1028B000000C380725784218F03EC2500A3FE0A4C9
:1028C00098131D280B5F122408045E289804562CC8
:1028D000884D580B3E88F81F1E10D80629101E2957
:1028E000500C2DD01A3C0474E012580B1E303809DD
:1028F0005E44D0055E489008524C285E5080045ECD
:102900005460044D580B3EA318032D7805ADB8173D
:1029100029303DE81D11703D400811F82D20046E4E
:1029200015600C193025081E4B780B2D80102405DE
:10293000B0251090085E3324241EB4900B4DC018AF
:10294000BEE888112DE8064DC0183EE8780F5E9865
:10295000600C3C0544020040780F4E202004159086
:102960003E15580B2C042100E8500A479822084CC9
:102970000570A0129888113A23102D88062D18038F
:102980002C05382300D830061E3088173D90122CB5
:10299000044020D8B0161E2C480A2D00214C057486
:1029A000A0129080103E22600C2D100F2D28051EC5
:1029B00016F3045E5868062D18032C05F8E312A0E0
:1029C000680D28058C60139E102C055860139260CA
:1029D0000C4C065C6013A26C180F3EA4C0185C057A
:1029E0006013A67490063D40083F402228053C0431
:1029F000D0E112C8196D7C1D1E88480F4D680D2F3F
:102A000023D630061E40AA183D28053C04C023E00A
:102A100030065E6118033F802218032D58105E1C9B
:102A200058104D98134F20C080103F24C018243FE9
:102A3000802418031D18104EE040083EA5082216F9
:102A400074F84E38100B5FD63CF8073DC8192C04BB
:102A50002200D430063C0414405838071D591E3D4E
:102A600028052D08033D40084C046030A138075468
:102A70000410A058182D38074C0540601398D01A40
:102A80003F03D0A0143FE032700E4C040AC05A1825
:102A9000033F380A680D5C04010012D01A3F23D0AE
:102AA00080101D680E5E7C580E25085E3534263C6D
:102AB00004E03F0A580B120B305D20043619083C25
:102AC000044023D040084404201394082F02D03837
:102AD000075006542013921C3845083E0240082136
:102AE000403DD81B3F610880103C0414E1A2500A0D
:102AF0001D50173E1298132C048022D098135E06A6
:102B0000180325582D38072C055190000310233C3D
:102B1000055820139AD81B6E60C8194E23700E15E5
:102B2000485E54D00B4DB8172F22D620043C0449E0
:102B3000235C2805160A283D680D2C04C23F23D0CB
:102B40001A2C05F82300DA30065C0608601482703F
:102B500028042D40082C050C60149820045E56189B
:102B600003151826DA086E363C2611204DD81B4D69
:102B7000780F5F00F048094C04002A9018033E23A8
:102B800080103C04C0C13F48091A40D82D08228A51
:102B900064105BD824C02D18035E7F30065C0610DD
:102BA0006013943020092D40081A30B82DF81FA466
:102BB00005C0FF0717081614A04D20044F22D63079
:102BC000063EA430062DA00B5A50A83D10233C040D
:102BD000202C93780F2C04200482580B5C060420D0
:102BE0002C9B6070064D600C3F029A500A11F04D0C
:102BF000E01C3E2330061E1080112D00214C05885C
:102C000060149688113E00A01424058C601494086A
:102C10006E3745284C04C022D2A8153E22700E1EE5
:102C20007440093D18035DB8175E07B8172C05807E
:102C3000C03F17500A3C0474210828053C04772142
:102C40000880101E08580A4DE01C3E23580B1150F6
:102C50002EDA98131EB5081035083F3F10700E1E6F
:102C6000A218103D48091D58044E3C481E3E1BC882
:102C7000194E3F881129B04D98133E23700E2DA098
:102C80000345083E2438072DB8184DA8153EE8A87E
:102C9000152DA80E4E60780A3D98131EFF20054E94
:102CA00068481ABE0290125D500A2DA0063DA0147D
:102CB0001D480A4DD81B9C043C21F0C4271E14401B
:102CC0000E4E0438183D18245C056CFCFF7F30273D
:102CD0004E01B8175004001B14202DB0163C040DF3
:102CE000002C98138A34103D500A1DC80A3D300646
:102CF0004F0C60E01C1D18274D10231D40042D5063
:102D00000A4758FC0834040421120821C05240A08C
:102D10004D80104D48091EEEA81D5E4C180D2D2843
:102D2000051E3CD81C5254480D13C8191D580E5E80
:102D300064701B3D780F2C0460039A88114F8960E2
:102D400080101EFD480A3D680D0C04120022C06070
:102D50000C6E39D81B4E2238071DC0043D600C1E76
:102D60000DB0044D680D5F3083C0183E96B8174E05
:102D7000C0E01C1E3B10105E1C30094E2088055E12
:102D800094780F3E98680D3F60A2680D5E2E580B38
:102D90001204103DD01A5D400812081035081DD8E5
:102DA000112DA0143C040A4008700E2DF0085A485A
:102DB000E8464CA03D28052C050260339B30061EDA
:102DC00015E8093D600C1DD0144D18243E03600C1D
:102DD0003C0410603318032D70143D28051DA00C11
:102DE0004D18030F1A8081E81D3C04094070500AF9
:102DF0007E3AA0143E0330065E10A0142DB01FB919
:102E0000106DE81D5DB0163804094073102DD814FC
:102E10004E20280C5D88114D180321980D22F81FB3
:102E2000218845083E0B780F25004DF81FCF808183
:102E300000214DB0162DF01F525880525C804D90ED
:102E4000123E22180325D05668D0566CD05E70D83A
:102E5000155674D85678D02D38071ECB100F25087C
:102E60006E3B442A1D480B5E04E01EBDC81915E0E8
:102E70005E10C00C5E1450164D18033E0220041E56
:102E80008950164E2090132E0430271E0D98075E91
:102E900028E01EBDE81D4C040002D6C0182F02D841
:102EA000600C3C0510E03291C8193C042033952099
:102EB000043C042F0A90700E3C04AF0A94500A1D83
:102EC000E81F2D780F3C040A0022482A2DF8075DE0
:102ED000700E4DB0164005C00A905C204E90580B05
:102EE0003E5B1803AC0508005A90A8151D38163D26
:102EF000A0141E8848042DB016340403602E085E0A
:102F000019A8156DB0166DDC2B5E18B0161DF00DEE
:102F10002E3B28055C06706217BA0CA8172D680DA9
:102F20004C051D4000F4D81B4D20045E01780F3C79
:102F300004E8BF27600C1DDF242E03302712EC109D
:102F40005E2828042D600C4FFE61600C12F0183DC5
:102F5000482A3FBF0048092D90082D082212F41876
:102F60002D80101E1D70225D98134FB648B01F3D76
:102F7000780F3C050DC006BA28263F7F4F28052C48
:102F800005010006B0F81F12F8103D700E4C054008
:102F900006B26008203D90123C04014016680D2DD9
:102FA000880F2D80101E1EC8123D502B3C0460302F
:102FB000BBB8171D780CBD2805372040085E3D2C96
:102FC0002E1E1DD80D2DC8191E19F80A3DA0143C3F
:102FD00004E006B640086E23780F3EA6780F1D5019
:102FE000053E1890122C04602EBBF01E4C041940B4
:102FF00027102319A05624502DA8153C0403E0A641
:1030000020041D280D3E14E01C3C046028B9F81F64
:103010003F000748095E1A700E1D201653264070A7
:103020004D700E3E80F81F15104EB038073E075009
:103030000A21304E5430204E24C018DF06B69012BC
:103040004EB048092F06B608224707E0081ED9806F
:10305000115670505D98134EB028055EC72805279D
:10306000E881086E3E8C2828042520C01012140820
:103070005E08800549103A2B102D80053DB8173C9D
:10308000046720C020041D88055E1C10033D202518
:103090004E67500A2D1003ADD01A29904D38074EB7
:1030A00006D01A4C047F06B820253E16600C3C045E
:1030B0001C4016F81F3C04014097582C4F1A00A8DA
:1030C000151E7F31212D600C1E1B08255650C84D42
:1030D000500A3EA6780F4C057C008038780F3E10D1
:1030E000B81725B049103EA63807127820566C2034
:1030F0003D20044C0420069420043E0640081D2078
:10310000222EA2602D3804E8BF07105E3F743016EF
:1031100003804D580B45082D18184E0CE8234E1C03
:10312000E01C3E00D01A4F6021700E1E04380D5E68
:103130001C88143D582C15C03DA0143F60A6A01457
:103140005E0BA0144FFF2118035E08700E21C85EAD
:10315000387810523C205240C85244C84648F83D86
:1031600098131E0B00225250285E544803525818E0
:103170002D580B1E33C8142DF01E2C051C0010B248
:1031800038282C051C0007BA78303C040BC00270AC
:103190000E1DA8223D280548041C4007102C0440A1
:1031A00027BA580B1E0390212DE01C3C041C402024
:1031B00010238E403C2E4F0304D8163EA0582C3BC3
:1031C0004027104C06FEBF02B0102018350829F821
:1031D0005E1828143D30063C040006BA30271D183E
:1031E0002339105C046007B620252E9038075C0553
:1031F0001B002A9398132E9E602D2C0502E02BB9FC
:10320000700E2C05202507FAB0163C0412405F080A
:10321000223C041F603F80105E1838071201B84D31
:10322000682E3E0618031E13D8043DF81F4C046098
:103230003FBB18032F039E40291E1DE8225E6060DD
:10324000234D80313F07B8482A3F3F07A0141D286F
:103250001235083C04F03F2798133C0403E0A38890
:10326000111EF09812527C9025086E41FD204E20D0
:1032700018242D18043D602D1DB8182D582C1AE85F
:10328000F83D38284EA0102319584EB220043E03B2
:103290003807160BC02D582C5EDB30061E07C019F0
:1032A0004A28703D780F1E10700F5E3050122D7836
:1032B000302C05ECBF07FA482A12F4202D500A1EC4
:1032C00082000A5E4098124D38073E8F702F1E28EC
:1032D000180A2D780F1E1F500C5A50B052544052ED
:1032E00058282D20251E12A0153D502B11502D4081
:1032F000291282185268502D002112281052707025
:103300005274584E78E8043632081D300425086E91
:1033100042F01E11804DC0184DB8172158520CB004
:103320005210B04E14B818530218785E1CB81852D8
:1033300020505224F85228485E2CF0045230F05E9F
:103340003410135238E85E3C98165E40C0045D307D
:10335000060D14D01A1D401E2D48095E1490126FE0
:10336000018098134D28261E0EE8195DE01C3DA033
:10337000143804106703102D38085E70200C5E743A
:10338000D8163DE81D2C04A02A99B817240510274B
:1033900023C2086E43F42C11385E04501E3DF81F02
:1033A0001120520C784E10501EAE10500A6DE81DC0
:1033B0001D58054ED4B0164C0402D42460153D5857
:1033C0000B3C040A8002D81B5F206298133C040067
:1033D00053DA18244E25780F38040C4050101D3055
:1033E000162E9608225A16105E1738281E008014D2
:1033F0003DA0141DC0195E50A8193D700E5C05203B
:1034000002DA58B0195E5C10093D98133C04008044
:1034100034C8193FC03A780F2DC811350815284E09
:1034200070A814531674603DE81D11484D30274DA7
:1034300040296D0C3421585204E83DF01E1D18142B
:103440003D282650053F109610605214E83D00219B
:103450003F6210780F11F03D500A1209D83D28053F
:103460003C04C00296C0183FA08A580B5E0FB016ED
:103470002C051FA03A9B78301E1F200B2D48093CBD
:10348000050D80029A28263F603BF81F2D001F2D56
:1034900038074F0940F01E2DA8174DF01E5C040B95
:1034A000985078115E5448115D48093D700E5405DE
:1034B00001000398083D80315006094023D8686810
:1034C000526C685270685274685E78C8114D580B1F
:1034D0002703D8085E4538282D50155204782DC88A
:1034E000191E10B8203D8C325DE81D11603DC819D1
:1034F00015F83D88112DB80AAD580B2D30074D70C9
:103500000E4D500A2DB01C29103C041F203E0021F6
:103510002405202300D0081E18F0044DC0184D606B
:103520000C5E1588111DE80835082DB0122D2004F9
:103530002C05206010A020041E1C30075E50581B74
:103540004DB0163E40F81F3C040D408830064F1821
:1035500023E01C5E09C8194C0501001EB0D81B3EB3
:10356000A040082DC0162D78304C05A9FAFF7F88A1
:10357000114E2448091D50094E7C98062610087EDD
:103580004630273E2418032DC0194208883DD81B19
:103590001DB8225FF010881A4DF01E5004E8811803
:1035A000E82DC01812A760BD18245DB8174F282059
:1035B000D01A1D00294E0890123EA430271E84A068
:1035C000085DC8193EA208223C04602C8380315E4D
:1035D0006FA0144E60700E1E5178103DF81F4C0401
:1035E0006004A2780FAFC09F600C1E84680F5E5C01
:1035F000F8032D98131E4B88142D482A3C043B6079
:10360000A440085006F6FFBF246C603DC81911F0B5
:103610004DA0144D500A2DD8142DD81B1E14F81B84
:1036200025085E4790124FCC2F700E2170AD2025DB
:103630004FBDFCE81D2D88142D88111EAA380F4D92
:10364000F81F2F1090700E5E3D280521604E24B0AB
:10365000152E18482A5615083C0401208C90121E7D
:1036600038A0155234882D78303C04FE3F04801079
:103670001E41880F4D28052F3291A014122310AD42
:10368000602D5E31700E21C04E5410052E189834F6
:103690001E18B81C5E5C08102D78301EB0A81625C8
:1036A000081E38402D4D28263E2090122D30202D0A
:1036B000A0144F746008221D00153DF81F2DA012A4
:1036C0002D90334F90FCF01E6D243821E82D2025DD
:1036D0001220D85608184DA4355404801810E05D07
:1036E000702F3DF81F2D40213D702F5E2FC0181503
:1036F000B0AD18242D901A3D00215D88112D881A37
:103700002D18035E17C01821D85D1803533840E800
:103710002DC018478FFB081DD01A2E23B0164F203E
:1037200062D01A21684D80102FC09FD01A5806E829
:103730003F04945C784D700E5404803264F042680B
:10374000382E90B0161E0580133D88111DF0212DD6
:1037500080314BD82F102D40065D18032622086EAD
:103760004938280A1425105E003006470100082D4C
:10377000A01C3DB0373FFF1FA8156FF063702F3EB0
:10378000A4C8191D60054E3828264B042110540486
:1037900004A030B85E34B8115D28263EE098135C72
:1037A000052520E04028074D482A4FE8813807BE0C
:1037B000C3780F1E6878125E5470182DC0184F50D1
:1037C0002318032D68184DC8195F08AE482A3AA679
:1037D000105DA0144F0DC0F01E1A62483D30272C1A
:1037E000046030A338281E0E201F5D102326AC086D
:1037F0008A4A105FAA04801D3D582C1D68032DB80D
:10380000381E2C482B5D88114EA008224D30061D15
:10381000780A5E96B8173D10231EC8D0232DA81530
:103820003C04090005582C3C0440640898133C04EF
:103830000D800438071E0018125D88113D40082DC8
:10384000B81E3D680D4E4090122DF8233D580B3C9C
:1038500004600292C0184E6038071DE8033DB0377F
:103860002DF0233DE01C1DF0044258703D780F38C8
:103870000411C0A5101DD0232E14580B1E17603143
:103880003DC0185C05E02D836CD0232DA0353C0491
:10389000C87F0000211DF8243DF01E21684D002145
:1038A0003E0400215E4BE01C3C041140A2700E2D32
:1038B000380D4D582C3E03580B1E1778204D680DBF
:1038C0004D600C3C051F203C9B88320C041A608321
:1038D0008140291D0E372EA0A0143C04AE2150E0DB
:1038E0001C29303D580B1D600E4D680D5C0410A066
:1038F0003CA8224640585E94102335083C040940F9
:1039000005E01C25505650505DF81F579958583DFA
:10391000580B5D500A1D20205F9664E0154E682804
:10392000033D28053C040AC002682E1E0AF812391D
:10393000101D98144E78E0195A16103D600C6D3C1D
:103940003C5E00E01C1D48214E2428263E10E01C51
:103950002D58065610D85214582D502B1E10A00C5E
:10396000561CF03D500A1D801B5E24881C2D280526
:103970001E11C81A5E2CC81A4DC0394D580B25F0BF
:103980002DB0163C04AFE20C48093C0401005B90EA
:103990001258060760389944082DA0141AE0083D13
:1039A00088111D10083DD81B2C04A005AC28051E4D
:1039B0000C70213D40083FA0A528051EAB30283DD6
:1039C00020041DA8214D780F6E0418034D500A5D88
:1039D00018035EA3A0140C05120EA004A4780FDE39
:1039E0004D20251DD0304E9E18034D600C5E1B18D7
:1039F000031D100F2EB0B8171EDF18043D20045C05
:103A0000046310B4D01A65085FBB2458234DA0147A
:103A10005F00B6F81F4F123068112EB848091E1DFE
:103A200008305E3820132D78304F1A40E01C1E1DE0
:103A300048305E4440234E4870253E0840084E40C2
:103A4000680D3C051CC003FA40293F6037680D2D06
:103A5000E81C291050061A400FBA60204E6430123C
:103A60003DA0141E1C98303DA8151D88102D680D12
:103A700056EC081DC80F061282085E4E08221E96DC
:103A8000C8203DB0164E21A8152DA8204D08225F54
:103A9000A380A8153DC8195E0628052D282A5E1C9E
:103AA00000055E20A01B2DA0351E2410065E28B840
:103AB000064D08223E02F81F1E04F8293D80103FE3
:103AC000E4A2D83C2D40163D500A3C04800294D814
:103AD0001B4E2D10232C05F82F00D248095E199893
:103AE000131E09380B4E50B0115E1A500A3D0021CA
:103AF000115853D85C585260284D18033E40C018E6
:103B0000BC040B00A248092DB0242DD03B1EF96047
:103B10002F2D2025120C783DA8361D481025086E43
:103B20004F700E3F802218241D792E4D3027111022
:103B3000560C205E10C0215E14E00C561800561C76
:103B4000005A20F84DD81B4F20D4680D4DF81F3C6B
:103B500004A862C0682E2DB018ADA0352D9034ADEC
:103B600038286D302729905E48E0262D88111E19CF
:103B700058294E5010104EBA500A2B10B6104C0453
:103B800002E02E600C1D80122DE01C4F5DE1102321
:103B90002DA0172D580B1E1DE0175D88112EB6B8ED
:103BA000174FFC2210233C0401C0A6780F1D2833B8
:103BB0005F1A7C48279EF02C3B5C05AC6210B2304B
:103BC000065FB408F8153DF81F4E8038285E11389E
:103BD0002821804E18002A5FB81C382A2DD83C3C7A
:103BE0000580E30EFA600C3F805E300629A04D4848
:103BF0002A5E00680D3F16FA78303FC013E01C11B2
:103C0000A84DD81B4E00A0141E01D80F5E4470169C
:103C10005248784E4CE00D3E0A702F1D78334D68A7
:103C20002E36060821D84D680D3EA6582C1EEA787F
:103C30001649104F10B4502B5EC7582C3EE8602D2B
:103C40005E98A8152D68232DF8404FE42F580B2DB2
:103C500090084EF0AF414D37071DE8082D88324BD4
:103C60009C25101DE0223ED8A8153F208B30275EF2
:103C700033D01A1E50F01F5E1838244DB8175F035A
:103C800082602D3D180311403D0021A405286203E8
:103C9000B2081E61F0273D28051DE8273D90121D42
:103CA00038162DF01E3C051F603897F01E0F15E0EA
:103CB0008280314D40082C050D4078B2680D4FFDD3
:103CC0003F20251D50164F315CF82153D860D85243
:103CD00064D82D20253C0448201648091D48374348
:103CE00011709857E074004DF01E2FC09FE03D3CCE
:103CF00004A82312F81F6E52B6384E4038282D20E3
:103D0000285608104D20046EA638284D18031D7043
:103D1000234A18204E2210232B20C0101E61D807E2
:103D20002DE03D3C04F02316A83621085D80104E9E
:103D3000B2A8153E2E700E2DC8113DC8191DC8071A
:103D40002D38071E17C8135E40F8174D602D4D0023
:103D5000211EC22808AD48095E15780F5E100822A2
:103D60002DC8205E5C78245E6060104DB4425C0417
:103D7000801268B8255E6CB0253D202515384E743C
:103D800060383E3320041D08212D182424055826B0
:103D900020C0086E5364424E26A8153C042022160B
:103DA000582C3C05A86316B2F81F5EFD600C5D0040
:103DB000216DC8192D00284D78303EE8702F2D78E0
:103DC0002D3DB0167E00702F5E9A88115E96981376
:103DD0005E98702F2E9EC0181E0FE8133D600C4891
:103DE000046408F6104D482A1D68053E02F01E3F87
:103DF000640888321E7D481D3D00423F7F80B0161A
:103E00002C057FA30EF438283C057FE30EF6300620
:103E10005C0400800CB0163DA0142DA0375DC819BD
:103E20003D38286E19C8196DB0164F8006502B4EBC
:103E300040E81D9C06018052F8F06C441E1D1014D1
:103E40002D600C4C041D8052582C4C040027B8E8FF
:103E50001DBEA6E81D2C05A03F26F828264C049C74
:103E60003F0610233F00A728051DB0104E2C482AFE
:103E70003E23702F2DC823522CC84D682E3E066855
:103E80002E5C04FF7F0030273EA608431AEB083D56
:103E9000700E1DC0365E4478142D10231E0A48147F
:103EA0002D20045EDC500A25384D20043E02602D92
:103EB0005E0128266ED640081D602E2DD83C1E9C23
:103EC000F0230D1A2004CF0423600C1E22C92025E4
:103ED00008DE55A0353C04D8210088323C0400207F
:103EE000A7580B5E1E40082D081A5E14081A5E18AB
:103EF000B0185E1CB0185D40084AB1105C04003B6D
:103F00002880162DC8193C05DC6217B6E83E2C0443
:103F10006217B4A014A405E462179E085E12382844
:103F20001D381A3DE01C3C041A000610235C061BD9
:103F30000006FA4CB01545084E06B8171D78162D28
:103F400008431E1CE0155E5CE0152DB8381E1908EC
:103F5000264DC8194DB0161D40163DA8151E07D890
:103F6000155E70D01535081D480A4DB8384D983487
:103F700015383D38078E5640294E3028054DB81764
:103F80002D10244D90333EE878302D10243DF03F25
:103F90004E25B8172D680B2D00211E40F8262D60E8
:103FA0000C5E88780F5E00B0375E14B8175E18F0AC
:103FB0001E4F9425B8172D60105E38D0212D9834EF
:103FC0003C0548201290B8381D700FADB037115025
:103FD0003D883221385250703D40083F7F03602DAC
:103FE0005E9420044C06C9F9FF7F6090263D780F4F
:103FF0001D80293E1328055C056012926CA80E4DA9
:1040000008224004C09F7450AED4E81D2D500925ED
:10401000087E57B8383EE8A8365E8830061E01F89C
:10402000204E0C80033E1278302C042200DA300639
:104030005404482510084DC0181D40143E2200218C
:104040004E2280104F7021582C21F05E2CD80E5239
:1040500030202D00215E9888111D502E4E10580BD7
:104060003E10602D2D80115244502D98134F9825ED
:10407000702F5658082D70115DD01A5332582052A7
:104080005C505DB8173D98134F342230272D98159A
:104090005E6C202B2D88111E3C78105D88323DA06F
:1040A000144B7060102D00209EF074462DC02056D9
:1040B00004F85608E0AD08225E10380725E04D30C0
:1040C000274D10231DA81D3DA0352D480C4D18452A
:1040D0002F802228265E8C30275E58482A5E00C03A
:1040E000395E0C30275E8C80105E940021560108EA
:1040F0001D3029533248205A4C505A50382D8031A7
:104100004C06902520D05890285EC028053DD81B2D
:1041100015E857D264004E6820205E12A8153D981D
:1041200013475425085E9890125E0DE01C1D700D1B
:10413000261A087E5978304DC8192D402F4E081880
:10414000293D582C1D48133DB8171E2B78125614C4
:10415000D03DB0373B248B1029E02D780F4FA8635A
:10416000580B5E15B0164F8061082211B83D502BD8
:1041700011803DA0355E04482A1DB8165FD03CF87A
:10418000115240682D0843CFEFFB90121D90112E65
:1041900013E81D5ED088114C0520621292E83E5053
:1041A00004C09F5C4825085F902610233F7D08606F
:1041B0000C2D902A5E6CD8362D00421E6C30285E85
:1041C00074300BAD280525782508DE5A40295E4855
:1041D000682E2DC0204D08226E8888324E22C018CD
:1041E0004D80102D202945085F001B30063D002121
:1041F0002DD82A4D682E362B085648085E482004D4
:104200001EBF002B5238184DF03F5EC7F03F3EE80E
:1042100088112DE82E5E48B0154D28053F0B96C835
:104220003A3F7F8B38071D28072E02A0351EA55860
:10423000244E5C98113E15B0375FA312F01E3E0B62
:1042400098343C0400402940082DE8204E70281581
:10425000AE02D03B2D68293D20464E40B8176E5B1C
:104260007C4315F85E0480122DE83E5E2820041A77
:1042700008004E10B0195F081450174D30063E0B61
:10428000B0372D602F5E2048185D582C4E12084321
:104290003E12C0185E48602D1E0C580E5E34002C75
:1042A000A5085E0680100C0413DC63C0D03B2DD043
:1042B000215E50E0215E54D8215E58D0215DE81D7A
:1042C0004D88321D70354E6430233D504C2D180FF3
:1042D0003DB0164E63C0181DA81E3D602D2D8823CD
:1042E0004E78002D5F047CC8179EF08C4A2DD82193
:1042F0005E0490345DC0182E10444A120BC04D501D
:104300002B3E0280311E09E0284D20255F22C2602D
:104310000C3DA8365EF8280521A84D18245D8010B4
:104320003F00A3A8151D501C4E0A20040F1A109A16
:10433000680D2D88055E48802B25085E68D81B6DAA
:10434000C0394C0460240008434EE0A8155E648820
:10435000116D502B5E88A0141D18065D10235F00A0
:104360009820044D680D4E00E01C5E5DB0166D2077
:10437000256E5D80311D78315E04E0044D582C3E81
:1043800000582C4F0C4030276E04E83E4E60682EDB
:104390005E5598346DA0353C057E2108E200425CF4
:1043A00004608C80500AAE9E20252D581A2D504C4A
:1043B0005C067F2108E438E0064DF03F3E10780FA0
:1043C0001E12A81B3DD83C1D88335D00213DC0183E
:1043D0002D90393DD83C3F600098132C0570621237
:1043E000AC502B3C04386212A0353C04A862127811
:1043F0003011583D482A1E1630252D684F1E139047
:10440000374E6C38415F2670F8393D700E6FA0A2B0
:10441000901243227C383D40087E5EA0355DD81B5B
:104420001D70104D504C5C0480240C383A521030F2
:10443000AD780F5E07600C2D88153D682E1DF025A8
:104440004D98343EA3E01C1DB82F5F262C783A4DC2
:10445000B0375C0404A034883A3DE03D4E80C81972
:104460005EEA500A1E38C03A4DA0354D98341DD032
:10447000083E34682E1D880F5E50480A3DD01A5FF2
:10448000600CD01A4D500A1DE8215E24A0355E94C0
:10449000700E2E9600213C0464E40A90122DD81C64
:1044A0005E70E0045E7428254D20256EA33006263C
:1044B00034086E5F5449AC04E20AC2702F2D283BC9
:1044C0004E0C9842532410584E14881C2E30A815B8
:1044D0006F6C25700E3E58D01A2D202F5E24980543
:1044E0002D482A4C0568E40AE0680D3EA4C0186E09
:1044F0000F98135D28475E8478302DF0052D300627
:104500004F83FF48091DE0065ED248093D38072D5C
:10451000002A4E50B82F3DC0391D50073DE01C5EAB
:104520005440082D18045E60F0352D78511E10F8A7
:10453000394E6808303DF81F2DF822ADF03F2D8030
:104540000F5E7840035E7C600B9EF0A44E5E604080
:10455000296DF8405FF42680105DD83C4F10234849
:10456000092D78072D484B3C045A0080A0354FF4A4
:1045700026500A3C047C2200502B4B0020105E3257
:10458000082211203D98341D402D3DE81D2D883A0C
:104590004D90334F5B9688324D28052D90343D88E1
:1045A000325C0420339B18245EA230063D90335CBD
:1045B000050B40A48028264D901219005E5C18055A
:1045C0005DA8365EA0500A4E03500A3F10A4F03F8B
:1045D0004E7CB0161D901D3E9EA8152C0400049A1A
:1045E000F81F3C04124013D81B1E01A01625086EAC
:1045F00061B0162C040040A228473C040F40532011
:10460000044F084030061DA8155F0A1000034D280E
:10461000056EA0B8384E08F81F4D78302D00034DB8
:10462000602D3EA408432D4011522C782DA0143C3F
:10463000051A2033A1783011D05DB0375E14200404
:104640004D500A1D90383D0021BF80A2B0375E0159
:1046500078305E00F01E2D68335E58E0032DC039BF
:104660004F7422E01C2DD81A3D602D5C0580001B84
:1046700068782AAD80315E7490122DC0195E786022
:104680000D5DC01826A2085E62682E2D68374D2089
:10469000045FA48020253D98341D0803AE1AC0187D
:1046A0002D80125E18B8195D1824463A082F04A40C
:1046B00070503C05D7F8FF7F40294E0010231DB8ED
:1046C000392E9278511270182DC0395E12C0392DD2
:1046D000A0363D80311D080BA9102DA0363D684F36
:1046E0004E00C01825A02D504C1EF108495E54788C
:1046F000385E58E83A4E5C80153D500A1E01E83994
:104700002D08221E74E0334D98343EA4803115C824
:10471000570870284DC0183E00E03D5E3C580B2DF8
:10472000E01B25086E636C511D580DAD80312D586E
:104730000D5E0C10035E1028062D90125E4F0822AD
:104740006D38496E4C98344E61580B5E4B40086D85
:10475000F8404FF02640082D280D4D40084D2847C1
:104760001E4658032D38281EF0883459105FA44483
:10477000C83B4D98134D682E11205EC008224FA2F1
:104780005490373E1AA0143C04602CA73807BFE3AE
:104790000488111D40235E0230483DC83A1DC806FA
:1047A0003DE83E2D40194DB0164D700E1D10375F7F
:1047B000157CC8379EF05C461E20380A3D602D3FB0
:1047C000230C98133C0448A012A8151E11C83C5D88
:1047D000D83C4F1214A82D4F9218801C53151C1052
:1047E0002DB0163C0420A212180321302D28055F9D
:1047F0005BF8D83C5DD81B21B04E34983C4EDAC8EB
:10480000193F029800211DD03E3D10234E0038076D
:104810001D68145B3848603D40294E00F8401DA0DB
:1048200024533A54D82DE01C1AE508525C285E60E7
:10483000181F5A64284E68A8244D08224E40C018FC
:104840002C05EC2600D890123C0412009318246E1C
:104850000A40084EA0F01E8E6598343D40081E05A3
:10486000500B4DE03D4D98343C0401601800211E72
:1048700005F8413DC0184C047F0B9A500A4D004288
:104880002D90355E20480F3D88114F200340291D93
:10489000D01D29105EEC280511083D580B11903DE4
:1048A00010234F0260B0372DE0254E40882A3DB8D6
:1048B000382D88364DF03F4D484B2D78365E506888
:1048C0002F4D18453EE8702F1E58682F4DC0394DAA
:1048D00020046E0C80105D702F5E6E680D7D484B5D
:1048E0002C042500FAB8174FF421F81F3C040140AE
:1048F000A7582C1E69F81C2508DE6688115E4C48F6
:10490000096E0BE83E4E60500A2D88215E14E03C93
:104910003D702F3C04400394700E4FA25218034E7A
:1049200060A8361E5F28482D28261EB898283D10FE
:1049300023AC042010B8702F3C04FF3F8740292D82
:1049400090285E3C9028BD20256D18034E00B016BF
:104950001D90485F185008064D48093E10680D1D0F
:10496000E83D5E96C0395FB460282B5E64E8163D72
:1049700028471DD81D2D20041E0318432DD81B5E6B
:1049800009803111703EB2C0394C04A252FA2004A1
:104990003E0618037E67502B4DC0391E2510245E3D
:1049A0000848172D80103C0418A02E582C3C0410E9
:1049B000202E484B5E1D38281DB01A5E9EE81D3E15
:1049C000B8502B1D682F4624003D38281D304A2E34
:1049D000BB500A4C0428680F98131D88174D502BA4
:1049E0004D702F2D004B2DA0351229204D18034D51
:1049F000E83E5E0C780F3C04286817F03F3C04004A
:104A0000C026D03B122A102D48091EFE18383D3012
:104A1000275D482A2DF0172D504C4F286830272D40
:104A2000B011AD20253C04286827C83A2150AD308C
:104A3000065E0508224F0F20484B6D744A21705DB9
:104A4000C0393D002111402EDE38281EE7D0413DFF
:104A500038281DF82B5E1468185E18182A521CE0BE
:104A60004E2028145F0824C84B4D604E3E06084374
:104A70002D202A4DE81D45081ECAC81A3DB8171D2D
:104A8000200A5DE03D5EB428053EB8504C15484D07
:104A9000484B3F2FBB502B3F400748095FC07F006A
:104AA000214660081D683A47325C20AEFA88111131
:104AB000F83D584D4C04CC630BE01C1D00033DC079
:104AC0005A4C04BF66B4F03F540407B878003DB0B8
:104AD000581D482925086E69104415C02DA01412D0
:104AE000CE404DD01A6EA6400835081DF93C5F3BFC
:104AF0001420062D28474F1D40682E5E4C98132D1C
:104B0000C03E4D9033AFE88120251DF00F4DC05AB7
:104B10004E20F81F7DC0395D38075E4888324FFB54
:104B20007F88322D900F5D484B3DD01A5F2C60403E
:104B3000081D80324E54E0413DC0394FD8268811BF
:104B40005E0490122D88205D00212EB240083C04A6
:104B500038221000212D78224E7000415E9E682E72
:104B60003EF030481DD81A4E7CA01A3D20046E6AD3
:104B7000582C3FE02B504C2D882B4DF81F3E0070D9
:104B80002F3C053A2210F438074F4007600C1D10E7
:104B90002E4D582C5C0407BA1C302E5DD81B3D7876
:104BA000303C051A4020B810445D90125E1CC819B4
:104BB00011B03D300621802D90541EF7103C523C20
:104BC000584D90122F06B270505E07B0162DD81FA8
:104BD0005DB0373DA8571E0D382D3DF01E6B40A629
:104BE000105F185C00194E6040065608083D682E9C
:104BF00050063E2210FA6C88ADA8151DE83C5F34C3
:104C00007830072DC83A123C2825087E6BF81F6EB5
:104C1000A700425F220868113D00213F250890123D
:104C20002DC02B4E147041AE0A88111E0890134DF2
:104C300028472F8022B8594FD82620465E083006D4
:104C40005ED830068E08482A572238D0523C30456C
:104C5000083E0028475ED8D83C11183DB0165F903A
:104C600022A8154E40684F2D08114E58483E3EFA76
:104C700030483F603718452DD0054D30063E18901E
:104C8000332D20412D00424C05FB7F0FBAE81D3E1D
:104C900017C0181D20405BFA78505D400835086D3C
:104CA0008C4E1E02501FADA035380401600F102934
:104CB0009849105C0420FA14C0194D48093EE830A8
:104CC000482D00032D10235FBC2FB0161DD826CD14
:104CD000584D6D78515EC778513EE800422DF81965
:104CE0003DD05C4C042450E2A8153EA4C85B5E6530
:104CF000C8196D88115E7FC8195E01600C1E615075
:104D0000504DB0373E1008432D28095E6028094EEB
:104D10006458102E14C83AAC055A2450E4482A2D81
:104D2000600F4DE81D4D780F1D7844AE14E81D7ED0
:104D30006D20045F2C9B682E3D18032D88192D18BB
:104D4000031E3870304DB8174E0728474E4028478D
:104D50002DF0414DD83C5004029620B04D482A3EDB
:104D6000A2684F21385E2CF8495E30D8235E34C0EB
:104D70004729104FC7F518451D90103ED280104EA0
:104D800000F81F6D10445E0B600C2D502C3D504CF4
:104D90005C05A02C8354E8233DB0161DE8235E5C1F
:104DA000E8235E60402C4D38072F029480104F118D
:104DB000C0F81F5EFC80312DE0235E7458444D180E
:104DC000244DB8382DE02A25087E6E10230F12835B
:104DD0008188536DB0373C0401807A00211EACE815
:104DE000235E18E02C5E1CE8234D98554DA8362D07
:104DF00070115628C85E2C28104E3090073E147053
:104E00002F5C04202C8388115F113C60113D182415
:104E10003C04221292482A67A0A2083D10231118D0
:104E20003D98341E0DD8234D404A4D38072D08407B
:104E30003D9855BF0003E01C2D50104DC8193E236E
:104E4000F81F5E0628052D00405274303D500A5D63
:104E5000404A4F0900602D5E6F40295EC8680D5EB4
:104E60001298132DA0155E0C282F5610F82DC83A55
:104E70005006AF220CDA1880AD80101DB81E3D1808
:104E8000241E19382C5E2840364E2CF0233D604EEF
:104E90005E09E03D29E84D80524D8811DEE288111F
:104EA0002DA8385E48400B4D484B4D30486EA850F9
:104EB0004C4E203849EDB8381E73C8045E64181192
:104EC0004DB8383E0080314C057F2508D808225E59
:104ED0005B28473E03D03B2DC837AD98130E1570A5
:104EE00078511E0C90374E0CF016AEDAB8382D28DB
:104EF0004D5D88113DD03B3C04B66310484B1E0C01
:104F000028363D783055082D40125E2CF84C4E3036
:104F100088222E04D85D3C04206520600C4FC023FD
:104F200040295E0080526D78304F003018452D606A
:104F3000175E4CC0195E50E8282DA0145E5C702FDF
:104F400021283DC05A5DF8405E5CC83A6DC0185ECD
:104F50000578304F882230061DA8375D602D4DB092
:104F6000375E0DE81D5E1CD81B5E71FC635E07C0DA
:104F7000181E0038160D1218036DD81B5ECC903326
:104F80005E0088535E25D01A4FE426502B2D103733
:104F90005E281037AD00212DB8353D88323C0460C5
:104FA000289FB0373C04202EB9D03B5C053F003B26
:104FB0004000233D20463F6017E03D1E1950323D22
:104FC00018033F6210682E1D00083EB430273FA032
:104FD0002E2025BC04B06107582C5E3028471D48A0
:104FE000293D38074F1CC0A8365E0E10443C04FF14
:104FF000BF8648093C04B0610F30062D20073D20D4
:10500000465D482A5E72D61B21C82D504C3C040CCC
:10501000C003B8175E1DC83A19F02EBB28261E190A
:10502000A025AD580B29F05DC8193D80314F0CC04B
:1050300028471EED380C5228B0562C20ADD01A5EF1
:1050400033C83A1DE8363EB7584D4FC026600C4E67
:1050500040380725305D18245F3B4C20484D18240C
:105060003E1718241D38383EF8E81D6D98131D981A
:10507000563D580B5D90336DB85919203D400821BD
:10508000F05E70D02E3D38284E20B8385EC8682EAD
:105090002D301025087E7390123E80E85F21283560
:1050A000084E00F01E5E1D500A1D084E4DF8404E81
:1050B00070F01E1DA81E3E10680D4E27500A2908CC
:1050C0005A24084DF81F4D20046A181011D85910A1
:1050D0003D280521D83DF0601D98574D30273F20D1
:1050E000C0F8401D1808524870450850042FB950A8
:1050F000783DE83E4E27A0351E01C8094E5C0032BF
:105100003D580B2550ADD03B2550566C505E70502D
:10511000084D504C3E17A0351D88393D00425E5C5D
:1051200018030E1D7488112DD81D4DB0376E884898
:1051300009AE22600C2DB836AD88115E74700E6D0C
:10514000B037CF082388112DE0174DF81F3EA40873
:10515000641DC8215E0A90333D88112D3008AD884A
:10516000111D7817AE38B0372D402F3DB8173F606E
:105170000040081D70073E9208431D204D4DA0358C
:105180003E10C83A2D484D5E6C58032DB8383C048B
:105190000C0004E01C7E74584D3E2418453C040C61
:1051A000002410236E7530271D58135E04A0174D80
:1051B000600C4D582C5EF4680D5E38A0142D600D07
:1051C0003D602D3F7F0430481D880D3D98342D7083
:1051D000125E24F8205D40293DE01C2DB0184D7072
:1051E0000E4D78301D583A3E0A18031D10084DA880
:1051F000366E2018034EA630065C0410A248A8386C
:105200004DD81B4D604E2D080C3D200446E008563D
:10521000040821F82D600C566C085E12582C0516F7
:10522000080615A8086E7638281DE8305204E84DA7
:105230004809C5085604086600085405BF04A41CA4
:10524000005220E84E2438122E1AA8154C04F2FF02
:105250000498551D68315E3058354D28264DA815E7
:105260001E2F384F5D504C3DC819CF7C2380311D17
:10527000F0485F224C284825083C0410A702E81D8E
:105280001D282E3D582C1EFF58593D78515C042F87
:105290000B9800423E9700214E60604E7E0D983480
:1052A0003E0390333C0400628898132D901F3D808C
:1052B000104EA79834215825086E77DE5E11605293
:1052C00004604D90124DD01A216852106852146833
:1052D0003D502B6E3FB0375D90331D58534DE81D48
:1052E0004DD03B5E0C20041D4047AE1018034C040B
:1052F000FF6F0B18241D80113DA8571D302D4D3810
:10530000493E3398345E18E83E11283DD83C5E0C87
:10531000C01811604E99680D4D500A2DE03E2DE8E1
:105320001DAC0538A722C298135E1428476DA81536
:105330001ED5C83E3D500A5DD01A2DC83B4D4008D1
:105340003EE8502B2DD0189EF0D45A6DF01E2D70D3
:10535000155DB0162EAC504C5ECF08222DA0575EC6
:10536000142007AD38075E04C83A29D05E24002512
:105370002DB8381EE48813BD80104E4090331EA90E
:1053800070312D28471E30484D4E3C0030AEAE20C7
:1053900004DE08A8155E9290121D402F3DF8401DB6
:1053A000D7624E0330483E0478511D300B3DD81B68
:1053B0005E1408435E0900215E9B90122D70515EC1
:1053C0007070514D00423E05D85D4F742498342DC5
:1053D000201E25085E7928472D483C5E04B03E5EBD
:1053E0000860172D30694F59F878517E1178514D6A
:1053F000502B5E79E05E5E400042CFF02F182429EA
:10540000D82D38074FE02F504C2DB0174DB0583ED7
:10541000C0400821505E3CA028AD10232D58144DEB
:10542000F8614D502B2140AD10232D100F4E5888A0
:10543000645EC228053D20042150AD40295006730A
:105440002408D46C60ADB8385E62404A5E40A8362D
:10545000214825080E107A702F5E02C01853A00C48
:10546000C04D700E5004C09F14C05E189829521C85
:10547000E04D00424F109210234D90335E81B016E4
:1054800011903D484B2D98362D10445E52C0395E28
:1054900040C01821E8AD18245E07382821E04DC02F
:1054A00018BF1092A0355C0421109480103D682E26
:1054B00021705E60D825526410566820566C202DED
:1054C00008645F6FF8A8363F2110E01C2D604D5D29
:1054D00088113D48096E7B18455D484B6D502B5E29
:1054E0000020251D18395F3210E8043D20464E2269
:1054F00090125E14580B5EE4D81B3C0410A02C20C4
:10550000042D88583D78305D38281D003F4EDAE87C
:105510001D4D700E1DF0073D00426E0620251D50EA
:10552000304DB8383E2820044C05106723EAF81F98
:105530004D38495E14B0165E14A0355E0A98131EED
:1055400029404B565CD85E60D01B3D504C1DC01BA3
:105550003DC83A5C042700E6C0393D00421DD057E3
:105560003E93C05A3F670228261D68423E98C039C4
:105570003FEF0C404A6D5C6D4F032090121DE0150B
:105580004E9B600C3E20F81F1DF0573D78515C0685
:1055900010A0329914A0053D80314C04E03497A04E
:1055A000564D10445E0C582C3C04FFEF0A700E560A
:1055B0000D082D3809ADB058AC050F4000D8B058D3
:1055C0004F0F4018452D98203D28471D504E3D3027
:1055D000693C046722D428054C046722E6684F3EE4
:1055E0001008641DD8553D70507E14500A6EA2906C
:1055F000124E2A70505C042A9368A829566C48AD54
:1056000048092D9840AD18032405014005AA08DE7D
:105610007D40087D38075D40087E7538074F05A836
:10562000E03D5C0404A21828084DA8574D584D5E73
:1056300068A8155C060EE005AE28A8215E2CD003F4
:105640005E30180549104DC8192D38415D70503D28
:10565000A8365E3080522DE8463D20464C04672037
:10566000E6B8383E03F01E5E14F01E5E30F01E4FAA
:105670000D8088325E06F03F1D3856CE8230066EB1
:10568000A330273E2800425E00B8591DC0325E7824
:10569000E0052D98135E30500A5E7EB0581D40150F
:1056A0002E109834CFF82118032D18284210C83D29
:1056B00018030E10F830063D680D11503D00422DC4
:1056C00040092D406B5EF83006DE303027DE05F0F5
:1056D000606DA8152D384BADA815EDB0584F0900D9
:1056E00090543C040A405840293C041F603B7830E9
:1056F0005A09106D482A1D801E5E0408643DB037AB
:105700002D301B3DA8154C046038913807BEC3E806
:105710005F6D38076E7F8C704EF8604E5E01A83664
:105720002DF8213D00634E7FF8615E1C38285E072E
:10573000E05E1DF02E2E2328262C0503E02CA1F878
:105740001F3C04786214702F4C05746214A4A035B9
:105750002F04D230273C048C220800636FE8FFE856
:105760001D3E04504C3C04706214D83C3C040D00B7
:105770002400215E0800424F13C080102D40363DAA
:10578000680D2C04202CA180313C046C6214E01CB8
:10579000120D402D78511211602DE81D4FDDFF488C
:1057A0002A128D684D500A5C0424D06888134D3845
:1057B000284F05A820254DC8194B0100105EE8F8B8
:1057C000401E07D85825087E80F840BF10A6180351
:1057D0004EC0B0375E1CC03921F84D80312F2CA14E
:1057E000086412E0F82D905412A8F84D90122F047E
:1057F000D27830128EF82D40085ECAB85921F8527E
:1058000030F85234F85E38F8424DD05C4F28A1E0B1
:105810001C4F24A0606F4D8811D613080615380858
:1058200056BD08D68F086DB8592D10464D682E4DBF
:10583000E81D5EE8905425C8AD502BEE81502B5DDD
:10584000482A5EE4C83A2D30075E10F0284D8031BA
:105850003E0090121E04C8034D10233E2090122DCE
:10586000E0303DE01C3F0004500A5E04A8365E5064
:1058700038282D68555E3428314DE85F5C04C09FA0
:105880003C68553D580B1D600D4E44602F3D106522
:105890002D40125E4C00084D80314D582C2D102D9E
:1058A0005E58E831425C90AEC230271D08075F2881
:1058B000689056AD40085E1018661D8046AE08B868
:1058C000175E00D83C8E822004AE0210234F7F7FEB
:1058D00080525E48482A4F5826B0582D480A5D2805
:1058E000685F261CC0305DC0183D40291E4E201345
:1058F0005E28C857AD402921184D18454DB8591D8F
:10590000611F3D30485C05FE7F08A0A8573D7851D7
:105910002DA02BAD30275E12604E1E03F8203DF007
:10592000605E01500A3F000B600C19D04E1B3849D5
:105930004D98551DD0162E22F01E4FD42698342D8A
:10594000100F2DE03D4F4060600C5E2C00422D1882
:10595000205E7CB82C2508DE83B8385E28C05A5EED
:105960000248095E26B8386DC83A2D605D5E189809
:10597000353D40294E4038285E70E03D6D28261D9B
:10598000585C53322C905E306813AD682E1E4CC8A4
:105990001C523CB04E40102B3DB0585E07386A2D6B
:1059A00058362DA8575E47C81921D85E5408345E72
:1059B000584058AD20251D902CAE2A600C5A4C1032
:1059C0001E0E90554DF840BE8890541E40683452CB
:1059D0007C302508D684085E09C8191E1408212DBC
:1059E000582C5E8098346D502B21185218484E1C4C
:1059F000A846533220F0522420AD682E5E2F38077F
:105A000021F02D506D5ED4F81F1D281E3D00211D74
:105A1000D9213DD81B1E6910033D08223F262000D6
:105A20004225E04D484B4D084321584D30273E0854
:105A3000B8171E6840034D504C3E5878512D182918
:105A40002D606F1E2199695D586E5E0190543DA0D6
:105A5000772920AD684F2D48294D306927800608E9
:105A6000DE85803121D03DA03555082D184B3D28CD
:105A70004715005E14104B5DB8385FA01CD803AD0D
:105A8000E03D2DD036AD38492D58225E30704B5D4B
:105A900090335FA23868334D08223EA4A8151D88B4
:105AA0005CAE3AB0164FB6F798341D68465E90006B
:105AB000634D18241D580E5E5850044D98136EA463
:105AC0000063391021700D1288326D504C4C054620
:105AD0002208D8580B45085E40580B6E8688535DE7
