:020000040800F2
:1000000068060020CD010008A90C0008D10A0008EC
:10001000590C0008E90600081D1200080000000045
:100020000000000000000000000000001D0F00089C
:100030001507000800000000AB0C000809100008BC
:10004000E7010008E7010008E7010008E7010008F0
:10005000E7010008E7010008E7010008E7010008E0
:10006000E7010008E7010008E7010008E7010008D0
:10007000E7010008E7010008E7010008E7010008C0
:10008000E7010008E7010008E7010008E7010008B0
:10009000E7010008E7010008E7010008E7010008A0
:1000A000E7010008E7010008E7010008E701000890
:1000B000E7010008E7010008E7010008E701000880
:1000C000E7010008E7010008E7010008E701000870
:1000D000E7010008E7010008E7010008E701000860
:1000E000E7010008E7010008E7010008E701000850
:1000F000E7010008E7010008E7010008E701000840
:10010000E7010008E7010008E7010008E70100082F
:10011000E7010008E7010008E7010008E70100081F
:10012000E7010008E7010008E7010008E70100080F
:1001300000F002F800F03AF80AA090E8000C8244BF
:100140008344AAF10107DA4501D100F02FF8AFF29C
:10015000090EBAE80F0013F0010F18BFFB1A43F0A5
:10016000010318470012000020120000103A24BFBB
:1001700078C878C1FAD8520724BF30C830C144BF0C
:1001800004680C607047000000230024002500264E
:10019000103A28BF78C1FBD8520728BF30C148BFEA
:1001A0000B6070471FB51FBD10B510BD00F031F8D2
:1001B0001146FFF7F7FF01F05FF800F04FF803B4C6
:1001C000FFF7F2FF03BC00F057F800000948804732
:1001D00009480047FEE7FEE7FEE7FEE7FEE7FEE729
:1001E000FEE7FEE7FEE7FEE704480549054A064B41
:1001F000704700000D100008310100086800002061
:1002000068060020680200206802002070477047DE
:100210007047754600F02CF8AE4605006946534617
:1002200020F00700854618B020B5FFF7DDFFBDE8D8
:1002300020404FF000064FF000074FF000084FF04D
:10024000000B21F00701AC46ACE8C009ACE8C009DE
:10025000ACE8C009ACE8C0098D46704710B504464B
:10026000AFF300802046BDE81040FFF7A8BF0000B4
:10027000004870470400002001491820ABBEFEE78B
:10028000260002007047000030B5044600F016FE5C
:100290003020234D28804FF0D840A0F8804000F057
:1002A0000DFE3120288020124FF0D845A5F880009F
:1002B00000F004FE3420A5F884001948001F0180D6
:1002C00000F0FCFD3520164D288008122D1F2880D7
:1002D00000F0F4FD32204FF0D845A5F88400104816
:1002E000001F028000F0EAFD33200D4D288010121F
:1002F0002D1F288000F0E2FD36204506A5F8840079
:100300000748001F038000F0D9FD3720044D2880E6
:1003100018124FF0D845A5F8800000F0CFFD30BD91
:100320008400006C08B50121802000F0E1FD4FF44D
:100330000060ADF8000003208DF8020010208DF859
:1003400003006946034800F0D3FA012000F008F8E2
:1003500008BD0000001C014010B5FFF7E3FF10BD11
:1003600000F0010119B14FF40061014A11607047BA
:10037000101C014000F0010129B10349096881F412
:100380000061014A116070470C1C014000B597B034
:100390000121080200F09CFD01214FF4F07000F0F3
:1003A000A7FD4CF20370ADF8000018208DF8030093
:1003B00003208DF8020069462C4800F099FA4FF6A8
:1003C0008070ADF800006946294800F091FA4FF2BC
:1003D0003F00ADF800006946264800F089FA3F204A
:1003E000ADF800006946244800F082FA4FF46050EE
:1003F000ADF8000069461D4800F07AFA3020ADF8EB
:1004000000006946194800F073FA4FF48050ADF8C7
:1004100000006946184800F06BFA00200190029035
:10042000032003900020049005900690079006207A
:100430000890002009900A9010200B9000200C904A
:100440000E900F9010904FF4805011900020129059
:100450001390149001A81590169008A800F098F930
:100460000121062000F07AF917B000BD0014014008
:1004700000180140001C01400020014008B5012186
:10048000080200F035FD8020ADF8000048208DF80E
:10049000030003208DF802006946094800F028FA9D
:1004A0004FF40060ADF8000048208DF803000320F1
:1004B0008DF802006946024800F01AFA08BD0000F3
:1004C0000020014010B5FFF7D9FF00F0F7FC8820AD
:1004D000844908800F204FF0D841A1F88000012006
:1004E00000F01FF900F0EAFC89207E490880022014
:1004F0004FF0D841A1F880000A2000F012F900F076
:10050000DDFC1020774908800F204FF0D841A1F87A
:100510008000012000F005F900F0D0FC04207149B2
:10052000088081204FF0D841A1F88000012000F020
:10053000F8F800F0C3FC14206A4908806320091F02
:10054000088000F0BBFC1520664908800020091FC8
:10055000088000F0B3FC1620624908800320091FC0
:10056000088000F0ABFC17205E4908800320091FBB
:10057000088000F0A3FC18205A4908800B204FF097
:10058000D841A1F88000012000F0CBF800F096FCE3
:10059000192054490880DF20091F088000F08EFCD4
:1005A0001A20504908800120091F088000F086FCAD
:1005B0001B204C4908801F20091F088000F07EFC8A
:1005C0001C20484908800020091F088000F076FCA4
:1005D0001D20444908801620091F088000F06EFC89
:1005E0001E20404908800020091F088000F066FC9A
:1005F0001F203C49088001204FF0D841A1F880001D
:1006000000F08FF800F05AFC3020364908800020B6
:10061000091F088000F052FC312032490880002078
:10062000091F088000F04AFC34202E4908801F2052
:10063000091F088000F042FC35202A490880032069
:100640004FF0D841A1F88000012000F06AF800F0D6
:1006500035FC3220234908800020091F088000F063
:100660002DFC33201F4908800020091F088000F05E
:1006700025FC36201B490880DF20091F088000F078
:100680001DFC37201749088001204FF0D841A1F800
:10069000800000F046F840F2DF13002240F21F31E4
:1006A0001046FFF7F1FD00F021F84CF69A6000F0DB
:1006B00053FD4CF69A6000F0D9FC00F0E1FA00F02E
:1006C0003DF8182000F02CFD042000F037FD352007
:1006D00000F0F4FC00F000FD00F010FD00F0BEFAA8
:1006E00010BD00008400006C00BFFEE700B500F004
:1006F000E5FB8E20064A108000F00AFC014641F01E
:1007000040014FF0D840A0F8801000F0D7FB00BDAA
:100710008400006C704700BF011EA0F10100FBD1F6
:10072000704707E042F63D0100BF0A1EA1F101013A
:10073000FBD1401E0028F5D17047000000B500F045
:10074000BDFB01200449088080204FF0D841A1F86A
:10075000800000F0B3FB00BD8400006C51B182004A
:10076000A2F1C042126842F001038200A2F1C0422D
:10077000136009E08200A2F1C0421268034B1A40E4
:100780008300A3F1C0431A6070470000FEFF0F0012
:10079000D0E901121143C268114302691143426951
:1007A000114382691143C2691143026A1143426ACB
:1007B0001143826A1143C26A1143026B11430268FA
:1007C0009200A2F1C0421160816808290BD1016832
:1007D0008900A1F1C041096841F040020168890027
:1007E000A1F1C0410A60416B0968426B526841EA5D
:1007F0000211426B926841EA0221426B928941EAFE
:100800000241426B128A41EA0251426B127D41EA77
:100810000261426B926911430268521C9200A2F17C
:10082000C0421160C16AB1F5804F1BD1816B09686C
:10083000826B526841EA0211826B926841EA02219E
:10084000826B128A41EA0251826B127D41EA026197
:10085000826B9269114302689200A2F1C042C2F811
:10086000041107E06FF0704201688900A1F1C041F6
:10087000C1F804217047000000B5024600F01EFBDD
:100880002A20124B18804FF0D840A0F8802000F0AA
:1008900015FB2B200D4B188010124FF0D843A3F8F6
:1008A000800000F00BFB2C204FF0D843A3F884000D
:1008B0000648001F018000F001FB2D20034B18802B
:1008C00008124FF0D843A3F8800000BD8400006CEC
:1008D00000B500F0F3FA2220044A108040214FF0C6
:1008E000D840A0F8801000F0E9FA00BD8400006C48
:1008F0002DE9F041024600250026002000230024B7
:10090000002791F803C00CF00F0591F803C00CF01C
:10091000100CBCF1000F03D091F802C04CEA0505A1
:1009200091F800C0BCF1000F31D0146800202BE01A
:100930004FF0010C0CFA00F3B1F800C00CEA03060A
:100940009E4220D183004FF00F0C0CFA03F7BC43FA
:1009500005FA03FC4CEA040491F803C0BCF1280F2B
:1009600006D14FF0010C0CFA00FCC2F814C00AE0EA
:1009700091F803C0BCF1480F05D14FF0010C0CFAFF
:1009800000FCC2F810C0401C0828D1D31460B1F894
:1009900000C0BCF1FF0F34DD546800202EE000F1F0
:1009A000080C4FF0010808FA0CF3B1F800C00CEA8B
:1009B00003069E4221D183004FF00F0C0CFA03F77F
:1009C000BC4305FA03FC4CEA040491F803C0BCF1F3
:1009D000280F05D100F1080C08FA0CF8C2F81480B1
:1009E00091F803C0BCF1480F07D100F1080C4FF09B
:1009F000010808FA0CF8C2F81080401C0828CED371
:100A00005460BDE8F081000030B5044600F056FAAD
:100A10009120244D28804FF0D840A0F8804000F06D
:100A20004DFA9220288020124FF0D845A5F880007A
:100A300000F044FA9520A5F884001A48001F0180B0
:100A400000F03CFA9620174D288008122D1F2880B0
:100A500000F034FA93204FF0D845A5F884001148EF
:100A6000001F028000F02AFA94200E4D28801012F8
:100A70002D1F288000F022FA97204FF0D845A5F8C6
:100A800084000848001F038000F018FA9820054DE4
:100A9000288018124FF0D845A5F8800000F00EFA13
:100AA00030BD00008400006C00B500F007FA402063
:100AB000064A108000F02CFA014601F07F01002167
:100AC0004FF0D840A0F8801000BD00008400006CFA
:100AD00000BFFEE710B50446204600F077FB40F269
:100AE000DF13002240F21F311046FFF78DFF00F0A8
:100AF000E5F9902004490880B0204FF0D841A1F8D2
:100B0000800000F0DBF910BD8400006C2DE9F04797
:100B100006460C4615461F46DDE90898404600F09B
:100B200055FB3B46224629463046FFF76DFF00F055
:100B3000C5F9902008490880B9F1000F03D0B02012
:100B4000091F088003E090200349091F088000F076
:100B5000B5F9BDE8F08700008400006C2DE9F0478E
:100B600004460E4617469846DDF820A0002519E0F9
:100B7000781981B2304600F053FB00F09FF9022053
:100B80000A4908804FF0000908E034F8020B0749D1
:100B9000091F088009F101001FFA80F9C145F4DB43
:100BA000681C85B25545E3DBBDE8F0878400006C26
:100BB0002DE9F04106460C4615461F46DDF8188023
:100BC000404600F003FB3B46224629463046FFF7ED
:100BD0001BFF00F073F990200549088080204FF03A
:100BE000D841A1F8800000F069F9BDE8F08100006B
:100BF0008400006C2DE9F05F04460E4617469846C7
:100C0000DDE90AAB0025B1461EE0FFF761FE404674
:100C100000F0A2FA39464846FFF72EFE00F0C4FA6B
:100C200000F04CF902200B490880605D4FF0D8417C
:100C3000A1F88000681CC5B209F108001FFA80F90C
:100C4000FFF732FF00F03AF9605D0028DDD1BDE822
:100C5000F09F00008400006C00BFFEE700B500F0CC
:100C60002DF94020054A108000F052F9014601F0AC
:100C7000FD014FF0D840A0F8801000BD8400006C4A
:100C800000B500F01BF98E20064A108000F040F9F4
:100C9000014641F080014FF0D840A0F8801000F0EC
:100CA0000DF900BD8400006C7047704770B50125D8
:100CB000164E35704625164E35804FF0D845A5F8AE
:100CC0008000472535800512361F358048254FF0B6
:100CD000D846A6F884500E4D2D1F298049250C4E6C
:100CE00035800D12361F35800225361D35800024D3
:100CF00004E0074D2D1F2B80651CACB2151A6D1C2E
:100D0000A542F6DC0025014E357070BD00000020C4
:100D10008400006C70B514460125284E35704625B8
:100D2000274E35804FF0D845A5F8800047253580FF
:100D30000512361F358048254FF0D846A6F8845056
:100D40001F4D2D1F298049251D4E35800D124FF056
:100D5000D846A6F88050012228E00225184E35809A
:100D60004FF0D845A5F8803046254FF0D846A6F874
:100D70008450134D2D1F28804725114E35800512B4
:100D8000361F358048254FF0D846A6F884508D1878
:100D90000B4E361F358049254FF0D846A6F88450B3
:100DA0008D182D12A6F88050551CAAB2651A6D1C1C
:100DB0009542D2DA0025014E357070BD000000204A
:100DC0008400006C10B502460123164C23704A23A0
:100DD000154C23804FF0D843A3F880204B23238069
:100DE0001312241F23804C234FF0D844A4F88430DE
:100DF0000D4B1B1F19804D230B4C23800B12241FFE
:100E0000238002234FF0D844A4F88430064B1B1FE4
:100E1000188818882346B3F880000023014C2370FB
:100E200010BD0000000000208400006C10B50123FC
:100E3000134C23704623134C23804FF0D843A3F860
:100E40008000472323800312241F238048234FF070
:100E5000D844A4F884300B4B1B1F19804923094C3C
:100E600023800B12241F238002234FF0D844A4F8C0
:100E70008430044B1B1F1A800023014C237010BDCB
:100E8000000000208400006C2DE9FC4104460D4662
:100E900016461F46DDF820800120074908703B46B2
:100EA00032462946CDE900082046FFF72FFE0020F4
:100EB00001490870BDE8FC810000002000BF034824
:100EC000806800F400600028F9D0704700200140DD
:100ED00029B1064A52690243044B5A6104E0034AAD
:100EE00052698243014B5A61704700000010024072
:100EF00029B1064A92690243044B9A6104E0034A0D
:100F000092698243014B9A617047000000100240D1
:100F100001480088C0B270478000006C704710B56F
:100F200000F002F810BD00000CB500200190009008
:100F30003348006840F480303149086000BF3048D1
:100F4000006800F4003000900198401C0190009867
:100F500018B90198B0F5A06FF1D12948006800F4E4
:100F6000003010B10120009001E0002000900098B6
:100F7000012843D12348006840F01000214908604F
:100F80000846006820F0030008600846006840F04A
:100F9000020008601A4840681949486008464068DD
:100FA00048600846406840F48060486008464068F1
:100FB00020F47C1048600846406840F4E81048601F
:100FC0000846006840F08070086000BF0C48006868
:100FD00000F000700028F9D00948406820F00300B4
:100FE000074948600846406840F00200486000BF7A
:100FF0000348406800F00C000828F9D10CBD00003F
:1010000000100240002002407047000010B5134855
:10101000006840F001001149086008464068104926
:1010200008400E494860084600680E4908400B49D0
:1010300008600846006820F4802008600846406880
:1010400020F4FE0048604FF41F008860FFF767FF40
:101050004FF000600449086010BD0000001002401D
:101060000000FFF8FFFFF6FE08ED00E000B50146C6
:10107000FFF724FF6020104A108001F01F004FF09E
:10108000D842A2F88000FFF719FF61200A4A1080B9
:10109000C1F345104FF0D842A2F88000FFF70EFFD1
:1010A0006220054A1080C80A4FF0D842A2F880009A
:1010B000FFF704FF00BD00008400006C00B501468E
:1010C000FFF7FCFE4420034A10804FF0D840A0F800
:1010D000801000BD8400006C00B5FFF7EFFE4020DB
:1010E000054A1080FFF714FF014641F020014FF040
:1010F000D840A0F8801000BD8400006C00B5FFF758
:10110000DDFE4020054A1080FFF702FF014601F096
:101110008F014FF0D840A0F8801000BD8400006C13
:1011200000B50146FFF7CAFE4E20034A10804FF07B
:10113000D840A0F8801000BD8400006C00B50146C6
:10114000FFF7BCFE4F20034A10804FF0D840A0F8B4
:10115000801000BD8400006C00B50146FFF7AEFEB4
:101160006320104A108001F01F004FF0D842A2F80F
:101170008000FFF7A3FE64200A4A1080C1F34510E7
:101180004FF0D842A2F88000FFF798FE6520054A8C
:101190001080C80A4FF0D842A2F88000FFF78EFEF8
:1011A00000BD00008400006C00B5FFF787FE402002
:1011B000054A1080FFF7ACFE014641F080014FF078
:1011C000D840A0F8801000BD8400006C00B5014636
:1011D000FFF774FE6320104A1080C80A4FF0D8420F
:1011E000A2F88000FFF76AFE64200B4A1080C1F36A
:1011F00045104FF0D842A2F88000FFF75FFE65204F
:10120000054A108001F01F004FF0D842A2F880007C
:10121000FFF754FE00BD00008400006C00BFFEE735
:1012200000B50246FFF74AFE4620124B18804FF0E9
:10123000D840A0F88020FFF741FE47200D4B1880D2
:1012400010124FF0D843A3F88000FFF737FE482074
:101250004FF0D843A3F884000648001F0180FFF731
:101260002DFE4920034B188008124FF0D843A3F8F5
:10127000800000BD8400006C1CB5FFF76DF8FFF71F
:1012800085F8FFF71FF94FF6FF70FFF723FC0023E7
:101290004FF44872F0211846FFF708FD00234FF481
:1012A000F07219464FF4C870FFF734FDF0204FF488
:1012B000C8730022114600902648FFF74FFC002516
:1012C00013E000240DE021462846FFF77BFD06468B
:1012D00004F1F00081B232462846FFF7A7FD601CFA
:1012E00084B2F02CEFDB681C85B2B5F5C87FE8DB73
:1012F00000200090B42340F226223C2101904FF4BC
:10130000E170FFF703FC0020B42340F2EE223C2101
:10131000009040F28A20FFF7B7FD00204FF6FF71E2
:101320000346F022CDE900104FF4C8710AA0FFF780
:1013300061FC0020F0234FF44872590000905010D7
:10134000FFF736FC05E00120FFF714F80448FFF72B
:10135000E2F9F8E700F00008436C656172000000F4
:10136000FFFF4F0000DE0308000000200400000023
:101370006C01000804DE030804000020640600007D
:1013800088010008000000000000000000000000CC
:10139000000000000000000000000000000000004D
:1013A000000000000000000000000000000000003D
:1013B000000000000000000000000000000000002D
:1013C000000000000000000000000000000000001D
:020000040801F1
:10330000FFFFFFFFFFFFFFFFFFFFFFFFFFFFDFFFED
:10331000DFFFFFFFFFFFFFFFFFFFFFFFFFFFFFFFDD
:10332000FFFFFFFFFFFFFFFFFFFFFFFFFFFFDFFFCD
:10333000DFFFDFFFDFFFDFFFDFFFFFFFFFFFFFFF3D
:10334000FFFFFFFFFFFFFFFFDFFFDFFFDFFFDFFF0D
:10335000DFFFDFFFDFFFDFFFDFF7DFF7DFFFDFFF8D
:10336000DFFFDFF7BEF7BEF7BEF7BEF79EF79EF7AB
:10337000BEF7BEF79EF79EEF7EEF7DEF5DEF7DEF30
:103380007DEF5DEF5DE73CE73CE71CDF1CDF1CE702
:10339000FCDEDBD6BBD6BAD67ACE7ACE9ACE79C64A
:1033A00039C638C6F8BDF8BDF8BDD7BDB6B596B5B7
:1033B00076AD76AD75AD55A514A5F49CD39CF39C64
:1033C000D3949394728C528C31843084107CEF7B34
:1033D000CF738E731084F394F7BD5DE7FFFFFFFF9B
:1033E000FFFFFFFFFFFFFFFFFFFFFFFFFFFFFFFFED
:1033F000FFFFFFFFFFFFFFFFFFFFFFFFFFFFFFFFDD
:10340000FFFFFFFFFFFFFFFFFFFFFFFFFFFFFFFFCC
:10341000FFFFFFFFFFFFFFFFFFFFFFFFFFFFFFFFBC
:10361000FFFFFFFFFFFFFFFFFFFFFFFFFFFFDFFFDA
:103620001CDFB6B5B294518C318C308C3084318C27
:10363000308C518C518C718C718C518C518C718C63
:10364000728C728C729472947294728C728C518C93
:10365000718C728C928C728C728C92949294718C0C
:10366000718C528C518C318C3084318451843184F2
:10367000308410841084F083F083F083F07BEF7B40
:10368000CF7BCF7BCF7BAF7BAE73AE738E6B6E6B1E
:103690006D6B6D6B6D736E736D6B4D6B2D6B2D6301
:1036A0002C632C6B2C6B2C632C630C63EC62EC6234
:1036B000EC62EB62CB62CB5ACB62CB5ACA5ACB5A82
:1036C000AA5AAA5AAA5AAA5A8A528A528A52AA5A52
:1036D000AA5AAA5A89526952494A4952494A284A19
:1036E000284A084A08420742E74107420742074280
:1036F000E741284A284A484AAA522C6314A57DEF7C
:10370000FFFFFFFFFFFFFFFFFFFFFFFFFFFFFFFFC9
:10371000FFFFFFFFFFFFFFFFFFFFFFFFFFFFFFFFB9
:10372000FFFFFFFFFFFFFFFFFFFFFFFFFFFFFFFFA9
:10373000FFFFFFFFFFFFFFFFFFFFFFFFFFFFFFFF99
:10393000FFFFFFFFFFFFFFFFFFFFFFFF5DEF718C4A
:103940000B638952284AE741E741E741E741074ACB
:10395000E749074A074A0742074A074A084A284AE6
:10396000284A284A284A284A284A484A4952495255
:10397000695269526A52695269526952685269526F
:10398000495249524952484A484A284A484A484AAC
:10399000484A48524952495249524852495269523A
:1039A0004852495249526952485249524952484A2A
:1039B000484A484A69524852485269524852485205
:1039C00048524952495269526952895289528A5A17
:1039D000AA5AAA5AEB62EB620C630B63EB62CB62EE
:1039E000AA5AAA5AAA5AAA5AAA5ACB5AEB62EB6204
:1039F000EB62EB62CA5A8952484A4852284A284A1E
:103A0000284A284A284A284A485248526952685245
:103A10006852EB626952A6396539E741AB5A6D6B62
:103A2000FCDEFFFFFFFFFFFFFFFFFFFFFFFFFFFFCA
:103A3000FFFFFFFFFFFFFFFFFFFFFFFFFFFFFFFF96
:103A4000FFFFFFFFFFFFFFFFFFFFFFFFFFFFFFFF86
:103A5000FFFFFFFFFFFFFFFFFFFFFFFFFFFFFFFF76
:103A6000FFFFFFFFFFFFFFFFFFFFFFFFFFFFFFFF66
:103A7000FFFFFFFFFFFFFFFFFFFFFFFFFFFFFFFF56
:103A8000FFFFFFFFFFFFFFFFFFFFFFFFFFFFFFFF46
:103A9000FFFFFFFFFFFFFFFFFFFFFFFFFFFFFFFF36
:103AA000FFFFFFFFFFFFFFFFFFFFFFFFFFFFFFFF26
:103AB000FFFFFFFFFFFFFFFFFFFFFFFFFFFFFFFF16
:103AC000FFFFFFFFFFFFFFFFFFFFFFFFFFFFFFFF06
:103AD000FFFFFFFFFFFFFFFFFFFFFFFFFFFFFFFFF6
:103AE000FFFFFFFFFFFFFFFFFFFFFFFFFFFFFFFFE6
:103AF000FFFFFFFFFFFFFFFFFFFFFFFFFFFFFFFFD6
:103B0000FFFFFFFFFFFFFFFFFFFFFFFFFFFFFFFFC5
:103B1000FFFFFFFFFFFFFFFFFFFFFFFFFFFFFFFFB5
:103B2000FFFFFFFFFFFFFFFFFFFFFFFFFFFFFFFFA5
:103B3000FFFFFFFFFFFFFFFFFFFFFFFFFFFFFFFF95
:103B4000FFFFFFFFFFFFFFFFFFFFFFFFFFFFFFFF85
:103B5000FFFFFFFFFFFFFFFFFFFFFFFFFFFFFFFF75
:103B6000FFFFFFFFFFFFFFFFFFFFFFFFFFFFFFFF65
:103B7000FFFFFFFFFFFFFFFFFFFFFFFF9EEF55ADC2
:103B800038CEFFFFFFFFFFFFFFFFFFFFFFFFFFFF3D
:103B9000FFFFFFFFFFFFFFFFFFFFFFFFFFFFFFFF35
:103BA000FFFFFFFFFFFFFFFFFFFFFFFFFFFFFFFF25
:103BB000FFFFFFFFFFFFFFFFFFFFFFFFFFFFFFFF15
:103BC000FFFFFFFFFFFFFFFFFFFFFFFFFFFFFFFF05
:103BD000FFFFFFFFFFFFFFFFFFFFFFFFFFFFFFFFF5
:103BE000FFFFFFFFFFFFFFFFFFFFFFFFFFFFFFFFE5
:103BF000FFFFFFFFFFFFFFFFFFFFFFFFFFFFFFFFD5
:103C0000FFFFFFFFFFFFFFFFFFFFFFFFFFFFFFFFC4
:103C1000FFFFFFFFFFFFFFFFFFFFFFFFFFFFFFFFB4
:103C2000FFFFFFFFFFFFFFFFFFFFFFFFFFFFFFFFA4
:103C3000FFFFFFFFFFFFFFFFFFFFFFFFFFFFFFFF94
:103C4000FFFFFFFFFFFFFFFFFFFFFFFFFFFFFFFF84
:103C5000FFFFFFFFFFFFFFFFFFFFFBDE6D73AA5AB1
:103C6000C6414431A539C641E741E741E741E74153
:103C7000E749E749E749074A074A084A084A284AFC
:103C8000284A485248524852695269526952895AE0
:103C9000895A8A5AAA5AAA5AAA5ACA5ACA5ACA62DD
:103CA000CA62CA62EA62EA62EB62EB620B630B6BA6
:103CB0000B630B6B2B6B0B6B2C6B2C6B2C6B4C6B98
:103CC0004C6B2C6B4C6B4C6B4C6B6D734C736C7303
:103CD0006D736D736D738D736D738D738D738D7364
:103CE0008D7B8D738D73AE7B8E73AE7BAE7BAE7B27
:103CF000AE7BAE7BAE7BCE7BCE7BCE7BCE7BAE7BFC
:103D0000CE7BCE7BAE7BCE7BCE7BCE7BCE7BCE7B8B
:103D1000CE7BCE7BCE7BCE7BCE7BCE7BCE7BCE7B5B
:103D2000CE7BEF83EF7BEF83EF83EF83EF83EF8334
:103D3000EF83EF83EF83CE7B6D73284AA639AA52B7
:103D40000C635DEFFFFFFFFFFFFFFFFFFFFFFFFFC4
:103D5000FFFFFFFFFFFFFFFFFFFFFFFFFFFFFFFF73
:103D6000FFFFFFFFFFFFFFFFFFFFFFFFFFFFFFFF63
:103D7000FFFFFFFFFFFFFFFFFFFFFFFFFFFFFFFF53
:103D8000FFFFFFFFFFFFFFFFFFFFFFFFFFFFFFFF43
:103D9000FFFFFFFFFFFFFFFFFFFFFFFFFFFFFFFF33
:103DA000FFFFFFFFFFFFFFFFFFFFFFFFFFFFFFFF23
:103DB000FFFFFFFFFFFFFFFFFFFFFFFFFFFFFFFF13
:103DC000FFFFFFFFFFFFFFFFFFFFFFFFFFFFFFFF03
:103DD000FFFFFFFFFFFFFFFFFFFFFFFFFFFFFFFFF3
:103DE000FFFFFFFFFFFFFFFFFFFFFFFFFFFFFFFFE3
:103DF000FFFFFFFFFFFFFFFFFFFFFFFFFFFFFFFFD3
:103E0000FFFFFFFFFFFFFFFFFFFFFFFFFFFFFFFFC2
:103E1000FFFFFFFFFFFFFFFFFFFFFFFFFFFFFFFFB2
:103E2000FFFFFFFFFFFFFFFFFFFFFFFFFFFFFFFFA2
:103E3000FFFFFFFFFFFFFFFFFFFFFFFFFFFFFFFF92
:103E4000FFFFFFFFFFFFFFFFFFFFFFFFFFFFFFFF82
:103E5000FFFFFFFFFFFFFFFFFFFFFFFFFFFFFFFF72
:103E6000FFFFFFFFFFFFFFFFFFFFFFFFFFFFFFFF62
:103E7000FFFFFFFFFFFFFFFFFFFFFFFFFFFFFFFF52
:103E8000FFFFFFFFFFFFFFFFFFFFFFFFFFFFFFFF42
:103E9000FFFFFFFFFFFFFFFFFFFFFFFFDBD6AE7B54
:103EA0006C7BFBE67DF79EF7BEF7BEF79EF79DF7AE
:103EB000DEFFDFFFDFFFDFFF5FEF7FEFFFFFFFFFD3
:103EC000FFFFFFFFFFFFFFFFFFFFFFFFFFFFFFFF02
:103ED000FFFFFFFFFFFFFFFFFFFFFFFFFFFFFFFFF2
:103EE000FFFFFFFFFFFFFFFFFFFFFFFFFFFFFFFFE2
:103EF000FFFFFFFFFFFFFFFFFFFFFFFFFFFFFFFFD2
:103F0000FFFFFFFFFFFFFFFFFFFFFFFFFFFFFFFFC1
:103F1000FFFFFFFFFFFFFFFFFFFFFFFFFFFFFFFFB1
:103F2000FFFFFFFFFFFFFFFFFFFFFFFFFFFFFFFFA1
:103F3000FFFFFFFFFFFFFFFFFFFFFFFFFFFFFFFF91
:103F4000FFFFFFFFFFFFFFFFFFFFFFFFFFFFFFFF81
:103F5000FFFFFFFFFFFFFFFFFFFFFFFFFFFFFFFF71
:103F6000FFFFFFFFFFFFFFFFFFFFFFFFFFFFFFFF61
:103F7000FFFFFFFFFFFFFFFFDFFFEF83AA5A853937
:103F8000C641EB624C6B6C734C6B4C736D734C7332
:103F90006D736D736C736D736D736D738D738D73E2
:103FA0008D738D7B8D73AE7BAE7BAE7BAE7BAE7B3C
:103FB000AE7BCE7BAE7BAE7BCE7BAE7BAE7BCE7B59
:103FC000AE7BAE7BAE7BAE7BAE7BAE7BAE7BAE7BA9
:103FD000AE7BAE7BCE7BAE7BCE7BCE7BCE7BCE7BF9
:103FE000CE7BCE7BCE7BCE7BCE7BCE7BCE7BCE7B89
:103FF000CE7BCE7BCE7BCE7BCE7BCF83CE7BCE7B70
:10400000CF7BCE7BCE7BCE7BCE7BCE7BCE7BCE7B67
:10401000CE7BCE7BCE7BCE7BCE7BCE7BCE7BAE7B78
:10402000CE7BCE7BCE7BCE7BAE7BAE7BCE7BAE7BA8
:10403000AE7BCE7BAE7BCE7BAE7BAE7BCE7BAE7BD8
:10404000AE7BCE7BAE7BCE7BCE7BCE7BCE7BCE7B68
:10405000CE7BCE7BCE7BCE7BEF830F846952084232
:10406000AA52728CFFFFFFFFFFFFFFFFFFFFFFFF62
:10407000FFFFFFFFFFFFFFFFFFFFFFFFFFFFFFFF50
:10408000FFFFFFFFFFFFFFFFFFFFFFFFFFFFFFFF40
:10409000FFFFFFFFFFFFFFFFFFFFFFFFFFFFFFFF30
:1040A000FFFFFFFFFFFFFFFFFFFFFFFFFFFFFFFF20
:1040B000FFFFFFFFFFFFFFFFFFFFFFFFFFFFFFFF10
:1040C000FFFFFFFFFFFFFFFFFFFFFFFFFFFFFFFF00
:1040D000FFFFFFFFFFFFFFFFFFFFFFFFFFFFFFFFF0
:1040E000FFFFFFFFFFFFFFFFFFFFFFFFFFFFFFFFE0
:1040F000FFFFFFFFFFFFFFFFFFFFFFFFFFFFFFFFD0
:10410000FFFFFFFFFFFFFFFFFFFFFFFFFFFFFFFFBF
:10411000FFFFFFFFFFFFFFFFFFFFFFFFFFFFFFFFAF
:10412000FFFFFFFFFFFFFFFFFFFFFFFFFFFFFFFF9F
:10413000FFFFFFFFFFFFFFFFFFFFFFFFFFFFFFFF8F
:10414000FFFFFFFFFFFFFFFFFFFFFFFFFFFFFFFF7F
:10415000FFFFFFFFFFFFFFFFFFFFFFFFFFFFFFFF6F
:10416000FFFFFFFFFFFFFFFFFFFFFFFFFFFFFFFF5F
:10417000FFFFFFFFFFFFFFFFFFFFFFFFFFFFFFFF4F
:10418000FFFFFFFFFFFFFFFFFFFFFFFFFFFFFFFF3F
:10419000FFFFFFFFFFFFFFFFFFFFFFFFFFFFFFFF2F
:1041A000FFFFFFFFFFFFFFFFFFFFFFFFFFFFFFFF1F
:1041B000FFFFFFFFFFFFFFFFFFFFFFFF3CE7B6BD75
:1041C000685AA96AEA6A0B730C734C7B2C73A96258
:1041D000AC8BEC9B8EAC1ABE3895DAADD5CDF0BC6D
:1041E000D0BC12C532C552C593C5B3CDB4CDD4CD64
:1041F000F5CD15D616D656D657D657D677D698DEDD
:10420000D9E6FAE61BEF3BEF3BEF3CEFBADEB9DE57
:10421000FAE6FBE61BE73BEF3BEF3BEF5CEF5CEFC7
:104220005CEF7CF7BFF71FDF3EE7DEFFDFFFDFFF5E
:10423000DFFFFFFFFFFFFFFFFFFFFFFFFFFFFFFFAE
:10424000FFFFFFFF3DEF3CE75DEF5DEF5DEF7DEFD3
:104250007EEF9EF79EF79EF79EF79EF7FFFFFFFF0C
:10426000FFFFFFFFFFFFDFFFDFFFDFFFDFFFFFFFDE
:10427000FFFFFFFFFFFFFFFFFFFFFFFFFFFFFFFF4E
:10428000FFFFFFFFFFFFFFFFFFFFFFFFFFFFFFFF3E
:10429000FFFFFFFFFFFFFFFF59CEEB62284A074AEF
:1042A0006C734C6B2C6B4C6B2C6B4C6B4C6B2C6B8E
:1042B0004C6B4C6B4C6B4C734C6B4C736D734C7305
:1042C0006D736D736D738D738D738D738D738D734E
:1042D0008D738D7B8D738D738D7B8D738D7B8D73C6
:1042E0008D738D7B8D738D738D7B8D738D738D7BB6
:1042F0008D73AD7BAE7B8D7BAE7BAE7BAE7BAE7BC1
:10430000AE7BAE7BAE7BAE7BAE7BAE7BAE7BCE7B45
:10431000CE7BAE7BCE7BAE7BCE7BCE7BAE7BCE7BB5
:10432000CE7BAE7BCE7BCE7BCE7BCE7BAE7BCE7B85
:10433000CE7BAE7BCE7BCE7BAE7BCE7BAE7BAE7BB5
:10434000CE7BAE7BAE7BCE7BAE7BAE7BAE7BAE7BE5
:10435000AE7BAE7BAE7BAE7BAE7BAE7BAE7BAE7B15
:10436000AE7BAE7BAE7BCE7BCE7BAE7BCE7BCE7B85
:10437000CE7BCE7BCE7BCE7BCE7BCF7BAE7B074214
:10438000AA52AA525DEFFFFFFFFFFFFFDFFFDFFF33
:10439000DFFFDFFFDFFFFFFFFFFFFFFFFFFFFFFF8D
:1043A000FFFFFFFFFFFFFFFFFFFFFFFFFFFFFFFF1D
:1043B000FFFFFFFFFFFFFFFFFFFFDFFFFFFFFFFF2D
:1043C000FFFFFFFFDFFFFFFFFFFFFFFFFFFFFFFF1D
:1043D000FFFFFFFFFFFFFFFFFFFFFFFFFFFFFFFFED
:1043E000FFFFFFFFFFFFFFFFFFFFFFFFFFFFFFFFDD
:1043F000FFFFFFFFFFFFFFFFFFFFFFFFFFFFFFFFCD
:10440000FFFFFFFFFFFFFFFFFFFFFFFFFFFFFFFFBC
:10441000FFFFFFFFFFFFFFFFFFFFFFFFFFFFFFFFAC
:10442000FFFFFFFFFFFFFFFFFFFFFFFFFFFFFFFF9C
:10443000FFFFFFFFFFFFFFFFFFFFFFFFFFFFFFFF8C
:10444000FFFFFFFFFFFFFFFFFFFFFFFFFFFFFFFF7C
:10445000FFFFFFFFFFFFFFFFFFFFFFFFFFFFFFFF6C
:10446000FFFFFFFFFFFFFFFFFFFFFFFFFFFFFFFF5C
:10447000FFFFFFFFFFFFFFFFFFFFFFFFFFFFFFFF4C
:10448000FFFFFFFFFFFFFFFFFFFFFFFFFFFFFFFF3C
:10449000FFFFFFFFFFFFFFFFFFFFFFFFFFFFFFFF2C
:1044A000FFFFFFFFFFFFFFFFFFFFFFFFFFFFFFFF1C
:1044B000FFFFFFFFFFFFFFFFFFFFFFFFFFFFFFFF0C
:1044C000FFFFFFFFFFFFFFFFFFFFFFFFFFFFFFFFFC
:1044D000FFFFFFFFFFFFFFFFFFFFDFFFBBD6718C7A
:1044E000854185414439C551065A265A27622B7B9E
:1044F000E97ACB9B0D9C1895F88C9AA553BD479BE8
:10450000069B479B68A388A3679B879B879B689BA9
:10451000689B689B679B889B889B679B889B889B05
:10452000889B899B899B699B899BAA9BA9A389A33B
:1045300088A388A3A8A3A8A3C8A3A9A3A9A3CAA31F
:10454000CAA3D0B4FBB5D78C99AD53BDCFB48FAC53
:104550004EAC73C531BDAEACCFB4F0B4F0B411BD48
:1045600031BD11BDE6492431E749E7492852094ADE
:10457000294A2852695A695AC741896295BDF6CDC0
:1045800016CE16CE53B5EB620B6B4D736D738E73F7
:104590008E7B8E7BAF7BCF83AF7BCF83CF7BAE7B9E
:1045A000AF7BAF7BAF7BAF7B8E7B71943BE75CEFE8
:1045B0003CEF3BEF1BE71BE7919CAA5A284A0B6B89
:1045C0004C6B2C6B2C6B2C6B4C6B4C6B4C6B4C6B93
:1045D0004C6B4C6B4C6B4C734C734C736C736D73BA
:1045E0006D736D736D736D738D738D738D738D734B
:1045F0008D738D738D738D738D738D738D738D73BB
:104600008D738D738D738D738D738D738D738D73AA
:104610008D738D738D738D738D7BAE7BAE7BAE7B17
:10462000AE7BAE7BAE7BAE7BAE7BAE7BAE7BAE7B42
:10463000AE7BAE7BAE7BAE7BAE7BCE7BCE7BCE7BD2
:10464000CE7BCE7BCE7BCE7BCE7BCE7BCE7BAE7B42
:10465000CE7BAE7BAE7BAE7BAE7BAE7BAE7BAE7BF2
:10466000AE7BAE7BAE7BAE7BAE7BAE7BAE7BAE7B02
:10467000AE7BAE7BAE7BAE7BAE7BAE7BAE7BAE7BF2
:10468000AE7BAE7BAE7BAE7BAE7BAE7BCE7BCE7BA2
:10469000CE7BCE7BCE7BCE7BCE7BCE7BCF7B284AA8
:1046A00069526952D7BD5DE73CE71CDFFBDEFBDEEC
:1046B000FBDEFBDEFBDEFBDEFBDEFBDEDBD6DBD682
:1046C000DBD6BAD6BAD6BAD69AD69ACE9ACE9ACEE1
:1046D00079CE79CE79CE59C659C659C658C659C66B
:1046E00038C638C638BE79CEFBD6FBD6FBDEDBD665
:1046F000BAD69ACEBAD6BBD69ACEBBD6FFFFFFFFAC
:10470000FFFFFFFFFFFFFFFFFFFFFFFFFFFFFFFFB9
:10471000FFFFFFFFFFFFFFFFFFFFFFFFFFFFFFFFA9
:10472000FFFFFFFFFFFFFFFFFFFFFFFFFFFFFFFF99
:10473000FFFFFFFFFFFFFFFFFFFFFFFFFFFFFFFF89
:10474000FFFFFFFFFFFFFFFFFFFFFFFFFFFFFFFF79
:10475000FFFFFFFFFFFFFFFFFFFFFFFFFFFFFFFF69
:10476000FFFFFFFFFFFFFFFFFFFFFFFFFFFFFFFF59
:10477000FFFFFFFFFFFFFFFFFFFFFFFFFFFFFFFF49
:10478000FFFFFFFFFFFFFFFFFFFFFFFFFFFFFFFF39
:10479000FFFFFFFFFFFFFFFFFFFFFFFFFFFFFFFF29
:1047A000FFFFFFFFFFFFFFFFFFFFFFFFFFFFFFFF19
:1047B000FFFFFFFFFFFFFFFFFFFFFFFFFFFFFFFF09
:1047C000FFFFFFFFFFFFFFFFFFFFFFFFFFFFFFFFF9
:1047D000FFFFFFFFFFFFFFFFFFFFFFFFFFFFFFFFE9
:1047E000FFFFFFFFFFFFFFFFFFFFFFFFFFFFFFFFD9
:1047F000FFFFFFFFFFFFFFFFFFFFBEF7F9BD728462
:1048000085398118A2202331634183418441265296
:10481000265ACB9B4893538CB68CF5A4C9A386A388
:10482000E7ABE7ABE7AB08B4E8ABE8ABE8AB0AACA7
:104830000AACEAABE9A3889B479B689B27938893C4
:104840006993489328930893E78AE68A059305932A
:10485000A7A309B4E7ABE7AB07ACE8ABE8ABC8A3E9
:10486000469BD2B4F88C389DBAADD0B48893699386
:10487000689BAFB4CA9B47934BAC268BC68A079301
:1048800007930783A12000000329C32024290429BA
:10489000042924290329E32820104339466A088380
:1048A0000883498BC872A220A22086394531453140
:1048B000663145314531863986398639A73925290A
:1048C00025316639242945318220C6498B838B8B5B
:1048D000AB8BAB8B8B8B8B8B0B73A95A69522C6B6D
:1048E0004C6B4C6B2C6B4C6B4C6B2C6B4C6B4C6B50
:1048F0004C6B4C6B4C6B4C736C734C6B6D736D737E
:104900006D736D736D736D738D736D738D738D7347
:104910006D738D738D738D738D738D738D738D73B7
:104920006D738D738D736D738D738D738D738D73C7
:104930008D738D738D738D738D73AE7B8D73AE7B25
:10494000AE7BAD7BAE7BAE7BAE7BAE7BAE7BAE7B20
:10495000AE7BAE7BAE7BAE7BAE7BAE7BAE7BAE7B0F
:10496000CE7BAE7BAE7BCE7BAE7BAE7BAE7BAE7BBF
:10497000CE7BAE7BAE7BAE7BAE7BAE7BAE7BAE7BCF
:10498000AE7BAE7BAE7BAE7BAE7BAE7BAE7B8D7308
:10499000AE7BAE7B8D73AE7BAE7B8D73AE7BAE7B21
:1049A0008E7BAE7BAE7BAE7BAE7BAE7BCE7BCE7B9F
:1049B000CE7BCE7BCE7BCE7BCE7BCE7BEF83AA5ACB
:1049C000484A89524D6B518C3084F0831084F083B7
:1049D0000F84EF83EF7BCF7BCE7BAE7BAE73AE736A
:1049E0008E738E738E736D734D6B6D6B4D6B4D6BE4
:1049F0004C6B2C634C632C6B2C6B2C6B2C6B2C63D7
:104A00002C632C630C63107CD394D394B28C928C63
:104A1000718CB294D7B5FBDE79CED29C38C6FFFF3D
:104A2000FFFFFFFFFFFFFFFFFFFFFFFFFFFFFFFF96
:104A3000FFFFFFFFFFFFFFFFFFFFFFFFFFFFFFFF86
:104A4000FFFFFFFFFFFFFFFFFFFFFFFFFFFFFFFF76
:104A5000FFFFFFFFFFFFFFFFFFFFFFFFFFFFFFFF66
:104A6000FFFFFFFFFFFFFFFFFFFFFFFFFFFFFFFF56
:104A7000FFFFFFFFFFFFFFFFFFFFFFFFFFFFFFFF46
:104A8000FFFFFFFFFFFFFFFFFFFFFFFFFFFFFFFF36
:104A9000FFFFFFFFFFFFFFFFFFFFFFFFFFFFFFFF26
:104AA000FFFFFFFFFFFFFFFFFFFFFFFFFFFFFFFF16
:104AB000FFFFFFFFFFFFFFFFFFFFFFFFFFFFFFFF06
:104AC000FFFFFFFFFFFFFFFFFFFFFFFFFFFFFFFFF6
:104AD000FFFFFFFFFFFFFFFFFFFFFFFFFFFFFFFFE6
:104AE000FFFFFFFFFFFFFFFFFFFFFFFFFFFFFFFFD6
:104AF000FFFFFFFFFFFFFFFFFFFFFFFFFFFFFFFFC6
:104B0000FFFFFFFFFFFFFFFFFFFFFFFFFFFFFFFFB5
:104B1000FFFFFFFFFFFFFFFFFFFF5DE7F69C338412
:104B20002429000020086010401020084010A12017
:104B3000A020246A6DB44DAC8A93E58AC38A44A34D
:104B4000A4ABC5B3E5B3E5B327BC07B407BC29BC28
:104B500029BC49BCB2CD36D636D6B9E652BDAB8BF0
:104B6000AB8BED930D944A7B866A068BE48A0493A3
:104B7000A5ABE5ABC4ABE5B3C4ABE5B306B4A6AB3C
:104B8000459BA99BB594D68C91A42693068B4793FD
:104B9000689BAFBC699B689BEFBC889B89A3CAA339
:104BA000689BE682C220A1186439032903292429BD
:104BB000242965314431E328A2206439E551498B29
:104BC00008832983A76AC220E328C741863986392A
:104BD000A639A639863986398639A739C73986393B
:104BE0006639863965318639A220E649297B4983B1
:104BF0006A83498B49834A83E96A895A68522C6BD4
:104C00002C6B4C6B2C6B4C6B4C6B2C6B4C6B4C6B4C
:104C10004C6B4C6B4C6B4C6B4C6B4C6B4C734C6BD4
:104C20004C6B6D736D736D736D736D736D736D73AD
:104C30006D736D736D736D736D736D736D736D7374
:104C40006D736D736D736D736D736D736D736D7364
:104C50006D736D738D738D738D738D738D738D7394
:104C60008D738D738D7B8D738D73AE7B8D7BAE7BE2
:104C7000AE7BAE7BAE7BAE7BAE7BAE7BAE7BAE7BEC
:104C8000AE7BAE7BAE7BCE7BAE7BCE7BCE7BAE7B7C
:104C9000CE7BCE7BCE7BCE7BCE7BCE7BCE7BCE7BCC
:104CA000CE7BCE7BCE7BCE7BCE7BCE7BCE7BCE7BBC
:104CB000CE7BCE7BCE7BCE7BCE7BCE7BCE83CE7BA4
:104CC000CE7BCE7BCE7BEE7BEE83AE7BAE7BAE7BB4
:104CD000AE7BCE7BCE7BCE7BCE7BCE7BEF830B635E
:104CE00007428A528A5A0C630C63EB62EB62EB62F6
:104CF000EB62CA5ACA5AAA528A528A528A526952D4
:104D000069528A526952494A694A494A484A284A74
:104D10002842284A494A694A695289526A526A4A6B
:104D2000694A494A494A494A494A6A528A528A5210
:104D30006A528A52AB5272849EEF17C691949EF7C4
:104D4000FFFFFFFFFFFFFFFFFFFFFFFFFFFFFFFF73
:104D5000FFFFFFFFFFFFFFFFFFFFFFFFFFFFFFFF63
:104D6000FFFFFFFFFFFFFFFFFFFFFFFFFFFFFFFF53
:104D7000FFFFFFFFFFFFFFFFFFFFFFFFFFFFFFFF43
:104D8000FFFFFFFFFFFFFFFFFFFFFFFFFFFFFFFF33
:104D9000FFFFFFFFFFFFFFFFFFFFFFFFFFFFFFFF23
:104DA000FFFFFFFFFFFFFFFFFFFFFFFFFFFFFFFF13
:104DB000FFFFFFFFFFFFFFFFFFFFFFFFFFFFFFFF03
:104DC000FFFFFFFFFFFFFFFFFFFFFFFFFFFFFFFFF3
:104DD000FFFFFFFFFFFFFFFFFFFFFFFFFFFFFFFFE3
:104DE000FFFFFFFFFFFFFFFFFFFFFFFFFFFFFFFFD3
:104DF000FFFFFFFFFFFFFFFFFFFFFFFFFFFFFFFFC3
:104E0000FFFFFFFFFFFFFFFFFFFFFFFFFFFFFFFFB2
:104E1000FFFFFFFFFFFFFFFFFFFFFFFFFFFFFFFFA2
:104E2000FFFFFFFFFFFFFFFFFFFFFFFFFFFFFFFF92
:104E3000FFFFFFFFFFFFFFFFFFFFBBD6DCCE178D9D
:104E4000094ACB622429200823312B7344312008DE
:104E50008C8394C5CAA3689B83828382259B07B4F5
:104E6000A4ABC4B3C3ABC3ABC4B3A3ABA5B364AB74
:104E700063ABA4AB6BBC6DAC72CD57DEBAD60E8CF7
:104E80008C7BAD836B7BA8624B7352BDE58AE48A51
:104E900084A3A4ABC4B3C5B383ABA3ABC4AB85A39A
:104EA000469B47938A9B8A930693889BCAA36893E1
:104EB000889BAFBC078B068B879B889B2793C58AF3
:104EC000899BE77AC120C220E220C2208110A1186C
:104ED0000329E220E220E22023290229A449498B68
:104EE00008832883265A233144314439643164319C
:104EF000643165394431443144298531653965313E
:104F000065396539643165396431C541C86A8A8B50
:104F10004983498329832983C96A885A48522C6B5B
:104F20004C6B2C6B2C6B4C6B2C6B4C6B4C6B2C6B49
:104F3000AE7BEF83EE83EF83EF83EE83EF83EF832C
:104F4000EF83EF83EF83EF83EF83EE83EF83EF83D2
:104F5000EF83EF83EF83EF83EF83EF83EE83EE83C3
:104F6000EE83EE83EE83EF83EF83EF83EF83EF83B4
:104F7000EF83EF83EF83EF830F84EF83EF830F845F
:104F80000F840F840F840F840F840F840F840F8489
:104F9000308C0F840F840F840F8C0F8C0F840F8440
:104FA000108C108C0F8C108C108C108C1084108C2A
:104FB000108C1084108410840F840F840F840F844D
:104FC0000F84EF83EF830F84EF83EF83EF83EF830F
:104FD000EF83EF83EE83EF83EF83EF83EF7BEE7B53
:104FE000EE7BEE7BEE7BEE7BEE7BCE7BAE7BAE7B19
:104FF000AE7BCE7BCE7BCE7BCE7BCE7BEF836D73C9
:10500000C6416952695269528A52AA52AA528A52B8
:10501000695269528A52494A494A494A494A284A80
:10502000494A494A2842284208420842074208425F
:1050300008422842084208422842284228420842A0
:105040000842084228422842294A28420842E841A8
:105050000842084208420842B6ADBEF7D29C99CE3B
:10506000FFFFFFFFFFFFFFFFFFFFFFFFFFFFFFFF50
:10507000FFFFFFFFFFFFFFFFFFFFFFFFFFFFFFFF40
:10508000FFFFFFFFFFFFFFFFFFFFFFFFFFFFFFFF30
:10509000FFFFFFFFFFFFFFFFFFFFFFFFFFFFFFFF20
:1050A000FFFFFFFFFFFFFFFFFFFFFFFFFFFFFFFF10
:1050B000FFFFFFFFFFFFFFFFFFFFFFFFFFFFFFFF00
:1050C000FFFFFFFFFFFFFFFFFFFFFFFFFFFFFFFFF0
:1050D000FFFFFFFFFFFFFFFFFFFFFFFFFFFFFFFFE0
:1050E000FFFFFFFFFFFFFFFFFFFFFFFFFFFFFFFFD0
:1050F000FFFFFFFFFFFFFFFFFFFFFFFFFFFFFFFFC0
:10510000FFFFFFFFFFFFFFFFFFFFFFFFFFFFFFFFAF
:10511000FFFFFFFFFFFFFFFFFFFFFFFFFFFFFFFF9F
:10512000FFFFFFFFFFFFFFFFFFFFFFFFFFFFFFFF8F
:10513000FFFFFFFFFFFFFFFFFFFFFFFFFFFFFFFF7F
:10514000FFFFFFFFFFFFFFFFFFFFFFFFFFFFFFFF6F
:10515000FFFFFFFFFFFFFFFFDFFFFBDE3DDFD6842A
:105160000F635DEF1ABE2208C2204E9C66620000EB
:1051700089620D9C8482C58AA48A4282889BB4CDB0
:10518000AABC82A362A383A363AB83AB84B3CCC466
:10519000ECC485AB039BA38A31C599DE38C6CE83A8
:1051A0008D83AD834B7B675A8C7BD6BD4472A382C3
:1051B00063A3A4AB93CD51C5C4AB83A3A4AB64A339
:1051C00025932693068B068B068BF4CD10BD278B7B
:1051D00068934DACE5822693E58A847A647A637A93
:1051E000899B088300080000200820084008C1208F
:1051F000433160104008401040104010C451E77A1D
:10520000077B277BA341801880188018811880189D
:1052100080188018A1206439853944318118A1187B
:10522000A118A118A118A118A118A11867628A8B4A
:10523000297B29832983297BC96A685A48522C6BA8
:105240004C6B2C6B4C6B4C6B4C6B4C6B4C6B2C6BE6
:105250000F8470947094508C709470947094708CCF
:105260007094708C708C708C708C708C508C508C96
:10527000508C5094508C508C308C508C508C508C66
:10528000508C508C308C308C508C308C308C308CDE
:105290002F8C508C508C308C308C308C2F8C2F8CF1
:1052A0002F8C308430843084308C2F8C308C308C38
:1052B0003084308C308C308C308C308C308C308C16
:1052C000308C308C308C308C308C308C308C308CFE
:1052D000508C308430843084308430843084308406
:1052E00030843084308C308C30843084308430840E
:1052F00030843084508C508C508C508C508C508C1E
:10530000508C508C508C508C508CEF83AE7BAE7B8D
:10531000AE7BCE7BCE7BCE7BCE7BCE7BCE7BAE7B85
:10532000074A685248520742284A494A494A284A85
:10533000284A494A284A2842084207420742284246
:1053400008420842084208420842E741E741E74173
:10535000E7410842084208420842E841E739E73994
:10536000C739C639E739C739C739C739C739C7391E
:10537000E739E741E741E7396D63DFF795BD54ADA4
:10538000FFFFFFFFFFFFFFFFFFFFFFFFFFFFFFFF2D
:10539000FFFFFFFFFFFFFFFFFFFFFFFFFFFFFFFF1D
:1053A000FFFFFFFFFFFFFFFFFFFFFFFFFFFFFFFF0D
:1053B000FFFFFFFFFFFFFFFFFFFFFFFFFFFFFFFFFD
:1053C000FFFFFFFFFFFFFFFFFFFFFFFFFFFFFFFFED
:1053D000FFFFFFFFFFFFFFFFFFFFFFFFFFFFFFFFDD
:1053E000FFFFFFFFFFFFFFFFFFFFFFFFFFFFFFFFCD
:1053F000FFFFFFFFFFFFFFFFFFFFFFFFFFFFFFFFBD
:10540000FFFFFFFFFFFFFFFFFFFFFFFFFFFFFFFFAC
:10541000FFFFFFFFFFFFFFFFFFFFFFFFFFFFFFFF9C
:10542000FFFFFFFFFFFFFFFFFFFFFFFFFFFFFFFF8C
:10543000FFFFFFFFFFFFFFFFFFFFFFFFFFFFFFFF7C
:10544000FFFFFFFFFFFFFFFFFFFFFFFFFFFFFFFF6C
:10545000FFFFFFFFFFFFFFFFFFFFFFFFFFFFFFFF5C
:10546000FFFFFFFFFFFFFFFFFFFFFFFFFFFFFFFF4C
:10547000FFFFFFFFFFFFFFFF7DEF1CDF3DDF5AC691
:10548000D8B5BBD6B79465180000A3518FACA45112
:105490008028E04043826CBC71CD2BB4A99B6A8B01
:1054A0002693C292C292C292E29243A307BCF3B483
:1054B0006FA4EDC4A7A3C48A94C59AD6D7BD2B7395
:1054C0000A734B7B2A73E5498C7BF2A44472C38A2E
:1054D000429B06ACD6CD28934FCD2FC5A4A32493D1
:1054E000058BC58AC68AE68A4A8B1BAD389CF47A3E
:1054F0001583D693D37A9272516A518B9093108B05
:10550000108B51A4CF834C520A290A312A316C39AD
:10551000CD490A31C928A928C928C8280D5A8E7230
:10552000CE7AEE720B52C728E728E728E728E7284B
:10553000E628C528E628683988416839C520C4208E
:10554000C420C420A420A320A320A320AA622A7BD5
:10555000297B097B097B2A7BA962685A48524C6BDC
:105560004C6B4C6B4C6B4C6B4C6B4C6B4C6B4C6B83
:105570000F84919471947194719470949094919417
:105580007194719491949194719491947194719493
:105590009194719491947194919491949194919423
:1055A00091949194719491949194919491949194F3
:1055B00091949194919491949194919491949194C3
:1055C000B1949194B194B194B294B294B294B294CF
:1055D000B294B294D29CD294B294B294D294D29C0B
:1055E000D294B294D29CD29CD29CD29CD29CD29C7B
:1055F000D29CD29CD29CD29CD29CD39CD29CD29C3A
:10560000D29CD29CD29CD29CD29CD29CD29CD39C29
:10561000D39CD29CF39CD29CD29CD29CF39CD39CD6
:10562000D29CD39CF39CD39CF39C508CAE7BAE7BE2
:10563000AE7BCE7BCE7BCE7BCE7BCE7BCE7BEF8319
:10564000484A274A484AE741E741E7410842E741DB
:10565000C739E741E741E739E739C639C639E7399C
:10566000C739E739E739C739C739A639A639A6395D
:105670008631C639C739A639C639A639863185314A
:105680008531653165316531653165318631A639E0
:10569000A639C639E639C639284218BE99D6508C83
:1056A0009EF7FFFFFFFFFFFFFFFFFFFFFFFFFFFF73
:1056B000FFFFFFFFFFFFFFFFFFFFFFFFFFFFFFFFFA
:1056C000FFFFFFFFFFFFFFFFFFFFFFFFFFFFFFFFEA
:1056D000FFFFFFFFFFFFFFFFFFFFFFFFFFFFFFFFDA
:1056E000FFFFFFFFFFFFFFFFFFFFFFFFFFFFFFFFCA
:1056F000FFFFFFFFFFFFFFFFFFFFFFFFFFFFFFFFBA
:10570000FFFFFFFFFFFFFFFFFFFFFFFFFFFFFFFFA9
:10571000FFFFFFFFFFFFFFFFFFFFFFFFFFFFFFFF99
:10572000FFFFFFFFFFFFFFFFFFFFFFFFFFFFFFFF89
:10573000FFFFFFFFFFFFFFFFFFFFFFFFFFFFFFFF79
:10574000FFFFFFFFFFFFFFFFFFFFFFFFFFFFFFFF69
:10575000FFFFFFFFFFFFFFFFFFFFFFFFFFFFFFFF59
:10576000FFFFFFFFFFFFFFFFFFFFFFFFFFFFFFFF49
:10577000FFFFFFFFFFFFFFFFFFFFFFFFFFFFFFFF39
:10578000FFFFFFFFFFFFFFFFFFFFFFFFFFFFFFFF29
:10579000FFFFFFFFFFFFFFFFFBDE57ADF8BD14A5C6
:1057A0007294AF7B8F41A928C130C77A57DEC78278
:1057B000C038C038288BDBDE1DDFB4CD35DE97DE88
:1057C000A7AB44A344A344A344A323A38BC457D6A9
:1057D000699357DEEFBCCAAB58D6D2AC6862A12839
:1057E000C128E228E228C1284F94ED8BE38A639B0D
:1057F000219B68BCB3C509A4F3D571CD84A3449B98
:10580000A482A582E68AE58A12835E623D629D6279
:10581000BC623E945C627B625D943DAD5CB59CBDB8
:105820009BBD19C6BBD61DC63D94FDACBD9C1C6B73
:10583000DB621C8C3D941C941C941C8CFC8BBC8BDC
:105840001B7B1B7B5C7BBC6ABC6A1C731B733B733E
:105850001A733A7B3A731973F86AD86A9762975A3F
:10586000B762775A575236523652975AF972DA72ED
:10587000F272097B097B0A7BA962485269524C6B20
:105880004C6B4C6B2C6B4C6B4C6B4C6B4C732C6B98
:10589000508CD39CD29CB294B294B294D294D294B1
:1058A000D29CD294D29CD29CD29CD29CD294D294A0
:1058B000D294D294D29CD29CD29CD29CD29CD29C88
:1058C000D294D294D294D294D294D29CD29CD29C90
:1058D000D29CD39CD29CD29CD294D29CD29CD39C5E
:1058E000D29CD29CD39CD39CF39CD29CD29CD29C25
:1058F000D39CD29CF39CD29CF39CF39CF39CF39C92
:10590000D29CD29CD39CD39CF39CF39CF29CF39CA2
:10591000F39CF39CD29CD29CD29CD39CD29CF39CB3
:10592000D29CD29CF39CD39CD39CD29CD29CD29CE4
:10593000D29CD29CD29CD29CD39CD39CD39CD29CF4
:10594000D29CD29CD39CD39CF39C718CAE7BAE7BBF
:10595000AE7BAE7BAE7BAE7BCE7BCE7BCE7BEF8356
:10596000AA5AE7414852E7416431653185316531D2
:105970004429442964294429442924290429242127
:1059800024292429252924294429242924290429AE
:105990002429242924210321032104290321E3208C
:1059A000E320E320E320E3200321E3200321242953
:1059B00024296531A531A531C6318E6BDAD67094B4
:1059C000BAD6FFFFFFFFFFFFFFFFFFFFFFFFFFFF55
:1059D000FFFFFFFFFFFFFFFFFFFFFFFFFFFFFFFFD7
:1059E000FFFFFFFFFFFFFFFFFFFFFFFFFFFFFFFFC7
:1059F000FFFFFFFFFFFFFFFFFFFFFFFFFFFFFFFFB7
:105A0000FFFFFFFFFFFFFFFFFFFFFFFFFFFFFFFFA6
:105A1000FFFFFFFFFFFFFFFFFFFFFFFFFFFFFFFF96
:105A2000FFFFFFFFFFFFFFFFFFFFFFFFFFFFFFFF86
:105A3000FFFFFFFFFFFFFFFFFFFFFFFFFFFFFFFF76
:105A4000FFFFFFFFFFFFFFFFFFFFFFFFFFFFFFFF66
:105A5000FFFFFFFFFFFFFFFFFFFFFFFFFFFFFFFF56
:105A6000FFFFFFFFFFFFFFFFFFFFFFFFFFFFFFFF46
:105A7000FFFFFFFFFFFFFFFFFFFFFFFFFFFFFFFF36
:105A8000FFFFFFFFFFFFFFFFFFFFFFFFFFFFFFFF26
:105A9000FFFFFFFFFFFFFFFFFFFFFFFFFFFFFFFF16
:105AA000FFFFFFFFFFFFFFFFFFFFFFFFFFFFFFFF06
:105AB000FFFFFFFFFFFFFFFFDBDEBCDEF6A42E7360
:105AC0006C62E9512B410618A3594051017A017AC1
:105AD00060512049C77A1BB6D694C68A2BB44AB403
:105AE000449B239B239B43A323A3E2A209B472CD2F
:105AF000ADB414DE0AB4A8A3ADBCEB9B866A023138
:105B0000443123310229E128EE8B66620293429BE5
:105B100042A3A4ABAABCC5ABAABC48B4A4AB249B0B
:105B200084828582A582A582D57A995A57527B6252
:105B30001B5A7B62FA517B621C943D949DBD72940A
:105B40002D732D73EC6AB69CFEA49C7B7B5A5B5A2A
:105B5000B8629294B29C929C729C72947294328CB1
:105B6000DA8B3D94FD8BDC72DC6AFD723D94F6832A
:105B7000306B51737173717370737273BA83FA6A95
:105B8000DA62BA62BA62BA5A995A1A6BFB6A9B62B3
:105B9000D76AEA72097B0973885A285248524C6BBB
:105BA0004C6B4C6B4C6B4C734C6B4C6B4C732C6B4D
:105BB000508CD29CB294D29CB29CB294B294B294C7
:105BC000D29CD29CD29CD294D294D294D29CB294A5
:105BD000B294B294D294D29CD29CD294B294B29405
:105BE000B29CD29CB294D294B294D29CD29CD29CBD
:105BF000D294D294D294D29CD29CD294D294D29465
:105C0000D39CD39CD39CD294D29CD29CD29CD29431
:105C1000D29CD29CD39CD39CF39CD39CD39CD29CEF
:105C2000D29CD29CD29CD39CD39CF39CF39CF39C9F
:105C3000D39CD39CD29CD29CD29CD39CD29CD39CF0
:105C4000D39CF39CD39CD39CD29CD29CD29CD29CC0
:105C5000D29CD29CD39CD39CD39CD29CD39CD29CD0
:105C6000D29CD29CD39CD39CF39CB294CE7BAE7B33
:105C7000AE7BAE7BAE7BAE7BCE7BAE7BCE7BCE7B7C
:105C80000B63E741494AC641C220C220C220C2205C
:105C9000A218A118A118A118A118A1188118A1185B
:105CA000A218A218C218C218A218A218A218A218E4
:105CB000A218C218C218A218A11881188110811840
:105CC000A2188110A118A118A1188118A218A21851
:105CD000C218C21803212321A631EC5A559D79CE52
:105CE00038C6FFFFFFFFFFFFFFFFFFFFFFFFFFFFC4
:105CF000FFFFFFFFFFFFFFFFFFFFFFFFFFFFFFFFB4
:105D0000FFFFFFFFFFFFFFFFFFFFFFFFFFFFFFFFA3
:105D1000FFFFFFFFFFFFFFFFFFFFFFFFFFFFFFFF93
:105D2000FFFFFFFFFFFFFFFFFFFFFFFFFFFFFFFF83
:105D3000FFFFFFFFFFFFFFFFFFFFFFFFFFFFFFFF73
:105D4000FFFFFFFFFFFFFFFFFFFFFFFFFFFFFFFF63
:105D5000FFFFFFFFFFFFFFFFFFFFFFFFFFFFFFFF53
:105D6000FFFFFFFFFFFFFFFFFFFFFFFFFFFFFFFF43
:105D7000FFFFFFFFFFFFFFFFFFFFFFFFFFFFFFFF33
:105D8000FFFFFFFFFFFFFFFFFFFFFFFFFFFFFFFF23
:105D9000FFFFFFFFFFFFFFFFFFFFFFFFFFFFFFFF13
:105DA000FFFFFFFFFFFFFFFFFFFFFFFFFFFFFFFF03
:105DB000FFFFFFFFFFFFFFFFFFFFFFFFFFFFFFFFF3
:105DC000FFFFFFFFFFFFFFFFFFFFFFFFFFFFFFFFE3
:105DD000FFFFFFFFFFFFDFFF7DEFBEEF367B3051A0
:105DE00092838D6AEB506940A1596051A069E071BE
:105DF000E069207AEFBCBFF759D6899B6CB4E9A360
:105E0000C38A259B87A387A38DB44BB4CEBC6DB446
:105E1000E58AA8A3C58A848A6282227A246A456AAE
:105E20002E9CED93297B866AE459236A229B42A328
:105E300042A362AB82AB83ABA3AB83AB84AB0393D4
:105E400084828482847A657AB872BC835B733B5A9D
:105E5000BA49BA497B629D837D9C3D945ECE308C6D
:105E60000B730B73CA6AB69CBD837C621B523B5A90
:105E7000B76A8D836C7B4C7B2C7B4C7BAE838F7B9A
:105E80005A7B3D7BFC72BC6ADC6ABC6A5DB5718C76
:105E90000C632C6B2B6B2C6B2B6B6D73DA9CDA6A9F
:105EA0003B73FA6A995A995A99623B73765A745AB3
:105EB000F66AEA7209730973885A074A48524C6BAA
:105EC0004C6B4C6B4C6B4C734C6B4C734C732C6B22
:105ED000508CD39CB294B294B294B294B294B294D3
:105EE000B294D294D294D294B294D294B29CB294FA
:105EF000B294B294B294D294D294D294D294B294F2
:105F0000D29CB29CB294B294B294D294D294D294D1
:105F1000D294D294D294D29CB294B294B294D294A9
:105F2000D29CD29CD294D29CD294D29CB29CD29439
:105F3000D294D294D29CD29CD39CD39CD39CD39CFD
:105F4000D29CD29CD29CD29CD29CD29CD39CD39CDF
:105F5000D39CD39CD39CD29CD29CD29CD29CD29CCE
:105F6000D39CD39CD39CD39CD29CD29CD29CD29CBD
:105F7000D294D29CD29CD39CD39CD39CD39CD39CB4
:105F8000D29CD29CD29CD39CF39CD29CCE7B8D7312
:105F9000AE7BAE7BAE7BAE7BAE7BAE7BAE7BCE7B99
:105FA0006D73E741284AE741C2208118A218A21860
:105FB000A218A218A118A118A218A118A118A11816
:105FC000A118A218A118A118A118A118A118A21807
:105FD000A218C218C218C218A218811081188218FB
:105FE00081108110A118A110A11881108110A21890
:105FF000C218C218E218E320C739EB5A4C639ACE94
:1060000079CE9EF7FFFFFFFFFFFFFFFFFFFFFFFFC0
:10601000FFFFFFFFFFFFFFFFFFFFFFFFFFFFFFFF90
:10602000FFFFFFFFFFFFFFFFFFFFFFFFFFFFFFFF80
:10603000FFFFFFFFFFFFFFFFFFFFFFFFFFFFFFFF70
:10604000FFFFFFFFFFFFFFFFFFFFFFFFFFFFFFFF60
:10605000FFFFFFFFFFFFFFFFFFFFFFFFFFFFFFFF50
:10606000FFFFFFFFFFFFFFFFFFFFFFFFFFFFFFFF40
:10607000FFFFFFFFFFFFFFFFFFFFFFFFFFFFFFFF30
:10608000FFFFFFFFFFFFFFFFFFFFFFFFFFFFFFFF20
:10609000FFFFFFFFFFFFFFFFFFFFFFFFFFFFFFFF10
:1060A000FFFFFFFFFFFFFFFFFFFFFFFFFFFFFFFF00
:1060B000FFFFFFFFFFFFFFFFFFFFFFFFFFFFFFFFF0
:1060C000FFFFFFFFFFFFFFFFFFFFFFFFFFFFFFFFE0
:1060D000FFFFFFFFFFFFFFFFFFFFFFFFFFFFFFFFD0
:1060E000FFFFFFFFFFFFFFFFFFFFFFFFFFFFFFFFC0
:1060F000FFFFFFFFFFFFBEF7DFF7BAD6109C68591E
:10610000A359E461245167698151C0692182418AA0
:10611000618AA192E8B38DBC10BD77DE5DEFFAE62F
:1061200092C572C537D693C552BDEFBCCAA327939B
:10613000848284828482848284826482237A414934
:10614000C030C030E030E0304049C28A43A342A3AF
:1061500062ABA3ABA3AB83A383A383A343A3C38AF1
:106160008482A58AA582877A796A5E947C62FB51D3
:106170001B525B5A7D7B1D8C5D945D9C3DCE0F8CCC
:106180002B730B732B7318A53D7BBC6A5B5A3B5A70
:10619000B56A8D836D836C832B7B4C7B8D838F7B6A
:1061A0003A731C73BB6ABC627B62BC6A7DB5108C9F
:1061B0000C6B0B6B0B6B0B6B0B6B8E7B9A947A5A85
:1061C0005C733B739A5A995A99625B731B73FC72A6
:1061D000B76AE96A09730A738962074A68524C739D
:1061E0004C6B4C6B4C6B4C734C6B4C6B4C734C6BE7
:1061F000508CD29CB294B294B294B294B294B294B1
:10620000D294B294D294D294D294B294B294B294DE
:10621000B294B294D294B294D294D294D294D294AE
:10622000B294B294B294B294B294D294B294D294FE
:10623000D294D294B294B29CB294B29CB294D294BE
:10624000D294D294D294D29CD29CB294B29CB29C5E
:10625000B294D294D29CD29CD29CD29CD39CD29CFD
:10626000D29CD29CB29CD29CD29CD39CD39CD29CDC
:10627000D29CD29CD29CD29CD29CD294D294D294C6
:10628000D294D294D294D294D294B294B294B29C36
:10629000D29CD29CD29CD29CD29CD29CD39CD29C8D
:1062A000D29CD29CD29CD29CF29CD29CEF838D7BC0
:1062B000AE7BAE7BAE7BAE7BAE7BAE7BAE7BAE7B96
:1062C000AE7BE7410742E74103298118A218A218D3
:1062D00081188118A118A118A11881108110A11886
:1062E000A118A118A118A118A118C218A218A118C4
:1062F000A118A118A110A118A1188118811881183E
:1063000081108110A118A110811081108110A1109D
:10631000C218E218C218E32045297184AE7376AD25
:10632000DBDE3CE7FFFFFFFFFFFFFFFFFFFFFFFF9D
:10633000FFFFFFFFFFFFFFFFFFFFFFFFFFFFFFFF6D
:10634000FFFFFFFFFFFFFFFFFFFFFFFFFFFFFFFF5D
:10635000FFFFFFFFFFFFFFFFFFFFFFFFFFFFFFFF4D
:10636000FFFFFFFFFFFFFFFFFFFFFFFFFFFFFFFF3D
:10637000FFFFFFFFFFFFFFFFFFFFFFFFFFFFFFFF2D
:10638000FFFFFFFFFFFFFFFFFFFFFFFFFFFFFFFF1D
:10639000FFFFFFFFFFFFFFFFFFFFFFFFFFFFFFFF0D
:1063A000FFFFFFFFFFFFFFFFFFFFFFFFFFFFFFFFFD
:1063B000FFFFFFFFFFFFFFFFFFFFFFFFFFFFFFFFED
:1063C000FFFFFFFFFFFFFFFFFFFFFFFFFFFFFFFFDD
:1063D000FFFFFFFFFFFFFFFFFFFFFFFFFFFFFFFFCD
:1063E000FFFFFFFFFFFFFFFFFFFFFFFFFFFFFFFFBD
:1063F000FFFFFFFFFFFFFFFFFFFFFFFFFFFFFFFFAD
:10640000FFFFFFFFFFFFFFFFFFFFFFFFFFFFFFFF9C
:10641000FFFFFFFFFFFFBEF7FFFFB5B5E782825921
:10642000C269647A81516151E138605921822282C6
:1064300022822282269B2BAC6DB41BEF5DE75CEFC2
:1064400057D657D698DEB4C5AEACAEB4479B638280
:106450008482848264826482638264826382027240
:10646000A159A159A15981590172C18A029B229B4C
:10647000229B42A343A343A3239B239B039BA38A67
:10648000A48AC58AA482697A7C6A1E8CDC6A7B5ADB
:106490007C62B9493A527C62DD839E9C5CCECE839D
:1064A0002B732B736C7B19A5FD6A7C629C627B62EB
:1064B00014738D836D836D832B734C7B8D7B6F7316
:1064C000FA6AFC6ABB62DB6A9B7B3C737CB5CF7B60
:1064D000EB620B6B0B6B0B6BEA628F7BBB9C5C9470
:1064E000DB83DB6A5852DA62DA623A733D943D7BB1
:1064F0007562C96AE972E9728962074A68524C6B2F
:106500004C6B4C6B4C6B4C734C6B4C6B6C734C6BA3
:10651000508CD29CB294B294B294B294B294B2948D
:10652000D294B294B294D294B294B294B294B294FB
:10653000B294B294D294B294B294B294D294B294EB
:10654000B294B294B294B294B294D294B294B294FB
:10655000D294D294B294B294B294B294B294D294AB
:10656000D294B294D294D294D294B294B29CB29C6B
:10657000B294D294D29CD294D294D29CD29CD294F3
:10658000D29CB29CB29CD29CD29CD39CD39CD294E1
:10659000D29CD29CD29CD294D294D294D294B294D3
:1065A000B294D294B294B294B294B294B294B2949B
:1065B000B294D29CD29CD294D294D29CD29CD29CA3
:1065C000D29CB29CD29CD29CD39CF29C30848D7382
:1065D0008D73AE7BAE7BAE7BAE7BAE7BAE7BAE7B9C
:1065E000CE7B284AC641074A442981188118811860
:1065F0008118811881186110811081108110A118F3
:10660000A118A1188118A118A118A218A118A118E1
:10661000A118A118A110811881188118811881185A
:1066200081108110811081108110811081108110E2
:10663000A110C118A118C218284218B6F39CB29430
:10664000FBDEDBD6FFFFFFFFFFFFFFFFFFFFFFFFCC
:10665000FFFFFFFFFFFFFFFFFFFFFFFFFFFFFFFF4A
:10666000FFFFFFFFFFFFFFFFFFFFFFFFFFFFFFFF3A
:10667000FFFFFFFFFFFFFFFFFFFFFFFFFFFFFFFF2A
:10668000FFFFFFFFFFFFFFFFFFFFFFFFFFFFFFFF1A
:10669000FFFFFFFFFFFFFFFFFFFFFFFFFFFFFFFF0A
:1066A000FFFFFFFFFFFFFFFFFFFFFFFFFFFFFFFFFA
:1066B000FFFFFFFFFFFFFFFFFFFFFFFFFFFFFFFFEA
:1066C000FFFFFFFFFFFFFFFFFFFFFFFFFFFFFFFFDA
:1066D000FFFFFFFFFFFFFFFFFFFFFFFFFFFFFFFFCA
:1066E000FFFFFFFFFFFFFFFFFFFFFFFFFFFFFFFFBA
:1066F000FFFFFFFFFFFFFFFFFFFFFFFFFFFFFFFFAA
:10670000FFFFFFFFFFFFFFFFFFFFFFFFFFFFFFFF99
:10671000FFFFFFFFFFFFFFFFFFFFFFFFFFFFFFFF89
:10672000FFFFFFFFFFFFFFFFFFFFFFFFFFFFFFFF79
:10673000FFFFFFFFFFFFDFF7FFFF78CE32B5ED93DE
:106740008C93E882447A8582447A8C8B91A44DA400
:10675000AEB46DB46DB48DB4EFBCB3CD73C5F5CD2F
:1067600052BDF1B452C552C50FBD2FC5ADBCEAA391
:106770000AA40BA4EAA3EAA3EAA30BACEAA3CAA364
:10678000478B26932693068B069326934693669B08
:10679000669B669B669B87A387A388A387A3679B4B
:1067A000689B889B46930D833D621D5A3C5A9C62B0
:1067B0003C5A1C5A3C5A5C5A9D7B1D8CFAC58D7BF9
:1067C0002B6B0B6B6D739A949C627C627C5A9C62FF
:1067D000547B8C836D834C7B4C7B6C7B8C7B2F6BD5
:1067E000BA62BC62DC6A1CA55CC6FC8B9CB58F7B64
:1067F000EB6AEB62EB62EB6ACA62B07BDCA4DCBDE5
:106800005BADBA62595ABA62DB623B737D943D7BE1
:10681000745AA96AC96AC96A895A274A68526C7344
:106820004C734C6B4C6B4C734C6B4C6B4C734C6B98
:10683000508CD29CB294B294B294B294B294B2946A
:10684000D294B294B294B294B294B294B294B294F8
:10685000B294B294D294B294B294B294B294B294E8
:10686000B294B294B294B294B294D294B294D294B8
:10687000B294B294B294B294B294B294B294D294C8
:10688000D294D294D294D294B294B294B294B29458
:10689000B294D294D29CD294D294D294D29CD294D8
:1068A000D294D29CD294D29CD29CD29CD29CD29490
:1068B000D29CB29CD29CD294B294D294D294B294F0
:1068C000B294B294B294B294B294B294B294B29498
:1068D000D294D29CD29CD29CD29CD29CD29CD29458
:1068E000D29CD29CD29CD29CD29CF39C508C8D7317
:1068F0008D73AE7BAE7BAD7BAE7BAD7BAE7BAE7B7B
:10690000CE7B8952A639E74164318110611081182C
:106910008118811881106010611081108110811020
:10692000811081108110A118A11881108110A1106F
:106930008110A110A118811881188118811881185F
:10694000811081108110611061106110811081101F
:10695000A118A11881108218C73196A558C6929423
:106960009ACEDAD6DFF7FFFFFFFFFFFFFFFFFFFF43
:10697000FFFFFFFFFFFFFFFFFFFFFFFFFFFFFFFF27
:10698000FFFFFFFFFFFFFFFFFFFFFFFFFFFFFFFF17
:10699000FFFFFFFFFFFFFFFFFFFFFFFFFFFFFFFF07
:1069A000FFFFFFFFFFFFFFFFFFFFFFFFFFFFFFFFF7
:1069B000FFFFFFFFFFFFFFFFFFFFFFFFFFFFFFFFE7
:1069C000FFFFFFFFFFFFFFFFFFFFFFFFFFFFFFFFD7
:1069D000FFFFFFFFFFFFFFFFFFFFFFFFFFFFFFFFC7
:1069E000FFFFFFFFFFFFFFFFFFFFFFFFFFFFFFFFB7
:1069F000FFFFFFFFFFFFFFFFFFFFFFFFFFFFFFFFA7
:106A0000FFFFFFFFFFFFFFFFFFFFFFFFFFFFFFFF96
:106A1000FFFFFFFFFFFFFFFFFFFFFFFFFFFFFFFF86
:106A2000FFFFFFFFFFFFFFFFFFFFFFFFFFFFFFFF76
:106A3000FFFFFFFFFFFFFFFFFFFFFFFFFFFFFFFF66
:106A4000FFFFFFFFFFFFFFFFFFFFFFFFFFFFFFFF56
:106A5000FFFFFFFFFFFFBFEF3FBFDE969E8E3E7E34
:106A6000FD758F73C3612051456AFD9DFE8D76A52E
:106A700093C573BDA99B8382A482A482A482C58A84
:106A8000A58AA58AA58AA58AE692E58AC48AE58AA6
:106A90000693279307932793489B899B889BA99BE1
:106AA00067934793279327934793679BA8A3C9A30B
:106AB000A9A3E9AB0AACEAAB0AAC2BAC2BAC4CB447
:106AC0004CAC2BAC2BACB3937D625D627C62FC6AF8
:106AD0007C623C5AFC51BB491B529D7B7A940D52FF
:106AE0000C52EC516F5A1B8C7C625C5A9C629C620B
:106AF00013736C7B4C7B4C7B6D7B6D7B6C73306B51
:106B00007A5A9B62BC6ADB83BB9C7C7BBCBD8E7B60
:106B1000EB6ACB62CB62EB6ACB62D17B5B94DB83AB
:106B20005B739B629B62BB62FB6A1B6B5C73FD6A5F
:106B3000535A8862C96AC96A895A274A68524C738B
:106B40006C734C6B4C6B6C734C6B4C736C732C6B2D
:106B5000308CD294B294B294B294B294B294B2946F
:106B6000B294B294B294B294B294B294B294B294F5
:106B7000B294B294B294B294B294B294B294B294E5
:106B8000B294B294B294B294B294B294B294B294D5
:106B9000B294B294B294B294B294B294B294B294C5
:106BA000D294B294B294B294B294B294B294B29495
:106BB000B294B294D294D294D294B294D294B29425
:106BC000D294D294D294D294D29CB29CD29CD2949D
:106BD000B294B294B294B294B294B294D294B29465
:106BE000B294B294B294B294B294B294B294D29455
:106BF000B294D294D29CD29CD294D294D29CD2946D
:106C0000D29CD294D29CD294D29CF39C91948D73BA
:106C10008D73AE7B8D738D7BAE7B8D738D7B8D7312
:106C2000AE7B0B636531E7418531811861106110DE
:106C30008118611061106110611061106110811084
:106C400081108110811081108110811081108110BC
:106C50008110811081108110811081188118811894
:106C6000811081108110811081108110811081109C
:106C7000A21882108110A218E320107C1CDF34AD12
:106C800017BEFBDE5DE7FFFFFFFFFFFFFFFFFFFF1C
:106C9000FFFFFFFFFFFFFFFFFFFFFFFFFFFFFFFF04
:106CA000FFFFFFFFFFFFFFFFFFFFFFFFFFFFFFFFF4
:106CB000FFFFFFFFFFFFFFFFFFFFFFFFFFFFFFFFE4
:106CC000FFFFFFFFFFFFFFFFFFFFFFFFFFFFFFFFD4
:106CD000FFFFFFFFFFFFFFFFFFFFFFFFFFFFFFFFC4
:106CE000FFFFFFFFFFFFFFFFFFFFFFFFFFFFFFFFB4
:106CF000FFFFFFFFFFFFFFFFFFFFFFFFFFFFFFFFA4
:106D0000FFFFFFFFFFFFFFFFFFFFFFFFFFFFFFFF93
:106D1000FFFFFFFFFFFFFFFFFFFFFFFFFFFFFFFF83
:106D2000FFFFFFFFFFFFFFFFFFFFFFFFFFFFFFFF73
:106D3000FFFFFFFFFFFFFFFFFFFFFFFFFFFFFFFF63
:106D4000FFFFFFFFFFFFFFFFFFFFFFFFFFFFFFFF53
:106D5000FFFFFFFFFFFFFFFFFFFFFFFFFFFFFFFF43
:106D6000FFFFFFFFFFFFFFFFFFFFFFFFFFFFFFFF33
:106D7000FFFFFFFFDFFF5FD75E769C453B3D3B4556
:106D8000BA34E931256AE68A69931CA6D974F49C61
:106D900016D694C5689BA48283828382637A848298
:106DA000A482A48AA58AA58A8482A99BEFBC6EAC22
:106DB0002CAC0BA4CAA3AB9B0CA4CBA34893A4827A
:106DC0008482847A84828482A4828482848284827B
:106DD000A48AC48AE592C58AA482A58AA4828582EF
:106DE0008582447A847A93723E5A3D625C62FD7277
:106DF0007D623C5A7C625B5A7B5ADD837794EF6AF2
:106E00003073EF6AF58B3DADBC6A9C62FD72BC6A63
:106E100031736C7B4C7B4C7B4C7B4D7B4C73316B6F
:106E20007A629B62BC6ABC62BC623D739BB54D7367
:106E30000C6BCB62CB62EB6AAA5AF283BB9C5BAD54
:106E40007C949B627B629B62BB62FB6ABD6ABD6A8B
:106E50001252685AA86AC96A885A074A68526D73FA
:106E60004C734C6B4C6B4C734C6B4C6B4C732C6B72
:106E7000308CD294B294B294B294B294B294B2944C
:106E8000B294B294B294B294B294B294B294B294D2
:106E9000B294B294B294B294B294B294B294B294C2
:106EA000B294B294B294B294B294B294B294B294B2
:106EB000B294B294B294B294B294B294B294B294A2
:106EC000B294B294B294B294B294B294B294B29492
:106ED000B294B294B294B294D294D294D294B29422
:106EE000D294D294B294B294B29CD29CD294B294E2
:106EF000B294B294D294D29CB294B294B294B2941A
:106F0000B294B294B294B294B294B2949294B29471
:106F1000B294D294D294D294D294D29CD294D29459
:106F2000D294D294D294B294D29CD39CB294AE7B9D
:106F30008D738D738D738D738D738D738D738D7351
:106F40008D734C6B6531C6398539C2188110811833
:106F50008110611061106110611061106110611089
:106F600061108110611061108110811081108110F9
:106F70008110811061108110811081188118811099
:106F80008110811081108110611081108110A21870
:106F9000A2188110A218C218C218083ABBCE38C66F
:106FA00075ADFBDEFBDEFFFFFFFFFFFFFFFFFFFF17
:106FB000FFFFFFFFFFFFFFFFFFFFFFFFFFFFFFFFE1
:106FC000FFFFFFFFFFFFFFFFFFFFFFFFFFFFFFFFD1
:106FD000FFFFFFFFFFFFFFFFFFFFFFFFFFFFFFFFC1
:106FE000FFFFFFFFFFFFFFFFFFFFFFFFFFFFFFFFB1
:106FF000FFFFFFFFFFFFFFFFFFFFFFFFFFFFFFFFA1
:10700000FFFFFFFFFFFFFFFFFFFFFFFFFFFFFFFF90
:10701000FFFFFFFFFFFFFFFFFFFFFFFFFFFFFFFF80
:10702000FFFFFFFFFFFFFFFFFFFFFFFFFFFFFFFF70
:10703000FFFFFFFFFFFFFFFFFFFFFFFFFFFFFFFF60
:10704000FFFFFFFFFFFFFFFFFFFFFFFFFFFFFFFF50
:10705000FFFFFFFFFFFFFFFFFFFFFFFFFFFFFFFF40
:10706000FFFFFFFFFFFFFFFFFFFFFFFFFFFFFFFF30
:10707000FFFFFFFFFFFFFFFFFFFFFFFFFFFFFFFF20
:10708000FFFFFFFFFFFFFFFFFFFFFFFFFFFFFFFF10
:10709000FFFFFFFFDFFF1EBF1E661E563F56FE4D61
:1070A000994CC839E469E68A489B16CEF6C56A8BC6
:1070B0008A93EBA30693E58AE48AC48AC48AE48AA5
:1070C000C48AA482A58AA58A638230BDFFFF9FEF90
:1070D0006FA42BAC72C5DFF79EEFF1AC2CA44793E5
:1070E00026930693058B0593058B069306930693CB
:1070F000E592E592A582A58AC58AA582847A857AD9
:107100008582A582E78A566ADE511D5A7C5A9C62A6
:107110001C529C62DD83FD837D7B5EADF4A42C6BF1
:107120004D73EB62D49CBD9CBD6ABC6ABD6ABB6AF0
:10713000106B0B6B0B730B730B730C730B6B11637B
:107140007B629C62BC62BC6ABC6A3D7359ADCB6217
:10715000A95AA95ACA62CA62895A538C9C9C5CADCE
:107160003C945B5A5B5A5B5A7B5AFB6A9D6A9D62F0
:107170006F41E549A86AA962685A074269526C736F
:107180004C6B4C6B4C6B4C734C6B4C6B4C734C6B37
:107190003084D294B294B294B294B294B294B29431
:1071A000B294B294B294B294B294B294B294B294AF
:1071B000B294B294B294B294B294B294B294B2949F
:1071C000B294B294B294B294B294B294B294B2948F
:1071D000B294B294B294B294B294B294B294B2947F
:1071E000B294B294B294D294B294B294B294B2944F
:1071F000B294B294B294B294D294D294D294B294FF
:10720000B294B294B294B294D29CB29CD294D294DE
:10721000B294B294B294B294B294B294B294B2943E
:10722000B294B294B294B294B29492949294B2946E
:10723000D294D294D294D294D294D294D294D2941E
:10724000D294D294D294D294D294D29CD294CE7B23
:107250006D738D738D738D738D738D738D738D734E
:107260008D738D73C63985318639E3208110811085
:1072700060106110611041084108411061106110F7
:107280006110611061106110811081106110811016
:107290008110811081108110811081108110811066
:1072A0008110811081108110811081108110A21035
:1072B00081106110A218C318E320032114953CE744
:1072C00054A5BAD6DBD6DFFFFFFFFFFFFFFFFFFFAE
:1072D000FFFFFFFFFFFFFFFFFFFFFFFFFFFFFFFFBE
:1072E000FFFFFFFFFFFFFFFFFFFFFFFFFFFFFFFFAE
:1072F000FFFFFFFFFFFFFFFFFFFFFFFFFFFFFFFF9E
:10730000FFFFFFFFFFFFFFFFFFFFFFFFFFFFFFFF8D
:10731000FFFFFFFFFFFFFFFFFFFFFFFFFFFFFFFF7D
:10732000FFFFFFFFFFFFFFFFFFFFFFFFFFFFFFFF6D
:10733000FFFFFFFFFFFFFFFFFFFFFFFFFFFFFFFF5D
:10734000FFFFFFFFFFFFFFFFFFFFFFFFFFFFFFFF4D
:10735000FFFFFFFFFFFFFFFFFFFFFFFFFFFFFFFF3D
:10736000FFFFFFFFFFFFFFFFFFFFFFFFFFFFFFFF2D
:10737000FFFFFFFFFFFFFFFFFFFFFFFFFFFFFFFF1D
:10738000FFFFFFFFFFFFFFFFFFFFFFFFFFFFFFFF0D
:10739000FFFFFFFFFFFFFFFFFFFFFFFFFFFFFFFFFD
:1073A000FFFFFFFFFFFFFFFFFFFFFFFFFFFFFFFFED
:1073B000FFFFFFFFDFFFBDB639651955394D194590
:1073C000B343ED62457202722CAC95BD17CE52BD2F
:1073D000CAA3A48AC48AE48AC48AC492C492C48A0E
:1073E000679BC9A32793689BC58A31BDDFEF7AC627
:1073F0000B73699B8FB4FFFFFCD60F8CCB9BA482D1
:10740000E582A47AE582847A4372647A8482647A1B
:1074100084828482847AA582A582847A847A858211
:10742000C58AE68AC7823962DE51FD597C5A7C6280
:107430005C623D739D7BBD839D7B9EBD73940B6B96
:107440000B6BEB6236A51D947C629C6A7C6A9B6A1E
:10745000B37B8F7B907BB07BD083B07B8F73B45A30
:107460003B527B5A9C627B627B62FC72598C4F3927
:10747000CD28CD28ED30ED30ED3077739C7BFC725C
:10748000BC627B5A7B5A5B5A7B62DB629D6A9D625F
:107490004E41A549A86AA96A685AE74169526C73C6
:1074A0004C6B4C6B4C6B4C734C6B4C6B4C732C6B34
:1074B0003084D294B294B294B294B294B294B2940E
:1074C000B294B294B294B294B294B294B294B2948C
:1074D000B294B294B294B294B294B294B294B2947C
:1074E000B294B294B294B294B294B294B294B2946C
:1074F000B294B294B294B294B294B294B294B2945C
:10750000B294B294D294B294B294B294B294B2942B
:10751000B294B294B294B294D294D294B294B294FB
:10752000B294B294B294B294B29CB294B294B29423
:10753000B294B294B294B294B294B294B294B2941B
:10754000B294B294B294B294B29492949294B2944B
:10755000B294B294D294D294D294D294D294D2943B
:10756000B294B294B294B294D294D294D394EF835E
:107570006C738D738D736D738D736D736D738D738C
:107580006D738D7B07426531A639E32040104010B2
:107590004008400841084108400840086010611058
:1075A00061106110811081106110611061108110F3
:1075B0008110811081108110811081108110811043
:1075C0008110811081188218A218A110A1108110B9
:1075D000611081108110C218E320C3182D5B7DE774
:1075E00096B538C6FBDE7DEFFFFFFFFFFFFFFFFF15
:1075F000FFFFFFFFFFFFFFFFFFFFFFFFFFFFFFFF9B
:10760000FFFFFFFFFFFFFFFFFFFFFFFFFFFFFFFF8A
:10761000FFFFFFFFFFFFFFFFFFFFFFFFFFFFFFFF7A
:10762000FFFFFFFFFFFFFFFFFFFFFFFFFFFFFFFF6A
:10763000FFFFFFFFFFFFFFFFFFFFFFFFFFFFFFFF5A
:10764000FFFFFFFFFFFFFFFFFFFFFFFFFFFFFFFF4A
:10765000FFFFFFFFFFFFFFFFFFFFFFFFFFFFFFFF3A
:10766000FFFFFFFFFFFFFFFFFFFFFFFFFFFFFFFF2A
:10767000FFFFFFFFFFFFFFFFFFFFFFFFFFFFFFFF1A
:10768000FFFFFFFFFFFFFFFFFFFFFFFFFFFFFFFF0A
:10769000FFFFFFFFFFFFFFFFFFFFFFFFFFFFFFFFFA
:1076A000FFFFFFFFFFFFFFFFFFFFFFFFFFFFFFFFEA
:1076B000FFFFFFFFFFFFFFFFFFFFFFFFFFFFFFFFDA
:1076C000FFFFFFFFFFFFFFFFFFFFFFFFFFFFFFFFCA
:1076D000FFFFFFFFFFFF39C66D73B7ADAB5A6539CA
:1076E00010840B73E3610372E78ACC9B0C9CEBA3C1
:1076F000C582437A637A637A637A83826382838200
:10770000679BC9A3A8A3C9A389A337D65EE7D4946E
:10771000C549478B94C59EEFB8B56D7BCB9B889BC5
:107720006CB4EAA34BAC0693647A647A647A647AA4
:10773000647A647A847A847A847A847A8482C58A40
:10774000C58AA482887A1B5A5E7B5C7B9C625C5AE9
:107750009C623C735C737C7B5C73BDBD108CCA62A5
:10776000EB6AEB6237A5BD83FD8B7DBD9C9C1CAD98
:10777000DB9CBA83FBA43BADFBA4FBA4FCA4FB8B6A
:107780009C7BBC7BFC6A7B62BC6A5D94FDC5DC8B28
:107790003C7B7C83FB72FB6A1B6BBC83FC8B5C9425
:1077A0007C7B7B5A5B5A5B5A7B5ABB627D627D62F3
:1077B0002D39A5498862A9626852E74169524C7324
:1077C0004C734C6B4C6B4C734C6B4C6B4C732C6B09
:1077D0003084D294B294B294B294B294B18CB194F5
:1077E000B294B294B294B294B294B294B294B29469
:1077F000B194918CB294B294B294B294B294B29483
:10780000B294B294B294B18CB194B294B294B29452
:10781000B294B294B294B294B294B194B18CB29442
:10782000B294D294B294B294B294B294B294B29408
:10783000B194B294B294D294D294B294B294B294D9
:10784000B294B294B294B294B294B294B294B29408
:10785000B294B294B294B294B294B294B294B294F8
:10786000B294B294B294B294B29492949294B29428
:10787000B194B294D294D294D294B294D294B29459
:10788000B294B294B294B294D294D294D3943084F9
:107890006D738D736D736D738D736D736D736D73A8
:1078A0006D738D7BAA5A4429A531232140084008D5
:1078B000400840084008410840084008400860105F
:1078C0006110611061106108610861106110611040
:1078D0006110611061108110811081108110811080
:1078E00081108118811882188218A118A118811896
:1078F000611061108110A118C218E32086299AC670
:107900009AD6B6B5FBDE1BDFFFFFFFFFFFFFFFFFD1
:10791000FFFFFFFFFFFFFFFFFFFFFFFFFFFFFFFF77
:10792000FFFFFFFFFFFFFFFFFFFFFFFFFFFFFFFF67
:10793000FFFFFFFFFFFFFFFFFFFFFFFFFFFFFFFF57
:10794000FFFFFFFFFFFFFFFFFFFFFFFFFFFFFFFF47
:10795000FFFFFFFFFFFFFFFFFFFFFFFFFFFFFFFF37
:10796000FFFFFFFFFFFFFFFFFFFFFFFFFFFFFFFF27
:10797000FFFFFFFFFFFFFFFFFFFFFFFFFFFFFFFF17
:10798000FFFFFFFFFFFFFFFFFFFFFFFFFFFFFFFF07
:10799000FFFFFFFFFFFFFFFFFFFFFFFFFFFFFFFFF7
:1079A000FFFFFFFFFFFFFFFFFFFFFFFFFFFFFFFFE7
:1079B000FFFFFFFFFFFFFFFFFFFFFFFFFFFFFFFFD7
:1079C000FFFFFFFFFFFFFFFFFFFFFFFFFFFFFFFFC7
:1079D000FFFFFFFFFFFFFFFFFFFFFFFFFFFFFFFFB7
:1079E000FFFFFFFFFFFFFFFFFFFFFFFFFFFFFFFFA7
:1079F000FFFFFFFFFFFF54ADB2ACFCE66D83686A8A
:107A0000DADECC8382512472E369C269E271E371E8
:107A1000037223724372437A437A437A8482C58A1B
:107A2000A582848284828482C68A37CEDBD66A525B
:107A30008349068BD5C5FCD62D6BA86A078BA4821B
:107A4000A482A4828382A482A482A482A582A58225
:107A5000A582A582A582857AA57A847AA482A58248
:107A6000847A647A8C721C5AFE8B7C73BC629C6232
:107A70009C623B5A3A5A5A5ABB629BB5CE7BEB6228
:107A80000B6B2B6BF79CBB629EB53EE7BED65CCE04
:107A9000DCA47B62DC8B9DA47DB59DB53DAD3DAD89
:107AA0003DADFDA43C73BC6A9D7B9ED67FEF3DCE71
:107AB0009ED6DEDE3ECE5ECEDDC5BEDEDDBD1EE781
:107AC000FDA43C525B525B5A7B5A7B5A5D627D62DD
:107AD0002C39A441886288624852074269524C732B
:107AE0004C6B4C6B4C6B4C734C6B4C6B4C6B2C6BF6
:107AF000308CD294D294B294B294B294B294B294A0
:107B0000D29CD294B294B294B294B294B294B294FD
:107B1000B294B294D294D294B294B294B294D294D5
:107B2000B294B294B294B294B294D294D294B294E5
:107B3000B294D294D294B294B294B294B294D294B5
:107B4000D29CB294B294B294D294B294B294B294BD
:107B5000D294B294D29CD294D294D294D294D2940D
:107B6000B294B294D294B294B294B294B194B294C6
:107B7000B294B294B294B294B294B294B294B294D5
:107B8000B294B2949294B294929492949294B29445
:107B9000D294D29CD29CD294D294D294D29CD29C95
:107BA000D294D294D294D294D29CD29CD29C508C17
:107BB0006D6B6D736D736D736D736D736D736D73CD
:107BC0006D738D730B632429A6314429611040081D
:107BD0004008400820084008400840086008400865
:107BE0006110611060106010601061106110611010
:107BF000611061108110811081108110811081103D
:107C000081188118811882188218A218A218811070
:107C1000811081108110A110C218E318E318D38CD1
:107C20007DE795B5DAD6DAD6DFFFFFFFFFFFFFFF6E
:107C3000FFFFFFFFFFFFFFFFFFFFFFFFFFFFFFFF54
:107C4000FFFFFFFFFFFFFFFFFFFFFFFFFFFFFFFF44
:107C5000FFFFFFFFFFFFFFFFFFFFFFFFFFFFFFFF34
:107C6000FFFFFFFFFFFFFFFFFFFFFFFFFFFFFFFF24
:107C7000FFFFFFFFFFFFFFFFFFFFFFFFFFFFFFFF14
:107C8000FFFFFFFFFFFFFFFFFFFFFFFFFFFFFFFF04
:107C9000FFFFFFFFFFFFFFFFFFFFFFFFFFFFFFFFF4
:107CA000FFFFFFFFFFFFFFFFFFFFFFFFFFFFFFFFE4
:107CB000FFFFFFFFFFFFFFFFFFFFFFFFFFFFFFFFD4
:107CC000FFFFFFFFFFFFFFFFFFFFFFFFFFFFFFFFC4
:107CD000FFFFFFFFFFFFFFFFFFFFFFFFFFFFFFFFB4
:107CE000FFFFFFFFFFFFFFFFFFFFFFFFFFFFFFFFA4
:107CF000FFFFFFFFFFFFFFFFFFFFFFFFFFFFFFFF94
:107D0000FFFFFFFFFFFFFFFFFFFFFFFFFFFFFFFF83
:107D1000DFFFDFF7DFF71CDFFCDE5DE7FCDEBBD655
:107D20005DEFFCDE9AD6BADE99D60E940472247208
:107D30004472647A847A447A437A437A26932BACE9
:107D40008DB4EAAB4CB48EB44DAC097BE651C1287E
:107D5000656AA57A088367622331C87AEAA34CACC6
:107D6000A89BE9A38CB4A99B8482A482A582A58246
:107D700084828582A582A582647A847AA582847AA7
:107D80006472647A6F6A1D52FD72BC62DC62DC6AE6
:107D90001D739C625B5A9B621B6BD9A48C5A6A5AF6
:107DA0006952CB5AD99CFC6A5D7B9E9C9EB51D9402
:107DB0003C73DC6A9C625C7B1DAD3EADBDA45D94F2
:107DC0005D943C731D8C3D94BD9C5DCEDEDE7CB528
:107DD0007AB538AD38AD59AD5BB57DB53DADBDB506
