:020000040800F2
:1000000080A50020DD0100086D170008F915000823
:100010001D170008150E0008DF360008000000005C
:10002000000000000000000000000000A9320008ED
:10003000D911000800000000F517000895330008EA
:10004000F7010008F7010008F7010008F7010008B0
:10005000F7010008F7010008F7010008F7010008A0
:10006000F7010008F7010008F7010008F701000890
:10007000F7010008F7010008F7010008F701000880
:10008000F7010008F7010008F7010008F701000870
:10009000F7010008F7010008F7010008F701000860
:1000A000F7010008F7010008F7010008F701000850
:1000B000F7010008F7010008F7010008F701000840
:1000C000F7010008F7010008F7010008F701000830
:1000D000F701000835350008F7010008F7010008AE
:1000E000F7010008F7010008F7010008F701000810
:1000F000F7010008F7010008F7010008F701000800
:10010000F7010008E91A0008F7010008F7010008E4
:10011000F7010008F7010008F7010008F7010008DF
:10012000F7010008F7010008F7010008F7010008CF
:1001300000F002F800F042F80AA090E8000C8244B7
:100140008344AAF10107DA4501D100F037F8AFF294
:10015000090EBAE80F0013F0010F18BFFB1A43F0A5
:1001600001031847840B0300A40B0300103A24BFBB
:1001700078C878C1FAD8520724BF30C830C144BF0C
:1001800004680C607047000000230024002500264E
:10019000103A28BF78C1FBD8520728BF30C148BFEA
:1001A0000B607047642900F09580732900F0388354
:1001B000002070471FB51FBD10B510BD00F04AFBF1
:1001C0001146FFF7F7FF04F0DFFF00F068FB03B410
:1001D000FFF7F2FF03BC03F08BFA000009488047E9
:1001E00009480047FEE7FEE7FEE7FEE7FEE7FEE719
:1001F000FEE7FEE7FEE7FEE704480549054A064B31
:10020000704700009933000831010008809F0020EA
:1002100080A5002080A1002080A10020704710B59B
:100220004C1084EA530404D54042C1F1000138BFA8
:10023000491E1B4204D55242C3F1000338BF5B1E66
:1002400000F0F3F914F0804F04D04042C1F10001F6
:1002500038BF491E14F0004F04D05242C3F10003CE
:1002600038BF5B1E10BD00000FB4044910B503AACF
:10027000029800F0D9FA10BC5DF814FB04000020CD
:1002800070B50C460546012A05D02878800600D5B1
:10029000EA69002302E0012305E05B1C934202D2DD
:1002A000E05C0028F9D1A869E618C01AA861286A9C
:1002B000184428622846AFF3008004E0D5E9012104
:1002C00014F8010B9047B442F8D32846AFF30080EE
:1002D00070BD00002DE9F041064600241068752924
:1002E000314616A510D0AFF30080002802DA404254
:1002F00013A507E031688A0701D512A502E0490776
:1003000004D511A5012401E0AFF3008000210A22E9
:1003100006F1240709E0B0FBF2FCB0FBF2F302FBAC
:100320001C00303078541846491C0028F3D123466D
:100330002A463046BDE8F04100F0EEB9000000006A
:100340002D0000002B000000200000002DE9F05FD0
:10035000894604464FF0000ADFF874B1FB44C0F848
:1003600020A02046E1688847002874D0252806D0C0
:10037000D4E901219047206A401C2062F1E7002661
:100380005F462046E16888472028054607DB312D77
:1003900005D2781910F8200C08B10643F1E7B00730
:1003A00001D526F00406C4F81CA00027C4F818A044
:1003B0002A2D09D0284603F094F938B304EB8708B6
:1003C000303DC8F8185019E059F8041B204604EBDA
:1003D00087029161E1688847012F054618D1E069DD
:1003E000002820DA26F020061DE0D8F8180000EBDF
:1003F000800005EB40003038C8F818002046E1685E
:100400008847054603F06DF90028EED1012F0AD088
:100410002E2D08D12046E16888477F1C0546022F13
:1004200046F02006C4DBA069002803DA404246F00B
:100430000106A061F00701D026F010066C2D0BD04C
:10044000682D09D04C2D39D06A2D35D0742D35D07A
:100450007A2D33D016E038E0E1682F4620468847F1
:10046000B842054609D16C2F26D04FF48060E16870
:10047000064320468847054604E06C2F1AD04FF407
:10048000807006430DB3A5F14100192802D820352C
:1004900046F400664A462946204626604E46FFF747
:1004A00081FE80B101280BD0F61D26F0070000F177
:1004B000080956E74020E4E78020D8E70020D6E787
:1004C00006F104094DE7284652E7206ABDE8F09F8F
:1004D0007609030040EA0103024630B59B0710D1BC
:1004E0004FF0013400E008C208C91D1B9D4315EA06
:1004F000C41FF8D013F0FF0102F8011B0DD01B0A36
:10050000F8E711F8013B002B02F8013B05D011F888
:10051000013B002B02F8013BF3D130BD421E12F823
:10052000013F002BFBD111F8013B002B02F8013BEE
:10053000F9D17047032A40F2308010F0030C00F02C
:10054000158011F8013BBCF1020F624498BF11F80D
:1005500001CB00F8013B38BF11F8013BA2F10402C6
:1005600098BF00F801CB38BF00F8013B11F003033E
:1005700000F02580083AC0F0088051F8043B083AA2
:1005800051F804CBA0E80810F5E7121D5CBF51F844
:10059000043B40F8043BAFF30080D20724BF11F8BE
:1005A000013B11F801CB48BF11F8012B24BF00F823
:1005B000013B00F801CB48BF00F8012B704710B594
:1005C000203AC0F00B80B1E81850203AA0E818504B
:1005D000B1E81850A0E81850BFF4F5AF5FEA027C0C
:1005E00024BFB1E81850A0E8185044BF18C918C07B
:1005F000BDE810405FEA827C24BF51F8043B40F81C
:10060000043B08BF7047D20728BF31F8023B48BF00
:1006100011F8012B28BF20F8023B48BF00F8012B3E
:100620007047704770477047704753EA020C00F0FC
:1006300069802DE9F04B4FF00006002B1FBFB3FA85
:1006400083F503FA05F424FA05F65E4012BF16435B
:10065000B2FA82F502FA05F4C5F120051EBF22FAAE
:1006600005FC44EA0C04203556EA044C4FEA1444D5
:1006700018BF641C4FF000084FF00009904271EB66
:10068000030C39D3002919BFB1FA81F701FA07F633
:10069000B0FA80F700FA07F6C7F120071EBF20FA6C
:1006A00007FC46EA0C062037B6FBF4FCA7EB05076F
:1006B000103F07F01F0BCBF120060CFA0BFB2CFAB6
:1006C00006F644BFB3460026202FA4BF5E464FF077
:1006D000000B5BEA060C08BF4FF0010B19EB0B098E
:1006E000ABFB027C48EB0608C01B06FB02CC0BFBF5
:1006F00003CC71EB0C01C1E70B460246414648466C
:10070000BDE8F08B13B54FF000004FF00001AFF3E0
:100710000080BDE81C4070472DE9F0470D46994622
:100720009246044600F124080168880604D5E06971
:1007300021F01001216000E00120A84201DD471BEB
:1007400000E00027A1697A1902EB0900081AA061EC
:100750002078C00602D42046AFF30080002608E0CF
:10076000D4E901211AF806009047206A401C761C43
:1007700020624E45F4DB2078C0060AD52046AFF350
:10078000008006E0D4E9012130209047206A401C17
:100790002062381EA7F10107F4DC07E0D4E901214B
:1007A00018F805009047206A401C2062281EA5F119
:1007B0000105F3DC2046AFF300802078000602D567
:1007C0000220BDE8F0870120FBE7000001694A1C18
:1007D00002610878704700B58FB0CDE90131002182
:1007E000059105497944CDE9031011466846FFF7A4
:1007F000ADFD0FB000BD0000E5FFFFFF10B5436980
:1008000013B1AFF3008001E0FFF73AFD012010BD06
:10081000127800F124010A7000224A700122EDE7EB
:1008200011684FF0FF32E9E7074B70B50D467B4486
:10083000FFF7D1FF0446284600F008F810B14FF04A
:10084000FF3070BD204670BDB3450000007B00F056
:1008500080007047754600F02BF8AE4605006946EB
:10086000534620F00700854618B020B5FFF7C4FCBA
:10087000BDE820404FF000064FF000074FF00008A1
:100880004FF0000B21F00701AC46ACE8C009ACE822
:10089000C009ACE8C009ACE8C0098D46704710B586
:1008A0000446AFF300802046BDE81040FFF78FBC40
:1008B00000487047209F002030B5044600F0CAFF72
:1008C0003020234D28804FF0D840A0F8804000F021
:1008D000C1FF3120288020124FF0D845A5F88000B4
:1008E00000F0B8FF3420A5F884001948001F0180EB
:1008F00000F0B0FF3520164D288008122D1F2880EB
:1009000000F0A8FF32204FF0D845A5F88400104829
:10091000001F028000F09EFF33200D4D2880101232
:100920002D1F288000F096FF36204506A5F884008C
:100930000748001F038000F08DFF3720044D2880FA
:1009400018124FF0D845A5F8800000F083FF30BDA5
:100950008400006C08B50121802000F095FF4FF461
:100960000060ADF8000010208DF8030003208DF822
:1009700002006946014800F0ABFD08BD001C0140C3
:1009800008B501214FF4C07000F07EFF4FF408500D
:10099000ADF8000048208DF8030003208DF8020018
:1009A0006946024800F094FD08BD0000001C0140AB
:1009B00010B5FFF7E5FFFFF7CDFF10BD00F0010117
:1009C00029B10349096881F40061014A1160704747
:1009D0000C1C014000B597B00121080200F044FF53
:1009E00001214FF4F07000F04FFF4CF20370ADF8AE
:1009F000000018208DF8030003208DF802006946DE
:100A00002C4800F065FD4FF68070ADF80000694697
:100A1000294800F05DFD4FF23F00ADF80000694647
:100A2000264800F055FD3F20ADF8000069462448F7
:100A300000F04EFD4FF46050ADF8000069461D48CF
:100A400000F046FD3020ADF800006946194800F07E
:100A50003FFD4FF48050ADF800006946184800F0A3
:100A600037FD0020019002900320039000200490A5
:100A700005900690079006200890002009900A90A3
:100A800010200B9000200C900E900F9010904FF4BF
:100A900080501190002012901390149001A815908E
:100AA000169008A800F0D6FB0121062000F0B8FB44
:100AB00017B000BD0014014000180140001C0140A7
:100AC0000020014008B50121080200F0DDFE802071
:100AD000ADF8000048208DF8030003208DF80200D7
:100AE0006946094800F0F4FC4FF40060ADF80000DE
:100AF00048208DF8030003208DF802006946024863
:100B000000F0E6FC08BD00000020014010B5FFF732
:100B1000D9FF00F09FFE8820844908800F204FF005
:100B2000D841A1F88000012000F05DFB00F092FEAA
:100B300089207E49088002204FF0D841A1F880002A
:100B40000A2000F050FB00F085FE10207749088055
:100B50000F204FF0D841A1F88000012000F043FBA6
:100B600000F078FE04207149088081204FF0D841C0
:100B7000A1F88000012000F036FB00F06BFE14208D
:100B80006A4908806320091F088000F063FE152071
:100B9000664908800020091F088000F05BFE1620CF
:100BA000624908800320091F088000F053FE1720C7
:100BB0005E4908800320091F088000F04BFE1820C2
:100BC0005A4908800B204FF0D841A1F8800001203D
:100BD00000F009FB00F03EFE192054490880DF2098
:100BE000091F088000F036FE1A20504908800120B5
:100BF000091F088000F02EFE1B204C4908801F2092
:100C0000091F088000F026FE1C20484908800020AB
:100C1000091F088000F01EFE1D2044490880162090
:100C2000091F088000F016FE1E20404908800020A1
:100C3000091F088000F00EFE1F203C49088001209B
:100C40004FF0D841A1F8800000F0CDFA00F002FE8C
:100C50003020364908800020091F088000F0FAFD86
:100C60003120324908800020091F088000F0F2FD81
:100C700034202E4908801F20091F088000F0EAFD5B
:100C800035202A49088003204FF0D841A1F8800080
:100C9000012000F0A8FA00F0DDFD32202349088091
:100CA0000020091F088000F0D5FD33201F4908806F
:100CB0000020091F088000F0CDFD36201B49088068
:100CC000DF20091F088000F0C5FD37201749088084
:100CD00001204FF0D841A1F8800000F084FA40F2E2
:100CE000DF13002240F21F311046FFF7E5FD00F050
:100CF00093F84CF69A6002F0F5FB4CF69A6002F01D
:100D00007BFB00F01FFD00F07BFA182002F0CEFB09
:100D1000042002F0D9FB352002F096FB02F0A2FB82
:100D200002F0B2FB00F0FCFC10BD00008400006C7F
:100D300008B50121042000F0A7FD4FF40070ADF8C4
:100D4000000003208DF8020018208DF8030069468A
:100D5000074800F0BDFB4FF48060ADF800000420B0
:100D60008DF803006946024800F0B2FB08BD0000A0
:100D70000008014010B540F22551064802F0EAFB98
:100D800038B1044802F0A2FC04462146014802F0B2
:100D9000A2FC10BD0038014010B50446204600F00A
:100DA00015F8FFF7C5FF00F001F810BD08B52520C4
:100DB0008DF8000003208DF801008DF8020001205D
:100DC0008DF80300684600F0D3FC08BD1FB504464B
:100DD0000121880300F058FD00940020ADF80400C4
:100DE000ADF80600ADF80800ADF80C000C20ADF829
:100DF0000A006946064802F0FDFB012240F2255137
:100E0000034802F0D1FB0121014802F097FB1FBD0E
:100E10000038014000BFFEE700B500F01BFD8E204A
:100E2000064A108000F0AAFD014641F040014FF053
:100E3000D840A0F8801000F00DFD00BD8400006CCB
:100E400070B500254FF4803404E0802000F038FEB7
:100E500000B103E0201EA4F10104F6D100BF0CB9DB
:100E6000032070BD40F2FF5000F0E4FD2846F8E793
:100E700070B5044605E01548456B05F0450000B126
:100E800000E0F8E700BF042000F01AFE20B10420C3
:100E900000F0D0FD032070BD012000F011FE20B154
:100EA000012000F0C7FD0120F5E708480069A042D5
:100EB00001D01020EFE740F2FF5004498863084654
:100EC000406908210840C0B2E5E700000080014009
:100ED00070B500264FF4803505E01148446B04F0EE
:100EE000450000B103E0281EA5F10105F5D100BFC2
:100EF00015B104F0040028B10326042000F09AFD87
:100F0000304670BD012000F0DBFD18B10126012044
:100F100000F090FD40F2FF5000F08CFD3046F0E70D
:100F20000080014010B505E00B48446B04F045001B
:100F300000B100E0F8E700BF042000F0C1FD20B1DF
:100F4000042000F077FD032010BD40F2FF5000F0B8
:100F500071FD0020F8E70000008001402DE9F0411C
:100F600005460E464FF0000805E01F48476B07F0A6
:100F7000450000B100E0F8E700BF042000F0A0FD4C
:100F800028B1042000F056FD0320BDE8F0810120C7
:100F900000F096FD20B1012000F04CFD0120F4E7A7
:100FA00011480069A84201D01020EEE740F2FF503E
:100FB00000F040FD0C48446904F4604018B9200C6E
:100FC00030804046E1E704F4005008B11320DCE72C
:100FD00004F4804008B11020D7E704F4004008B1C1
:100FE0000F20D2E74046D0E70080014070B50026D0
:100FF0004FF4803505E00F48446B04F0450000B124
:1010000003E0281EA5F10105F5D100BF15B104F0DC
:10101000040028B10326042000F00CFD304670BD0A
:1010200004F0400018B10026402000F003FD3046D7
:10103000F5E700000080014021B1026842F00102A2
:10104000026004E002684FF6FE731A4002607047C7
:1010500001684FF6FE72114001600021016041609D
:101060008160C1604B49884208D14A4908394968C2
:1010700041F00F01474A083A51608AE0454914316E
:10108000884208D143490839496841F0F001414A92
:10109000083A51607DE03F492831884208D13D49F6
:1010A0000839496841F470613A4A083A516070E081
:1010B00038493C31884208D136490839496841F4F9
:1010C0007041344A083A516063E0324950318842F5
:1010D00008D130490839496841F470212D4A083A4D
:1010E000516056E02B496431884208D129490839BA
:1010F000496841F47001274A083A516049E025499E
:101100007831884208D123490839496841F0706133
:10111000204A083A51603CE01F49884206D1011F2D
:10112000096841F00F01021F116032E01A491431C1
:10113000884208D11849091F096841F0F001164A90
:10114000121F116025E014492831884208D1124944
:10115000091F096841F470610F4A121F116018E0FD
:101160000D493C31884208D10B49091F096841F4F7
:101170007041094A121F11600BE007495031884243
:1011800007D10549091F096841F47021024A121F5D
:1011900011607047080002400804024010B50022A8
:1011A000026847F6F0739A430C6A8B6823430C6914
:1011B00023434C6923438C692343CC6923434C6A02
:1011C00023438C6A23431A430260CB6843600B6855
:1011D00083604B68C36010BD704700BF011EA0F163
:1011E0000100FBD1704707E042F63D0100BF0A1E37
:1011F000A1F10101FBD1401E0028F5D1704700008C
:1012000000B500F027FB01200449088080204FF042
:10121000D841A1F8800000F01DFB00BD8400006CE7
:1012200051B18200A2F1C042126842F00103820073
:10123000A2F1C042136009E08200A2F1C04212682C
:10124000034B1A408300A3F1C0431A6070470000AB
:10125000FEFF0F00D0E901121143C2681143026979
:1012600011434269114382691143C2691143026A01
:101270001143426A1143826A1143C26A1143026BED
:10128000114302689200A2F1C042116081680829EE
:101290000BD101688900A1F1C041096841F0400209
:1012A00001688900A1F1C0410A60416B0968426B85
:1012B000526841EA0211426B926841EA0221426B94
:1012C000928941EA0241426B128A41EA0251426B21
:1012D000127D41EA0261426B926911430268521C1D
:1012E0009200A2F1C0421160C16AB1F5804F1BD1DA
:1012F000816B0968826B526841EA0211826B9268C5
:1013000041EA0221826B128A41EA0251826B127D0C
:1013100041EA0261826B9269114302689200A2F174
:10132000C042C2F8041107E06FF070420168890002
:10133000A1F1C041C1F80421704700002DE9FC4132
:1013400007460D460026002400200090019008204A
:101350005B49086010204860402088600020C86019
:101360004FF480600861084600F0E0FB1020FFF7B2
:101370007FFD044614B12046BDE8FC815148008839
:1013800000044F49086037204860402088600020F2
:10139000C8604FF480600861084600F0C7FB372042
:1013A000FFF766FD04460CB12046E5E74FF0FF303D
:1013B0004549086008204860302088600220C860E5
:1013C0000020086101204861084600F04FFB002022
:1013D0003B49086033204860402088600020C86096
:1013E0004FF480600861084600F0A0FB3320FFF74F
:1013F0003FFD04460CB12046BEE70CE04FF4001060
:1014000000F05EFB38B100F08BFB4DF82600761C37
:10141000022E00D306E02D48406B40F22A610840BE
:101420000028EBD000BF082000F04AFB20B10820C4
:1014300000F000FB04209FE7022000F041FB20B1F8
:10144000022000F0F7FA022096E7202000F038FB97
:1014500020B1202000F0EEFA06208DE74FF4007056
:1014600000F02EFB28B14FF4007000F0E3FA0720E3
:1014700082E740F2FF5000F0DDFA00980006009984
:1014800001F47F4140EA0120009901F47F0140EA24
:101490001120009940EA11606860019800060199E6
:1014A00001F47F4140EA0120019901F47F0140EA03
:1014B0001120019940EA1160286020465CE7000095
:1014C000B80700200C000020CC070020008001405D
:1014D0002DE9F041024600250026002000230024CB
:1014E000002791F803C00CF00F0591F803C00CF031
:1014F000100CBCF1000F03D091F802C04CEA0505B6
:1015000091F800C0BCF1000F31D0146800202BE02E
:101510004FF0010C0CFA00F3B1F800C00CEA03061E
:101520009E4220D183004FF00F0C0CFA03F7BC430E
:1015300005FA03FC4CEA040491F803C0BCF1280F3F
:1015400006D14FF0010C0CFA00FCC2F814C00AE0FE
:1015500091F803C0BCF1480F05D14FF0010C0CFA13
:1015600000FCC2F810C0401C0828D1D31460B1F8A8
:1015700000C0BCF1FF0F34DD546800202EE000F104
:10158000080C4FF0010808FA0CF3B1F800C00CEA9F
:1015900003069E4221D183004FF00F0C0CFA03F793
:1015A000BC4305FA03FC4CEA040491F803C0BCF107
:1015B000280F05D100F1080C08FA0CF8C2F81480C5
:1015C00091F803C0BCF1480F07D100F1080C4FF0AF
:1015D000010808FA0CF8C2F81080401C0828CED385
:1015E0005460BDE8F0810246002093680B400BB1C7
:1015F000012000E00020704700BFFEE71CB5044654
:1016000000200190009021480088000420490860D3
:101610000D204860402088600020C8604FF4806042
:101620000861084600F082FA1A48406B009002E018
:101630001848406B0090009800F045000028F7D053
:10164000012000F03DFA20B1012000F0F3F9012063
:101650001CBD042000F034FA20B1042000F0EAF9A7
:101660000320F5E70B4800690D2801D01020EFE7B3
:1016700040F2FF5000F0DEF9064840690190019801
:10168000C0F3432020700020E2E700000C0000209F
:10169000B80700200080014010B5044614B10120B5
:1016A0001B4908701A48007808B34FF400711948B4
:1016B000FFF799FF28B14FF400511748FFF793FF48
:1016C000A8B90A20FFF78FFD0020114908704FF4D8
:1016D00000711048FFF787FF08B9012010BD4FF4D3
:1016E00000510D48FFF77FFF80B90220F6E74FF465
:1016F00000710848FFF777FF012807D1410306482A
:10170000FFF771FF012801D1014908700020E5E7CA
:1017100000000020001C01400020014000BFFEE747
:1017200000B500F097F84020054A108000F026F937
:10173000014601F0FD014FF0D840A0F8801000BD37
:101740008400006C00B500F085F88E20064A1080F9
:1017500000F014F9014641F080014FF0D840A0F8A4
:10176000801000F077F800BD8400006C7047000026
:1017700070B5002100230F22C47804B3154C2468EF
:1017800004F4E064C4F5E064210AC1F10403CA4032
:10179000447804FA03F184781440214309010E4C83
:1017A0000678A155047804F01F050124AC400578A3
:1017B0006D11AD0005F1E025C5F8004109E00478A0
:1017C00004F01F050124AC40044D0678761145F85D
:1017D000264070BD0CED00E000E400E080E100E098
:1017E00002490143024A1160704700000000FA05F7
:1017F0000CED00E07047000010B50123134C23707E
:101800004623134C23804FF0D843A3F8800047238E
:1018100023800312241F238048234FF0D844A4F8C8
:1018200084300B4B1B1F19804923094C23800B125A
:10183000241F238002234FF0D844A4F88430044BA3
:101840001B1F1A800023014C237010BD18000020BC
:101850008400006C00BF0348806800F4006000282A
:10186000F9D070470020014029B1064A526902436D
:10187000044B5A6104E0034A52698243014B5A61A6
:10188000704700000010024029B1064A92690243E5
:10189000044B9A6104E0034A92698243014B9A61C6
:1018A000704700000010024030B5002100220024E3
:1018B00000232D4D6D6805F00C0121B1042905D0E0
:1018C000082923D105E0294D056022E0274D056058
:1018D0001FE0254D6D6805F47012234D6D6805F409
:1018E0008034022505EB92421CB9214D5543056019
:1018F0000BE01D4D6D6805F400351DB11C4D5543C1
:10190000056002E0194D5543056002E0174D056082
:1019100000BF00BF144D6D6805F0F0010909154DB9
:101920006B5C0568DD4045600F4D6D6805F4E06156
:10193000090A104D6B5C4568DD4085600A4D6D6895
:1019400005F46051C90A0B4D6B5C4568DD40C5600C
:10195000054D6D6805F44041890B074D6B5CC5680A
:10196000B5FBF3F5056130BD0010024000127A00AE
:1019700000093D00190000202900002001480088CE
:10198000C0B270478000006C7CB505460024002082
:101990000090019000260DB1022600E000262248AA
:1019A000406900F0007008B10E207CBD1F49098815
:1019B00088B26946FFF7C2FC04460CB12046F4E742
:1019C000019800F4802060B318480088000418498A
:1019D000086037204860402088600020C8604FF4CD
:1019E00080600861084600F0A1F83720FFF740FA50
:1019F00004460CB12046D8E70D48066006200C4985
:101A00004860402088600020C8604FF48060086112
:101A1000084600F08BF80620FFF72AFA0446204615
:101A2000C3E72520C1E70000008001400C00002032
:101A3000B80700200149886370470000008001401A
:101A40000149086070470000A00030420146034A87
:101A5000506820F0FF00084350607047008001404C
:101A600001490860704700008C05304200210A4B94
:101A700002685A6242689A621A46D16A21F0F701F6
:101A8000D0E902231A4303691A4343691A431143F5
:101A9000014AD162704700000080014000200649E1
:101AA000086048608860C86048628862C86203480D
:101AB00088630020C863704700800140FF07C000B2
:101AC00001460020034A526B0A400AB1012000E09F
:101AD00000207047008001400248006800F00300C9
:101AE000704700000080014010B500F051FC10BDAF
:101AF00000210A4A516847F6FF629143027D8368DC
:101B00001A4343681A43C3681A4303681A430369B4
:101B10001A431143014A51607047000000800140A0
:101B20000148006870470000808001400021094B97
:101B300002689A601A46D1686FF30A01D0E901235E
:101B40001A43C3681A4303691A431143014AD16017
:101B500070470000008001400549096821F0030139
:101B6000034A116011460968014311607047000083
:101B700000800140014908607047000080800140FA
:101B800070B58CB006460C46154601210220FFF7C1
:101B90006BFE1348FFF75CFA00211148FFF74CFA7F
:101BA0001048019002960395A0080490002005902B
:101BB0008020069080000790800008900020099007
:101BC0004FF400500A9000200B9001A90448FFF741
:101BD000E5FA00210248FFF72FFA0CB070BD0000B3
:101BE000440402408080014070B504460025164838
:101BF0000078032801D1272070BD1348007838B140
:101C000011480078012803D00F480078022818D125
:101C1000022C01D32720EFE7E0B2FFF7B5FE05461F
:101C20007DB90A48406820F4C05008494860084619
:101C30004068A1B240EAC1200449486008464068B3
:101C400048602846D8E700000800002000800140D6
:101C5000F0B5014600200022BD4B1B7881F85630BC
:101C6000BC4B1B88A1F85430BB4B1B681A0E930960
:101C70000B70C2F383034B7002F003038B70B64BFF
:101C80001B68C3F30742CA70B34B1B88C3F3072218
:101C90000A71B14B1A784A715B681A0E1301CB8036
:101CA000AD4B5B68C3F30742CB8843EA1213CB808A
:101CB00002F00F030B72A84B9B88C3F30722D309D2
:101CC0004B72C2F380138B72C2F34013CB72C2F318
:101CD00000130B7300234B739D4B1B783BB19C4B44
:101CE0001B78012B03D09A4B1B78032B4FD1930702
:101CF0001B0D0B61984B1A790B6943EA82030B6148
:101D0000954B9B681A0E0B6943EA92130B61C2F361
:101D1000C2030B7502F007034B758F4B9B68C3F32F
:101D2000074253098B75C2F38203CB7593075B0F90
:101D30000B76894B1B89C3F307220B7E43EAD21330
:101D40000B760B695B1C0024C1E912340B7E9B1CD3
:101D5000012606FA03F3DE17D1E91245A4FB037C42
:101D600005FB03C304FB0633C1E912730C7A01239C
:101D7000A3400B650024D1E912560B6DA5FB037C33
:101D800006FB03C305FB0433C1E912732CE0704B5F
:101D90001B78022B28D1704B1A7993069B0A0B6192
:101DA0006D4B9B681A0E0B6943EA02230B616A4B69
:101DB0009B68C3F307420B6913430B61664B1B8996
:101DC000C3F307220B695B1C4FF40074A3FB0435BB
:101DD00066000027A3FB064C05FB06C503FB075363
:101DE000C1E9124373100B65C2F3801301F8193F68
:101DF00093065B0E4B70584B1A7A4B7843EAD2131A
:101E00004B7002F07F038B70534BDB681A0ED309C3
:101E1000CB70C2F341130B71C2F382034B71930772
:101E20001B0F8B714C4BDB68C3F307428B7943EA82
:101E300092138B71C2F34013CB7100230B7202F02B
:101E400001034B72444B9B89C3F30722D3098B7266
:101E5000C2F38013CB72C2F340130B73C2F30013AF
:101E60004B73C2F381038B7302F00303CB733A4BC2
:101E70001A7B53080B7401234B74384B1B681A0EE2
:101E8000CA741939354B1B68C3F307421402CC8559
:101E9000324B1B88C3F30722CB8D1343CB852F4BCB
:101EA0001A7814060C635B681A0E0B6B43EA024443
:101EB0000C632A4B5B68C3F307420B6B43EA0224B3
:101EC0000C63264B9B88C3F307220B6B13430B63F6
:101ED000224B1A7934235A54204B9B681A0E35230F
:101EE0005A541E4B9B68C3F3074214068C631B4B6A
:101EF0001B89C3F307228B6B43EA02448C63174BA5
:101F00001A7A8B6B43EA02248C63144BDB681A0E3B
:101F10008B6B13438B63114BDB68C3F307423C238A
:101F20005B5C43EA12143C235C5413071C0DCC8702
:101F30000A4B9B89C3F30722CB8F1343CB87074BF5
:101F40001A7B540840235C54012441235C54F0BDA7
:101F5000080000200C000020E4070020F407002007
:101F60007CB50025002401213020FFF78DFC0121E4
:101F700040F20240FFF778FC4FF4F850ADF8000053
:101F800018208DF8030003208DF8020069463048C0
:101F9000FFF79EFA0420ADF8000018208DF803002A
:101FA00003208DF8020069462A48FFF791FA802045
:101FB000ADF8000048208DF8030003208DF80200E2
:101FC00069462448FFF784FAFFF768FD31208DF851
:101FD000040000208DF805008DF8060001208DF822
:101FE000070001A8FFF7C4FB00F0E4F8044614B9A9
:101FF00000F036F804461CB91748FFF729FE0446DE
:1020000034B91549B1F85410080400F047FD0446EE
:102010001CB90120FFF7E8FD04461CB10F48007809
:10202000032812D10C4890F8560020B10A4890F8C5
:102030005600012801D10A2500E004252846FFF7B3
:1020400005FD002000F042FD044620467CBD000056
:102050000010014000140140080800200800002082
:1020600038B5002401200090FFF736FD08B925207F
:1020700038BD4A480078042821D00020484908602B
:1020800002204860C02088600020C8604FF4806053
:1020900008610846FFF74AFDFEF71AFF04460CB137
:1020A0002046E5E73F4840693F4908603D48806970
:1020B00048603C48C06988603A48006AC860374850
:1020C000007858B135480078012807D033480078A7
:1020D000062803D031480078022816D10020304964
:1020E000086003204860402088600020C8604FF4EA
:1020F000806008610846FFF719FD69460320FEF776
:102100002DFF04460CB12046B2E72448007803288E
:1021100016D1BDF800000004214908600320486082
:10212000402088600020C8604FF480600861084645
:10213000FFF7FCFCFEF7CCFE04460CB1204697E707
:1021400016480078042827D0BDF800001749086019
:10215000BDF8000000041249086009204860C02052
:1021600088600020C8604FF4806008610846FFF76F
:10217000DDFCFEF7ADFE04460CB1204678E70948C9
:1021800040690B4908600748806948600548C06994
:1021900088600448006AC860002069E708000020E1
:1021A000B807002000800140F40700200C00002048
:1021B000E40700202DE9F047002700240026002531
:1021C000A046A146B2206C4908750020086048600E
:1021D0008860C86008610846FFF78AFC0320FFF7A3
:1021E000BBFC0120FFF72CFC00BF12E0002063497C
:1021F000086048608860C8604FF4806008610846E5
:10220000FFF794FCFEF71CFE044604B903E0781CBB
:10221000C7B24A2FEADB00BF14B12046BDE8F08701
:102220004FF4D57055490860082048604020886008
:102230000020C8604FF4806008610846FFF776FC14
:10224000FEF7D4FE044624B901204D4908704FF032
:102250008049002049490860372048604020886054
:102260000020C8604FF4806008610846FFF75EFCFC
:102270003720FEF7FDFD0446002C4BD134E0002052
:102280003E49086037204860402088600020C860D0
:102290004FF4806008610846FFF748FC3720FEF7DE
:1022A000E7FD04460CB12046B8E7364849EA00008D
:1022B0003249086029204860402088600020C860BA
:1022C0004FF4806008610846FFF730FCFEF72AFEF5
:1022D00004460CB12046A1E72B484669012080EA5C
:1022E000D67080F001086D1CB8F1000F03D14FF6D5
:1022F000FF708542C3D34FF6FF70854202D31B2483
:1023000020468BE706F08040061E32D002201C4992
:1023100008702EE01CE01D48184908600120486044
:10232000402088600020C8604FF480600861084643
:10233000FFF7FCFBFEF7F6FD04460CB120466DE707
:1023400011484669012080EAD67080F001086D1CB2
:10235000B8F1000F03D14FF6FF708542DBD34FF683
:10236000FF70854202D31B24204657E7032004490F
:102370000870204652E70000A0070020B8070020A0
:102380000800002000001080008001400080FF80D5
:1023900010B54948406B00F4807070B3474800782E
:1023A000012814D10020464908600C2048604020D4
:1023B00088600020C8604FF4806008610846FFF71D
:1023C000B5FB0C20FEF754FD3E49087002E00020EA
:1023D0003C4908703848806B40F480703649886307
:1023E0000846C06B4CF23A3188433349C863012038
:1023F000354908703348007810BDFFE70220FFF729
:102400005FFB68B10220FFF715FB2B48C06B4CF255
:102410003A3188432849C86302202A490870EBE70B
:102420000820FFF74DFB68B10820FFF703FB2248A7
:10243000C06B4CF23A3188431F49C86304202149DC
:102440000870D9E72020FFF73BFB68B12020FFF799
:10245000F1FA1948C06B4CF23A3188431649C86307
:10246000062018490870C7E71020FFF729FB68B15C
:102470001020FFF7DFFA1048C06B4CF23A31884366
:102480000D49C86305200F490870B5E74FF4007087
:10249000FFF716FB70B14FF40070FFF7CBFA064858
:1024A000C06B4CF23A3188430349C86307200549A1
:1024B0000870A1E700209FE7008001401100002084
:1024C000B807002012000020130000202DE9F84F6B
:1024D0008146174698460A9C4FF0000AD3464D465F
:1024E0004FF0FF36B9F1000F02D12620BDE8F88F7A
:1024F00000208149C86281480078022805D1040281
:10250000780A40EAC8574FEA682800207C4988606A
:102510004860401E0860012048610020C8600861D2
:102520000846FFF7A3FA7448406900F0007008B14C
:102530000E20DBE7002C21DDB4F5006F1EDC601EF1
:102540002040D8B9204601F095F900906D4804600C
:1025500010206C494860402088600020C8604FF41B
:10256000806008610846FFF7E1FA1020FEF780FC62
:102570008246BAF1000F03D05046B7E72620B5E7F0
:10258000009800015E498860084644604FF0FF30C3
:102590000860012048610220C860002008610846E8
:1025A000FFF764FA574807601120564948604020F9
:1025B00088600020C8604FF4806008610846FFF71B
:1025C000B5FA1120FEF754FC8246BAF1000F01D093
:1025D00050468BE74C480078002858D172B618E076
:1025E0004FF40040FFF76CFA78B14FF0000B06E0B3
:1025F00041488030006845F82B000BF1010BBBF11E
:10260000080FF5D32035414E03E00EB904206DE7E5
:10261000761E3948406B40F22A6108400028DFD01E
:102620000820FFF74DFA20B10820FFF703FA042035
:102630005CE70220FFF744FA20B10220FFF7FAF925
:10264000022053E72020FFF73BFA20B12020FFF7BC
:10265000F1F906204AE74FF40070FFF731FA28B18C
:102660004FF40070FFF7E6F907203FE703E0FFF7BC
:1026700057FA28602D1D4FF40010FFF721FA0028AB
:10268000F5D162B640F2FF50FFF7D4F931E01E48B1
:10269000007801282DD1002221464846FFF770FA24
:1026A00000201B4908701B4908701B49087012481C
:1026B000C06B40F22A3108430F49C8630120FFF77D
:1026C000CFF900E0761E1548006800F4005038B9D4
:1026D0001148007820B90E48007808B9002EF1D1D1
:1026E0000EB9042002E70A48007810B1084890F8B3
:1026F00000A05046FAE600000080014008000020DB
:10270000CC070020B807002010000020FFFF7F004A
:1027100012000020110000201300002000040240DD
:102720002DE9FE4F83460C4691460020029000267C
:1027300025462C46700240EAD5566D020BF0030088
:10274000F0B14FF0000A18E04FF4007000904FEA2B
:102750004A20471946EBE0733A461648FFF7B6FEA3
:1027600002904FF4007213495846FDF7E3FE0BF553
:10277000007B0AF1010000F0FF0ACA45E4DB16E025
:10278000B9F1010F09D14FF400702A463346009089
:102790005846FFF79BFE029009E04FF400702A466E
:1027A0003346CDE90009584600F006F80290029839
:1027B000BDE8FE8F600800202DE9FF5F17469846B0
:1027C000DDE90E464FF00009CA464FF0FF35A84933
:1027D000009808600020A749C862A748007802282E
:1027E00005D10402780A40EAC8574FEA6828002059
:1027F000A24988604860401E0860012048610020AE
:10280000C86008610846FFF731F99A48406900F04E
:10281000007018B10E2004B0BDE8F09F002C21DD3F
:10282000B4F5006F1EDC601E2040D8B9204601F0D0
:1028300021F8834692480460102091494860402066
:1028400088600020C8604FF4806008610846FFF788
:102850006DF91020FEF70CFB8146B9F1000F03D093
:102860004846D8E72620D6E7012E6FD906FB04F0AC
:10287000B0F1007F01D32620CDE74FEA0B107F494E
:10288000886006FB04F048604FF0FF3008600120CC
:1028900048610220C860002008610846FFF7E6F89A
:1028A0007748076012207649486040208860002001
:1028B000C8604FF4806008610846FFF737F91220BE
:1028C000FEF7D6FA8146B9F1000F01D04846A2E7DB
:1028D0006C48007800287DD172B61EE04FF40040AD
:1028E000FFF7EEF8A8B14FF0000A08E06148803029
:1028F00000685F49096841F82A000AF1010ABAF143
:10290000080FF3D35A4800682030594908605E4DDB
:1029100003E00DB904207EE76D1E5648406B40F27F
:102920002A3108400028D9D00820FFF7C9F820B183
:102930000820FFF77FF804206DE70220FFF7C0F8BA
:1029400028B10220FFF776F8022064E78DE020200E
:10295000FFF7B6F820B12020FFF76CF806205AE701
:102960004FF40070FFF7ACF828B14FF40070FFF798
:1029700061F807204FE709E0FFF7D2F83C49096802
:1029800008603B480068001D394908604FF400109A
:10299000FFF796F80028EFD14FF48070FFF790F81A
:1029A00020B33548007838B133480078012803D087
:1029B00031480078022819D10020314908600C20E4
:1029C0004860402088600020C8604FF48060086143
:1029D000084600E010E0FFF7A9F80C20FEF748FADF
:1029E0008146B9F1000F01D0484614E762B640F2C3
:1029F000FF50FFF71FF838E022480078012834D153
:102A000006FB04F100220098FFF7BAF800201F49E6
:102A1000087001201E49087000201E4908701548E2
:102A2000C06B40F22A3108431249C8630846C06AA5
:102A300040F00800C86200E06D1E1748006800F40E
:102A4000005008B9002DF7D10DB90420E3E600BF0E
:102A50001048007818B90D4800780028F8D00B48C5
:102A6000007810B1094890F800904846D3E600007D
:102A7000140000200080014008000020CC07002046
:102A8000B807002010000020FFFF7F001200002088
:102A900011000020130000200004024010B504467D
:102AA00009480460072008494860402088600020E9
:102AB000C8604FF4806008610846FFF737F80720C8
:102AC000FEF7D6F910BD0000B8070020014600202F
:102AD000012900D011B9024B197000E0262070477F
:102AE000100000202DE9FF5F86B017469846149D20
:102AF0000026002005900490002481460390824621
:102B000002900195DDF818B0DDF818B0BBF1000FA8
:102B100003D126200AB0BDE8F09F0020C349C86257
:102B2000C34988604860401E086001204861002059
:102B3000C86008610846FEF799FFBC48406900F08C
:102B4000007008B10E20E5E7BA480078022805D1E8
:102B50000502780A40EAC8574FEA6828002D1FDDB1
:102B6000B5F5006F1CDC681E2840C8B9284600F087
:102B700081FE0590B04805601020AF4948604020B4
:102B800088600020C8604FF4806008610846FEF746
:102B9000CDFF1020FEF76CF906461EB13046B9E7AE
:102BA0002620B7E7A54800880004A34908600D2047
:102BB0004860402088600020C8604FF48060086151
:102BC0000846FEF7B3FF0D20FEF752F906460EB198
:102BD00030469FE79548406903904FF0FF341BE073
:102BE000641E964800880004934908600D204860E0
:102BF000402088600020C8604FF48060086108466B
:102C0000FEF794FF0D20FEF733F906460EB130466D
:102C100080E7864840690390039800F4807008B903
:102C2000002CDDD10CB9292074E7834807601820F7
:102C300081494860402088600020C8604FF480606F
:102C400008610846FEF772FF1820FEF711F90646E4
:102C50000EB130465EE70020794908700598000102
:102C600073498860084645604FF0FF3008600120D6
:102C700048610020C86008610846FEF7F7FE4FF083
:102C8000FF3470480078002879D172B643E04FF4E1
:102C90008040FEF715FFC8B30198A0EB090020287B
:102CA00021D20198A0EB090000F0030020B901989F
:102CB000A0EB0900800804E00198A0EB090080085F
:102CC000401C02904FF0000A09E0DBF80000FEF71C
:102CD00051FF0AF1010A0BF1040B09F104090298F2
:102CE0008245F2D30FE04FF0000A05E05BF82A00BE
:102CF000FEF740FF0AF1010ABAF1080FF6D30BF113
:102D0000200B09F120096FF0404404E0FFE70CB903
:102D10000420FFE6641E4548406B40F21A610840FB
:102D20000028B4D00820FEF7CBFE20B10820FEF723
:102D300081FE0420EEE60220FEF7C2FE20B1022052
:102D4000FEF778FE0220E5E61020FEF7B9FE20B17E
:102D50001020FEF76FFE0520DCE64FF40070FEF752
:102D6000AFFE30B14FF40070FEF764FE0720D1E6ED
:102D700005E062B640F2FF502C4988633EE03148DE
:102D8000007801283AD1102229460698FEF7F8FE6D
:102D900000202D4908702A4908702C4908702348E2
:102DA000C06B40F21A3108432049C8630846C06A24
:102DB00040F00800C86200E0641E2548006800F486
:102DC000005008B9002CF7D11CB9FFF7C9F804204E
:102DD000A0E64FF0FF3400E0641E1C48007820B9E4
:102DE0001948007808B9002CF6D10CB9042091E6F6
:102DF0001548007810B1144800788BE640F2FF5077
:102E0000FEF718FE04A8FEF7F9FB064603E004A847
:102E1000FEF7F4FB06463EB99DF810000728F6D0F1
:102E20009DF810000628F2D0304673E6008001407D
:102E3000CC07002008000020B80700200C0000206C
:102E400011000020100000201200002013000020BC
:102E5000000402402DE9FE4F81460C4692460020B8
:102E60000290002625462C46700240EAD5566D0297
:102E700009F00300F0B14FF0000B18E04FF40072BE
:102E800049461948FDF756FB4FF4007000904FEA91
:102E90004B20471946EBE0733A461348FFF722FEF2
:102EA000029009F500790BF1010000F0FF0BD3450A
:102EB000E4DB16E0BAF1010F09D14FF400702A46A5
:102EC000334600904846FFF70DFE029009E04FF4AC
:102ED00000702A463346CDE9000A484600F006F85D
:102EE00002900298BDE8FE8F600800202DE9FF5F88
:102EF00084B0DDE9124700260020039002900025EF
:102F000080468146019007FB04FBDDF810A0DDF848
:102F100010A0BAF1000F03D1262008B0BDE8F09F41
:102F20000020D749C862D74988604860401E0860C1
:102F3000012048610020C86008610846FEF796FD40
:102F4000CF48406900F0007008B10E20E5E7CE4898
:102F50000078022808D10402DDE90601400A40EAAF
:102F6000C1504912CDE90601002C1FDDB4F5006FF8
:102F70001CDC601E2040C8B9204600F07BFC03909A
:102F8000C24804601020C149486040208860002089
:102F9000C8604FF4806008610846FEF7C7FD102046
:102FA000FDF766FF06461EB13046B6E72620B4E7B9
:102FB000012F6ED907FB04F0B0F1007F01D326206A
:102FC000ABE7B148007838B1AF480078012803D0AA
:102FD000AD48007802282DD1AD4800880004AB49E7
:102FE000086037204860402088600020C8604FF4A7
:102FF000806008610846FEF799FD3720FDF738FF2D
:1030000006460EB1304688E7A048076017209F4962
:103010004860402088600020C8604FF480600861EC
:103020000846FEF783FD1720FDF722FF06460EB186
:10303000304672E79549069808601920486040209C
:1030400088600020C8604FF4806008610846FEF781
:103050006DFD1920FDF70CFF06460EB130465CE70A
:10306000039800018749886007FB04F048604FF02F
:10307000FF300860012048610020C86008610846F0
:10308000FEF7F4FC83480078002870D1451E72B624
:1030900040E0DDE07A48406B00F48040A8B3ABEB41
:1030A000080020281ED2ABEB080000F0030018B97E
:1030B000ABEB0800800803E0ABEB08008008401C85
:1030C00001904FF0000909E0DAF80000FEF752FD28
:1030D00009F101090AF1040A08F10408019881457F
:1030E000F2D30FE04FF0000905E05AF82900FEF78F
:1030F00041FD09F10109B9F1080FF6D30AF1200ADF
:1031000008F120086FF0404504E0FFE70DB9042006
:1031100003E76D1E5A48406B40F21A310840002800
:10312000B8D00820FEF7CCFC20B10820FEF782FCC6
:103130000420F2E60220FEF7C3FC20B10220FEF7D5
:1031400079FC0220E9E61020FEF7BAFC20B110203D
:10315000FEF770FC0520E0E64FF40070FEF7B0FCCF
:1031600030B14FF40070FEF765FC0720D5E62BE088
:103170004FF48070FEF7A4FC00B34348007838B1E8
:1031800041480078012803D03F480078022815D133
:1031900000203E4908600C204860402088600020E4
:1031A000C8604FF4806008610846FEF7BFFC0C2041
:1031B000FDF75EFE06460EB13046AEE662B640F260
:1031C000FF50FEF737FC43E03248007801283FD13A
:1031D00007FB04F110220498FEF7D2FC00202E49D0
:1031E000087001202D49087000202D4908702448DE
:1031F000C06B40F21A3108432149C8630846C06ACF
:1032000040F00800C8624FF0FF3500E06D1E254811
:10321000006800F4005008B9002DF7D11DB9FEF781
:103220009FFE042079E64FF0FF3500E06D1E1C483C
:10323000007820B91848007808B9002DF6D10DB9EA
:1032400004206AE61448007810B11348007864E658
:1032500040F2FF50FEF7EEFB02A8FEF7CFF906465C
:1032600003E002A8FEF7CAF906463EB99DF8080039
:103270000728F6D09DF808000628F2D030464CE624
:1032800000800140CC07002008000020B807002083
:103290000C0000201000002012000020110000206F
:1032A0001300002000040240704710B500F002F83F
:1032B00010BD00000CB5002001900090334800685C
:1032C00040F480303149086000BF3048006800F4A5
:1032D000003000900198401C0190009818B90198A6
:1032E000B0F5A06FF1D12948006800F4003010B1AA
:1032F0000120009001E0002000900098012843D1B7
:103300002348006840F01000214908600846006822
:1033100020F0030008600846006840F002000860E2
:103320001A4840681949486008464068486008469D
:10333000406840F4806048600846406820F47C1093
:1033400048600846406840F4E81048600846006855
:1033500040F08070086000BF0C48006800F000700A
:103360000028F9D00948406820F003000749486068
:103370000846406840F00200486000BF03484068CB
:1033800000F00C000828F9D10CBD0000001002402C
:10339000002002407047000010B51348006840F05C
:1033A00001001149086008464068104908400E496C
:1033B0004860084600680E4908400B490860084606
:1033C000006820F4802008600846406820F4FE0071
:1033D00048604FF41F008860FFF767FF4FF0006000
:1033E0000449086010BD0000001002400000FFF812
:1033F000FFFFF6FE08ED00E000B50146FEF72AFAF1
:103400006020104A108001F01F004FF0D842A2F84F
:103410008000FEF71FFA61200A4A1080C1F34510B0
:103420004FF0D842A2F88000FEF714FA6220054A55
:103430001080C80A4FF0D842A2F88000FEF70AFABE
:1034400000BD00008400006C00B50146FEF702FAE2
:103450004420034A10804FF0D840A0F8801000BDEF
:103460008400006C00B5FEF7F5F94020054A108095
:10347000FEF784FA014641F020014FF0D840A0F851
:10348000801000BD8400006C00B5FEF7E3F9402019
:10349000054A1080FEF772FA014601F08F014FF0E5
:1034A000D840A0F8801000BD8400006C00B5014633
:1034B000FEF7D0F94E20034A10804FF0D840A0F814
:1034C000801000BD8400006C00B50146FEF7C2F913
:1034D0004F20034A10804FF0D840A0F8801000BD64
:1034E0008400006C00B50146FEF7B4F96320104A71
:1034F000108001F01F004FF0D842A2F88000FEF7C4
:10350000A9F964200A4A1080C1F345104FF0D8424F
:10351000A2F88000FEF79EF96520054A1080C80ACF
:103520004FF0D842A2F88000FEF794F900BD0000E9
:103530008400006C10B5FDF71DFC10BD21B182891F
:1035400042F40052828104E082894DF6FF731A40F2
:103550008281704770B502460024002300250020B8
:1035600040F66A16B14200D100BFC1F3421501F026
:103570001F03012606FA03F3012D02D19689334079
:1035800006E0022D02D1168A334001E0968A3340CC
:103590000C12012606FA04F41688344013B10CB15B
:1035A000012000E0002070BDF0B503460024002695
:1035B0000025002040F66A17B94200D100BF184626
:1035C000C1F3421401F01F06012707FA06F5012C8A
:1035D00001D10C3004E0022C01D1103000E0143095
:1035E0001AB107682F43076002E00768AF4307601E
:1035F000F0BD00002DE9F04786B005460E460024D8
:10360000A24600BFA1460027B08900B100BF2F46E7
:103610002C8A4CF6FF700440F08804432C82AC895D
:103620004EF6F3100440B08831890843718908438D
:103630000443AC81AC8A4FF6FF400440B089044398
:10364000AC8201A8FEF730F91F48874202D1DDF8AD
:1036500010A001E0DDF80CA0A88900F4004040B102
:103660000AEBCA0000EB0A1031684900B0FBF1F820
:1036700007E00AEBCA0000EB0A1031688900B0FBD2
:10368000F1F86420B8FBF0F004012009642101FB8B
:103690001089A88900F4004040B1322000EBC90035
:1036A000B0FBF1F000F00700044308E0322000EB2B
:1036B00009106421B0FBF1F000F00F0004432C81ED
:1036C00006B0BDE8F0870000003801400146888858
:1036D000C0F308007047C1F308028280704700BF42
:1036E000FEE730380A2801D20120704700207047D9
:1036F00000BF704770B504460D4600202071401E83
:10370000E0622946204601F02FFE08B1032070BD7B
:1037100094F82E1294F82F0241EA00204AF655211F
:10372000884201D00220F2E794F86900010694F87B
:10373000680041EA004194F8670041EA002094F8EB
:103740006610084320F07F400D49884201D10020D7
:10375000DDE794F88500010694F8840041EA004111
:1037600094F8830041EA002094F88210084320F086
:103770007F400349884201D10020C8E70120C6E705
:1037800046415400024600E0521C107810B11078F7
:103790008842F9D11078704770B503460D46586AD3
:1037A000021D680A1E68B678B0FBF6F400BF02CAB4
:1037B00009B9002070BD8C4200D202E0641A121DCB
:1037C000F5E700BF10682044F4E70246891E5069FF
:1037D000801E884201D8002070479378906A01FBD0
:1037E0000300F9E72DE9F04705460C46207820F064
:1037F0004000401E00EB800101EBC00600274FF0A7
:10380000010800BF1A48C05D205C1949C95D214408
:10381000497840EA0129B8F1000F10D0484601F07C
:1038200073F88046FF2E07D23146761C35F811001A
:1038300001F06AF8404508D00020BDE8F0874FF657
:10384000FF70814501D00020F7E7781C07460D285E
:10385000D8D3207800F0400038B1B8F1000F04D080
:1038600035F8160008B10020E7E70120E5E7000081
:10387000D45F00080146002002E04910421CD0B28B
:103880000129FAD170472DE9F04704468946B9F17C
:10389000000F06D1E76817B16069B84215D8012753
:1038A00013E04946204601F037FB0646022E02D2BD
:1038B0000120BDE8F087701C08B93046F9E760695F
:1038C000B04201D93046F4E74F463D4600BF6D1C7B
:1038D0006069A84204D80225BD4201D90020E8E76A
:1038E0002946204601F018FB064606B909E0701C7F
:1038F00008B1012E01D13046DBE7BD42E7D10020FF
:10390000D7E700BF6FF070422946204601F07CFFE8
:103910008046B8F1000F08D1B9F1000F05D02A4652
:103920004946204601F070FF8046B8F1000F0BD1E8
:10393000E5602069401C78B12069401E20616079F3
:1039400040F00100607107E0B8F1010F02D14FF0C3
:10395000FF3000E0012005462846AAE72DE9F34F95
:1039600083B0814604980068019002E00198401CF1
:103970000190019800782F28F8D0019800785C28F1
:10398000F4D0D9F81CA000252F4600BF38467F1C74
:1039900001990C5C202C03DB2F2C01D05C2C00D176
:1039A00032E0FF2D03D3062005B0BDE8F08FE4B26E
:1039B000812C13DBE0B2FE2810DC38467F1C019915
:1039C0000E5C06EB042084B2402E01DB7E2E05DD6A
:1039D000802E01DBFE2E01DD0620E5E701212046D9
:1039E00000F046FF04460CB90620DDE7802C06DA1D
:1039F000214671A0FFF7C6FE08B10620D4E728468D
:103A00006D1C2AF81040C1E700BF0198C119049845
:103A10000160202C01DA042000E00020804608E04C
:103A2000681E3AF81040202C02D02E2C00D002E064
:103A30006D1E002DF4D100BF0DB90620B4E70020A3
:103A40002AF815000B222021D9F8180001F082FC79
:103A5000002700E07F1C3AF817002028FAD03AF837
:103A600017002E28F6D00FB148F0030800E06D1EB5
:103A700025B1681E3AF810002E28F8D1002006461D
:103A800002904FF0080B00BF38467F1C3AF81040F8
:103A900004B963E0202C03D02E2C04D1AF4202D015
:103AA00048F00308F0E70298584501D2AF4214D11C
:103AB000BBF10B0F02D148F003084FE0AF4201D039
:103AC00048F00308AF4200D948E02F460820029092
:103AD0004FF00B0BB006060ED6E7802C09DB204614
:103AE00000F012FF0021009000F0C2FE044648F0F2
:103AF0000208FF2C11DDABF101000299884204D8C5
:103B000048F00308CDF808B0BEE72212D9F8183003
:103B10000298411C02911A5419E024B1214629A0AF
:103B2000FFF730FE18B15F2448F003080FE0412C86
:103B300004DB5A2C02DC46F0020608E0612C06DBAE
:103B40007A2C04DC46F00106A4F1200084B2D9F8F6
:103B500018300298411C02911C5495E700BFD9F817
:103B600018000078E52803D10520D9F8181008704E
:103B7000BBF1080F01D1B006060E06F00C000C28B0
:103B800003D006F00300032801D148F0020808F032
:103B9000020058B906F00300012801D148F01008CE
:103BA00006F00C00042801D148F00808D9F81800E4
:103BB00080F80B800020F7E6222A3A3C3E3F7C7FCB
:103BC000000000002B2C3B3D5B5D00002DE9F04127
:103BD00004460E460021204600F01AFA0546EDB9CB
:103BE000002700BF2169206801F0BEFB054605B132
:103BF00013E060690078E52802D06069007820B998
:103C0000781C0746B04201D107E000270121204679
:103C100000F07FF80546002DE4D000BF042D00D150
:103C200007252846BDE8F0812DE9F047044600212C
:103C3000204600F0EDF9074617B13846BDE8F08799
:103C40004FF0FF09CA464FF6FF70208400BF21697C
:103C5000206801F089FB074607B157E065692E78B7
:103C60000EB9042752E0E87A00F03F08E52E05D0AF
:103C700008F0080040B1B8F10F0F05D04FF0FF0970
:103C80004FF6FF7020843AE0B8F10F0F1CD1E069C5
:103C900078B306F0400030B195F80DA026F040064C
:103CA000B146E08820844E450AD1687B504507D153
:103CB0002946E069FFF796FD10B1A9F1010000E087
:103CC000FF2000F0FF091AE0B9F1000F05D12846E6
:103CD00001F079FE504500D118E0A069C07A00F0EB
:103CE000010038B90B222846A16901F013FB08B97D
:103CF0000CE004E04FF0FF094FF6FF702084002134
:103D0000204600F006F80746002FA0D000BF384636
:103D100094E72DE9F04104468846E088461CB0B29D
:103D200008B1206910B90420BDE8F08106F00F0049
:103D300000286BD12069401C2061E06828B9206808
:103D40000089B04262D80420EEE720688078401EE7
:103D500000EA1610002859D1E168206801F0DCF86B
:103D60000546012D01D80220DEE7681C08B90120B4
:103D7000DAE720684069A84242D8B8F1000F01D1C3
:103D80000420D1E7E1682068FFF77DFD05460DB905
:103D90000720C9E7012D01D10220C5E7681C08B939
:103DA0000120C1E7206801F082FE08B10120BBE7D5
:103DB000216801F130004FF40072002101F0CAFACD
:103DC00029462068FFF701FD2168C86200270EE040
:103DD000012021680871206801F069FE08B1012006
:103DE000A2E72068C06A401C2168C8627F1C206866
:103DF0008078B842ECD82068C06AC01B2168C862CD
:103E0000E56029462068FFF7E0FC2061E680206835
:103E1000303006F00F0100EB41106061002083E7B5
:103E20002DE9F05F04468A464FF0FF09CB46042790
:103E30004FE02169206801F097FA074607B14BE08F
:103E4000666935780DB9042746E0F07A00F03F083E
:103E5000E52D0AD02E2D08D028F02000082801D109
:103E6000012000E00020504502D04FF0FF0929E07A
:103E7000B8F10F0F1AD105F0400030B196F80DB02F
:103E800025F04005A946E08820844D450AD1707B85
:103E9000584507D13146E06901F07CFC10B1A9F129
:103EA000010000E0FF2000F0FF090BE0B9F1000F76
:103EB00004D1304601F087FD584502D04FF6FF701F
:103EC000208409E000212046FFF723FF074607B1C1
:103ED00002E020690028ACD100BF0FB100202061B2
:103EE0003846BDE8F09F2DE9FE4F0446D4F818800F
:103EF000D4F81C900C224146684601F01EFA00BF1F
:103F00009DF80B0000F0010020B3002088F80B00A2
:103F1000E06101260CE033464A466946404600F01F
:103F20006FFF2046FFF780FE054605B102E0761CD4
:103F3000642EF0D300BF642E02D10720BDE8FE8FAF
:103F4000042D01D02846F9E79DF80B0088F80B00F6
:103F5000C4F81C909DF80B0000F0020060B1002630
:103F600000E0761C39F816000028FAD106F1190095
:103F70000D21B0FBF1F700E0012739462046FFF79D
:103F800025FE054645BB781E071E25D0E088C11BCF
:103F9000204600F03DF80546F5B9A06901F013FD93
:103FA000824600BF2169206801F0DEF9054605B1AF
:103FB00011E0FAB253466169E06900F08BFE01201E
:103FC0002168087100212046FFF7A3FE054615B9B8
:103FD000781E071EE6D100BFC5B92169206801F02F
:103FE000C3F9054695B920220021606901F0B2F9B4
:103FF0000B22D4E9050101F0A0F9A069C07A00F014
:10400000180061690873012021680871284695E746
:104010002DE9F04104460E46E680A568012D03D047
:1040200020684069A84202D80220BDE8F0812DB97D
:1040300020680078032801D12068456A45B92068C6
:104040000089B04201D80220EFE72068476A1EE0ED
:10405000206880784FEA001812E02946206800F0B6
:104060005BFF0546681C08B90120DEE7022D03D37B
:1040700020684069A84201D80220D6E7A6EB0806CE
:104080004645EAD229462068FFF79FFB0746E560D0
:104090000FB90220C9E707EB161020612068303005
:1040A00006F00F0100EB411060610020BDE7000049
:1040B00070B50446002514B1012C09D103E0FDF7C9
:1040C0004FFF054606E04FF4C0400549088001E077
:1040D000012500BF00BF0DB1012070BD0020FCE72D
:1040E0004C0000202DE9F04706468946154646BBA0
:1040F000B9F1000F09D0B9F1010F13D0B9F1020FD6
:1041000005D0B9F1030F19D106E0002418E04FF4EF
:1041100000702860002413E01D48B0F8500028808B
:1041200000240DE01A484FF400720023D0E9127108
:104130003846FCF774F82860002401E0042400BF2E
:1041400022E0012E1FD1B9F1000F09D0B9F1010F02
:1041500011D0B9F1020F05D0B9F1030F10D106E06B
:1041600000240FE04FF40070288000240AE00820AB
:104170002880002406E0074800882860002401E029
:10418000042400BF00E001242046BDE8F0870000C1
:10419000080800204C0000202DE9F04107460D469C
:1041A00016461C464FF0000814B90420BDE8F08103
:1041B00017B1012F1CD112E0E2B231462846FEF7BA
:1041C000AFFA804607E0FDF7CBFEE2B23146284663
:1041D000FEF7A6FA8046B8F1000FF4D10BE003E039
:1041E000761C05F50075641E002CF9D1A04602E08E
:1041F0004FF0010800BF00BFB8F1000F01D100204F
:10420000D4E70120D2E70146002070472DE9F041B4
:1042100007460D4616461C464FF0000814B9042008
:10422000BDE8F08117B1012F1CD112E0E2B2314696
:104230002846FEF70FFE804607E0FDF791FEE2B24A
:1042400031462846FEF706FE8046B8F1000FF4D14D
:104250000BE003E0761C05F50075641E002CF9D117
:10426000A04602E04FF0010800BF00BFB8F1000F08
:1042700001D10020D4E70120D2E7000010B50024CE
:104280000EE04FF40C71002001F066FA184941F875
:104290002400084650F8240000B903E0601CC4B2B2
:1042A000022CEEDB00BF4FF40A71002001F054FA3B
:1042B000104908604FF40A71002001F04DFA0E49D0
:1042C00008604FF40071002001F046FA0B490860C5
:1042D000022C0AD10748006838B10748006820B1AD
:1042E0000846006808B1002010BD0120FCE700006E
:1042F0005C000020640000206800002074000020A2
:1043000070B50546284600F05AFA044634B92846E6
:1043100001F0F6FB04460CB900202860204670BD71
:1043200070B50446204601F0EBFB05460DB90020B0
:104330002060284670BD0000F7B582B0164603988D
:10434000019001A800F0EBFE0546002D02DA0B20DB
:1043500005B0F0BD0E4850F825400CB1002020708B
:10436000029810B10020029908700949029841F89A
:104370002500029808B1012E01D00020E8E70022B4
:1043800003A902A800F0DCFA07463846E0E700007F
:10439000500000202DE9F7478DB0054616461DB99F
:1043A000092010B0BDE8F0870020286006F01F0645
:1043B00026F001020EA904A800F0C2FA0746002F59
:1043C00073D14FF4007000F091FA8146B9F1000FFB
:1043D00001D11120E5E7CDF82C9001A80A9004A89E
:1043E0000E9900F0B7FC0746099C0FB904B90627DF
:1043F00006F01C00002851D04FB1042F03D104A8AF
:10440000FFF771FD074646F00806099C09E0E07ACF
:1044100000F0110008B1072703E006F0040000B126
:104420000827002F4AD106F00800002846D000F0E7
:10443000ECFD804684F80E804FEA1821E1734FEAC4
:10444000184121744FEA186161740020E0722077EE
:1044500000216177A177E1772146049800F084FE7E
:1044600082460021204601F0A6FA01200499087135
:10447000BAF1000F22D00498D0F82C80514604984D
:1044800001F063FA0746CFB9AAF101000499C860A8
:104490004146049800F068FF07460FE077B9E07ADC
:1044A00000F0100010B1042708E031E006F002002F
:1044B00020B1E07A00F0010000B1072747B906F00B
:1044C000080008B146F020060498C06AE8612C6232
:1044D000484600F012FADFB9AE710020E8712146BB
:1044E000049800F041FE2861E07F0106A07F41EAC8
:1044F0000041607F41EA0020217F0843E8600020FE
:10450000A860A8616862049828602868C088A880AC
:10451000384646E773B584B0044614B9092006B09E
:1045200070BD002205A903A800F00AFA0546002D77
:104530002FD1039820604FF4007000F0D7F90646A1
:104540000EB91120EBE7E661C4F818D020460599B2
:1045500000F000FC0546304600F0CFF9B5B96069BF
:1045600058B16069C07A00F0100028B16169039801
:1045700000F0FAFDA06000E005253DB90398C08871
:10458000A08000212046FFF743FD0546042D00D101
:1045900005250DB1002020602846C0E72DE9FF4F1A
:1045A00083B0044615469A46DDF810B00020CAF8DC
:1045B0000000204601F0A4FA0290029818B1029877
:1045C00007B0BDE8F08FE07908B1E079F8E7A079AD
:1045D00000F0010008B90720F2E7D4E90210401A00
:1045E00000900098854200D9009DAAE02089C0F380
:1045F0000800002876D120688078401EA16800EA73
:10460000512000F0FF09B9F1000F1FD1A06810B9C7
:10461000206901900CE0606A28B12046A168FFF78C
:10462000BBF8019004E06169206800F075FC01901E
:104630000198022802D20220E071C1E70198401CD3
:1046400010B90120E071BBE70198606161692068E1
:10465000FFF7BBF8064616B90220E071B0E74E44FA
:104660004FEA5528B8F1000F29D009EB080021685E
:104670008978884203D920688078A0EB09082168EE
:104680004878434632465946FFF786FD10B101206F
:10469000E07195E7A07900F0400068B1A069801B47
:1046A000404509D2A169891B0BEB41204FF40072F0
:1046B00004F1280100F041FE4FEA482737E0A069E5
:1046C000B04220D0A07900F0400080B12168487845
:1046D000012304F12801A269FFF798FD18B1012018
:1046E000E0716DE710E0A07920F04000A071216832
:1046F00048780123324604F12801FFF74DFD10B13F
:104700000120E0715CE7A6612089C0F30800C0F5D4
:104710000077AF4200D92F462089C0F3080204F188
:10472000280011183A46584600F007FE00BFBB4467
:10473000A0683844A060DAF800003844CAF80000E5
:10474000ED1B002D7FF452AF002039E7FEB5044683
:104750000F46204601F0D4F90546002D2DD12FB982
:1047600000212046FFF754FC054626E04FF4007078
:1047700000F0BCF806460EB91120FEBDE661C4F893
:1047800018D000212046FFF74BFB0546042D02D12F
:104790000020206100256DB93946204600F037FC25
:1047A00000212046FFF7B5FA0546042D02D100206E
:1047B00020610025304600F0A0F82846DDE72DE90D
:1047C000F0410446204601F09BF90746002F4CD1EA
:1047D000A07900F02000002847D0A07900F0400028
:1047E00078B121684878012304F12801A269FFF714
:1047F0000DFD10B10120BDE8F081A07920F040004E
:10480000A071E169206800F0AFFD0746002F2CD1B0
:10481000256AE87A40F02000E872207B2877A0899A
:10482000010A6977E068010CA977E068010EE97771
:104830002846216901F0BFF800F0E7FB0646AE7597
:10484000310AE975310C2976310E69760020A87499
:104850000021E974A07920F02000A07101202168D6
:104860000871206801F0BFF807463846C3E700002A
:104870002DE9F04102460F46802A01DA10462FE06A
:104880001FB1184B45F2205602E0174B45F2205657
:104890000025102416E0A6EB050C0CEBDC7805EBEC
:1048A00068014FEA410C33F81CC0944500D10BE07D
:1048B0004FEA410C33F81CC0944501DA0D4600E084
:1048C0000E46641E002CE6D100BF34B14FF0010C3F
:1048D0000CEB410C33F81CC001E04FF0000C6046BB
:1048E000BDE8F08192B401080E60000810B50446DE
:1048F0002146002000F030FF10BD10B504462146CF
:10490000002000F0A7FE10BD0246002100E0491C77
:10491000094830F8110020B1074830F811009042E2
:10492000F5D1054830F8110018B1044830F81100ED
:1049300070471046FCE7000016090308F60A030852
:104940002DE9F74F8AB000210A9801600B9800F01A
:10495000E6FB09900998002803DA0B200DB0BDE8AA
:10496000F08FD849099851F820400CB90C20F5E790
:104970000A980460207878B16078FFF744FC81469B
:1049800009F0010040B90C9820B109F0040008B109
:104990000A20E3E70020E1E700202070099860701A
:1049A0006078FFF785FB814609F0010008B103201C
:1049B000D4E70C9820B109F0040008B10A20CDE733
:1049C000002739462046FEF795FE0546012D01D009
:1049D0009DBB32E000261AE004F5F77000EB0618E4
:1049E00098F8040070B198F80B00010698F80A00D6
:1049F00041EA004198F8090041EA002098F80810BF
:104A0000084300E0002002A941F82600761C042E8D
:104A1000E2D3002606B1761E00BF02A850F8267029
:104A200027B139462046FEF765FE00E00220054624
:104A30001DB1701C06460428EFD3032D01D10120BF
:104A40008CE70DB10D2089E73B20015D94F83C0017
:104A500041EA0020B0F5007F01D00D207EE746201E
:104A6000015D94F8470041EA002ABAF1000F0ED127
:104A700094F85700010694F8560041EA004194F872
:104A8000550041EA002094F8541040EA010AC4F8A5
:104A900018A04020005DE070E078012804D0E078A4
:104AA000022801D00D2059E7E0780AFB00FA3D20EA
:104AB000005DA070A07818B1A078411E084008B130
:104AC0000D204BE74120015D94F8420041EA0020AF
:104AD0002081207A00F00F0008B10D203EE743202E
:104AE000015D94F8440041EA00200890089870B9EC
:104AF00094F85300010694F8520041EA004194F8FA
:104B0000510041EA002094F85010084308903E20DC
:104B1000015D94F83F0041EA00200190019808B936
:104B20000D201BE701985044218900EB11100790DC
:104B3000DDE90701814201D20D200FE7DDE9071011
:104B4000401AA178B0FBF1FBBBF1000F01D10D20A1
:104B500004E7012540F6F670834500D302254FF6A1
:104B6000F670834500D303250BF102006061E76115
:104B700001983844206207983844A062032D16D16A
:104B8000208908B10D20E9E694F85F00010694F849
:104B90005E0041EA004194F85D0041EA002094F88B
:104BA0005C100843606260698000069014E0208910
:104BB00008B90D20D2E6206A50446062022D02D16D
:104BC0006069400007E0207D00F00100616901EBB1
:104BD000410100EB51000690A169069800F2FF1018
:104BE000B1EB502F01D20D20B8E64FF0FF3020611D
:104BF000E06080206071032D5AD194F8601094F821
:104C0000610041EA0020012852D1791C204600F0C1
:104C1000ABFBE8BB0020607194F82E1294F82F02D1
:104C200041EA00204AF65521884241D13320005DF7
:104C300001063220005D41EA00413120005D41EA79
:104C4000002094F8301008431F49884230D194F86E
:104C50001702010694F8160241EA004194F8150281
:104C600041EA002094F814120843184988421FD1E1
:104C700094F81B02010694F81A0241EA004194F8E4
:104C8000190241EA002094F818120843206100E05C
:104C90000EE094F81F02010694F81E0241EA00415A
:104CA00094F81D0241EA002094F81C120843E060C9
:104CB000257007480088401C80B205490880E080C4
:104CC00000204BE650000020525261417272416157
:104CD00058000020F0B504461D464D730F27CF72D3
:104CE00000270F738F76BC4681F81BC0571E07EB59
:104CF000870C0CEBC706002738463B4600BF4FF633
:104D0000FF77B84203D03746761C34F81700DFF837
:104D100040C01CF803C001F80C000712DFF830C0D7
:104D20001CF803C08C448CF8017008B94FF6FF7072
:104D30005F1C3B460D2FE2D34FF6FF77B84202D0FF
:104D400034F816700FB942F040020A70F0BD00004E
:104D5000D45F00082DE9F3410446019800782F281C
:104D600003D0019800785C2802D10198401C019082
:104D70000020A06001980078202807D2002120465A
:104D8000FFF746F905460020606128E000BF01A951
:104D90002046FEF7E3FD054605B11FE02046FEF77D
:104DA00043FF0546A069C67A3DB1042D04D100BF7A
:104DB00006F0040000B9052510E006F0040000B17B
:104DC0000CE06769F87A00F0100008B9052505E0E5
:104DD0003946206800F0C8F9A060D8E700BF28462F
:104DE000BDE8FC8100BF054A128802F04002002A9B
:104DF000F9D0C2B2014B1B1D1A8070470038014028
:104E00002DE9FF4F83B0074691461E460B223846D8
:104E1000049900F092FA052E19D9B04612E039F83B
:104E200002BB00250CE0584668F35F0080464FEA5D
:104E30006B0B08F4803010B1234888EA00086D1C21
:104E4000102DF0D3B9F800000028E8D14646072518
:104E500000BF06F00F0000F1300ABAF1390F03DD90
:104E60000AF1070000F0FF0A28466D1E01A901F8AB
:104E700000A03609002EECD17E20485500240BE01E
:104E8000385D812807DB385DFE2804DC681EA042FF
:104E900000D106E0641C641CAC4202D2385D2028BC
:104EA000EED100BF00BF082D04D228466D1C01A919
:104EB000095C00E020212046641C3954082CF2D300
:104EC00007B0BDE8F08F00002110010070B58AB076
:104ED00004460026214601A8FFF71CFB05469DB9A4
:104EE00000BF0C4901A8FFF731FC054615B9094878
:104EF000407A00B907E00748007A00F01000002867
:104F0000EFD1761CEDE700BF01A8FFF709FA3046A4
:104F10000AB070BD800700202DE9F04705460C4619
:104F2000022C02D36869A04202D84FF0010969E05F
:104F30004FF0FF392878012804D002282ED003280A
:104F40005CD13FE0274607EB5707286A00EB572163
:104F5000284600F009FA00B153E038467F1CC0F340
:104F6000080105F1300010F80180286A00EB572194
:104F7000284600F0F9F900B143E0C7F3080105F154
:104F80003000405C48EA002804F0010010B14FEA0C
:104F9000181001E0C8F30B00814632E0286A00EBEC
:104FA0001421284600F0E0F900B12AE040F2FF1099
:104FB00000EA440105F130000E183078717840EABB
:104FC00001291EE0286A00EBD411284600F0CCF934
:104FD00000B116E040F2FF1000EA840105F1300054
:104FE0000E18F0780006B17840EA0140717840EA86
:104FF00001203178084320F0704902E04FF00109A8
:1050000000BF00BF4846BDE8F087002070472DE98B
:10501000F05F80460D4605F10907D8F8100000281A
:1050200043D0D8F81440002626E03046761C14F809
:105030000090B9F1200F00D11EE0B9F1050F01D1A8
:105040004FF0E509092E02D12E2007F8010BB9F126
:10505000410F0EDBB9F15A0F0BDC207B092E01D377
:10506000102100E00821084018B109F1200000F0EB
:10507000FF0907F8019B00BF0B2ED6D3E07A2872F8
:10508000E07F0106A07F41EA0041607F41EA002005
:10509000217F08432860217E607E41EA0020A880AD
:1050A000A17DE07D41EA0020E88000203870A869F9
:1050B00098B30026AF69D8F8100060B3E86950B320
:1050C000B8F820004FF6FF71884224D0D8F81CB001
:1050D0001BE000215046FFF7CBFB8246BAF1000FE0
:1050E00001D1002616E0BAF1FF0F04DD4FEA2A22B3
:1050F0003046761C3A54E869401EB04201D800267A
:1051000008E03046761C07F800A03BF8021BB1F11E
:10511000000ADED100BF0020B855BDE8F09F70B591
:1051200002464FF0FF301568E5B1116800E0491CF8
:105130000D78202D02D30D783A2DF8D10D783A2D27
:105140000FD1146814F8015BA5F130030A2B07D2C4
:105150008C4205D1022B03D218464D1C29461560FE
:1051600070BD002000BFFBE710B502468C7ECB7EF1
:1051700044EA03201378032B05D10C7D4B7D44EAD0
:10518000032340EA034010BD00250024FBF710FC78
:10519000FBF720FCFBF7BAFC4FF4A060FCF720FB08
:1051A0004FF4E130FBF7F8FD002000F0BDF90EE010
:1051B0003FA0FBF759F84348FCF70FF842A0FBF774
:1051C00053F84048FCF709F80120FBF7F7FBFCF720
:1051D000C7FE0028ECD1FFF751F83F4901220868CB
:1051E0003EA1FFF7A9F800203D49086000243DA03A
:1051F00000F0D4F8064600F0FDF83C48FFF766FEE4
:10520000054629463AA0FBF72FF850E00020FCF7AE
:1052100043FA0646012E02D0022E46D120E0304845
:10522000006808B9012000E000202D490860601CDA
:1052300090FBF5F105FB1104214632A0FBF714F8B1
:105240000A223149204600F017FA30A12E48FBF718
:1052500065F92D4800F0A2F8074600F0CBF824E0ED
:105260001F48006808B9012000E000201C490860C0
:10527000002C01DC6C1E04E0601E90FBF5F105FBC8
:10528000110421461FA0FAF7EFFF0A221E4920460B
:1052900000F0F2F91DA11C48FBF740F91A4800F094
:1052A0007DF8074600F0A6F800BF00BF00BFADE7DD
:1052B00053442043617264204572726F7221200A48
:1052C00000000000FFFF4F00506C656173652043D4
:1052D0006865636B21200A005C000020303A000002
:1052E000AC812342302E62696E000000B45F00087A
:1052F00064697246696C654E756D203D2025640AAF
:105300000000000025640A00B80600202E62696EC5
:1053100000000000F0B503461C460D46002000BF0B
:10532000161EA2F1010207D014F8017B15F801CB7B
:10533000A7EB0C06301EF3D0F0BD70B503460C464B
:1053400003E014F8015B03F8015B151EA2F10102F2
:10535000F7D170BD30B5034601E003F8011B141E00
:10536000A2F10102F9D130BD70B504460D46002608
:10537000E06AA84210D0204600F099FB06465EB9CC
:10538000607801232A4604F13001FEF705FF10B1D1
:105390004FF0FF350126E562304670BD10B504467A
:1053A00004490548FBF796F821460348FBF7B6F891
:1053B000014810BD505F00081C0700202DE9F04790
:1053C00005460E46174600240FE0295D601C285C48
:1053D00041EA0028A14604EBD971C1F34F004246CF
:1053E0003946FCF709FAA01C84B2B4EB460FECDB9B
:1053F000BDE8F0872DE9F041ADF50A7D06460027AE
:10540000012231466846FEF7C5FF8046B8F1000F1D
:1054100017D000250DE0002406E01F222946204673
:10542000FCF7EAF9601C84B2B4F5487FF5DB681C30
:1054300085B2B5F5F07FEEDB314614A0FAF714FF24
:1054400003E0314616A0FAF70FFF15E0194B4FF4B1
:10545000C86219496846FFF7A1F88046B8F1000F05
:1054600002D11448006800B907E0BAB24FF448719D
:105470001148FFF7A3FF7F1CE8E700BF6846FEF76F
:105480003FFF0DF50A7DBDE8F081000063616E6E9F
:105490006F742072656164202573200A000000008B
:1054A000726561642025732020737563636573736F
:1054B0000A0000006C000020780000202DE9F04177
:1054C00004460E461548005D38B91448183801687E
:1054D000204688470120BDE8F081114850F824009B
:1054E000B04219D90F4850F82400B6FBF0F10B4830
:1054F000083850F8240030F81120002508E0002377
:105500000648083850F824004F1920F817306D1C51
:105510009542F4DB0020DEE70220DCE748000020B3
:10552000CC5F0008C45F000810B504460C4951F870
:1055300024104A000B4951F82400002100F020F902
:10554000094951F824200749083951F8240000215D
:1055500000F016F9012103480830015510BD000084
:10556000BC5F000840000020CC5F00082DE9F04738
:1055700004460F460025A9462348005D20B922486D
:1055800018380168204688471FB94FF0FF30BDE842
:10559000F0871E4850F82400B7FBF0F61B4850F87F
:1055A0002400B7FBF0F100FB117000B1761C184825
:1055B00050F82400451E22E01348083850F8240013
:1055C00030F8150010B909F1010901E04FF00009A8
:1055D000B14513D14FF0000809E00B48083850F8E6
:1055E000240005EB080220F8126008F10108B0451C
:1055F000F3D3064850F824006843C8E76D1E002D19
:10560000DADA4FF0FF30C2E748000020C45F00083C
:10561000BC5F000810B501460023002207E00B48DC
:1056200050F8210030F8120000B15B1C521C0848F1
:1056300050F821009042F2D864205843044C54F8AA
:105640002140B0FBF4F0C0B210BD000040000020CB
:10565000BC5F000870B505460C4604B970BD05482E
:1056600050F82500261A31462846FFF727FF00BFCD
:10567000F4E70000380000202DE9F04F91B080469B
:105680000C46914628222AA106A8FAF798FF002680
:10569000B9F10A0F09D1B8F1000F06DAC8F1000715
:1056A0002D223046761C225400E0474600BFB7FB4F
:1056B000F9F009FB107006A90A5C3046761C2254EA
:1056C000B7FBF9F7002FF2D10020A05520782D2844
:1056D00002D14FF0010A01E04FF0000A55460AE0FE
:1056E00014F805B0701B401E205C6055701B401EF6
:1056F00004F800B06D1CA6EB0A01481E00F080FB08
:1057000000224FF08043CDE9000100F021FACDE9FD
:105710000401284600F074FBCDE90201DDE9042311
:1057200000F086FBDCD9204611B0BDE8F08F000008
:1057300030313233343536373839414243444546C7
:105740004748494A4B4C4D4E4F5051525354555671
:105750005758595A0000000070B504460E463146AD
:105760002046FFF703FF0546681C08B9002070BDFE
:10577000024850F824002844F9E7000038000020CF
:1057800030B5034601E003F8011B141EA2F101022B
:10579000F9D130BDF0B50346087800F03F00401E57
:1057A00000EB800707EBC0020025012600BF15486B
:1057B000405D085C134F7F5D0F447F7840EA07240B
:1057C0004EB1FF2A01D30020F0BD26461046521CE0
:1057D00023F8104005E04FF6FF70844201D000200E
:1057E000F2E7681C05460D28E1D3087800F0400078
:1057F00030B1FF2A01D30020E6E7002023F8120091
:105800000120E1E7D45F00082DE9F04705460E4688
:105810001746022E02D36869B04202D84FF0020840
:1058200090E02878012804D0022844D003287DD1B4
:1058300059E0B14609EB5909286A00EB592128467D
:10584000FFF792FD8046B8F1000F00D079E048469E
:1058500009F10109C0F3080105F130000C1806F048
:10586000010020B1F9B2207861F31F1000E0384642
:10587000207001202871286A00EB59212846FFF783
:1058800073FD8046B8F1000F00D05AE0C9F308015B
:1058900005F130000C1806F0010010B1C7F3071035
:1058A00005E0207800F0F000C7F3032108432070E2
:1058B0000120287145E0286A00EB16212846FFF7F1
:1058C00053FD8046B8F1000F00D03AE040F2FF10DF
:1058D00000EA460105F130000C182770380A6070A4
:1058E000012028712DE0286A00EBD6112846FFF729
:1058F0003BFD8046B8F1000F00D022E040F2FF10DF
:1059000000EA860105F130000C18E0780006A17865
:1059100040EA0140617840EA01202178084300F024
:10592000704007432770380A607000E006E0380CCA
:10593000A070380EE0700120287102E04FF00208DC
:1059400000BF00BF4046BDE8F0872DE9F0410446A6
:105950000E46022E02D36069B04201D8022727E02A
:10596000002721E031462046FFF7D6FA054605B963
:105970001DE0012D01D1022719E0681C08B901279B
:1059800015E0002231462046FFF73EFF074607B1EB
:105990000DE02069401C30B12069401C2061607915
:1059A00040F0010060712E466069B042DAD800BF55
:1059B0003846BDE8F08181760B0AC3760A0C027581
:1059C0000B0E4375704730B5014600200B2200BF17
:1059D000431003EBC01411F8015B6319D8B2531ED6
:1059E0001A1EF5D130BD70B50446204600F05FF8B0
:1059F0000546002D59D1207803284FD16079012820
:105A00004CD14202002104F13000FFF7A3FC5521E4
:105A100084F82E12AA2184F82F12522084F8300024
:105A2000522131200155612132200155412133207D
:105A30000155722184F8141284F81512412184F85A
:105A40001612612184F81712217C84F81812208A1A
:105A5000010A84F819122069010C84F81A122069CD
:105A6000010E84F81B12217B84F81C12A089010A04
:105A700084F81D12E068010C84F81E12E068010E23
:105A800084F81F12E069401CE0626078012304F191
:105A90003001E26AFEF7BAFB0020607160780022F4
:105AA0001146FEF71FFB00B10125284670BD2DE908
:105AB000F041044600272079F8B1E56A60780123B7
:105AC0002A4604F13001FEF7A1FB08B1012714E0DA
:105AD00000202071206A281AA16988420DD2E67838
